{
  "_format": "hh-sol-artifact-1",
  "contractName": "CultureBridgeFactory",
  "sourceName": "blockchain/contracts/CultureBridgeFactory.sol",
  "abi": [
    {
      "inputs": [
        {
          "internalType": "address",
          "name": "initialOwner",
          "type": "address"
        }
      ],
      "stateMutability": "nonpayable",
      "type": "constructor"
    },
    {
      "inputs": [
        {
          "internalType": "address",
          "name": "owner",
          "type": "address"
        }
      ],
      "name": "OwnableInvalidOwner",
      "type": "error"
    },
    {
      "inputs": [
        {
          "internalType": "address",
          "name": "account",
          "type": "address"
        }
      ],
      "name": "OwnableUnauthorizedAccount",
      "type": "error"
    },
    {
      "anonymous": false,
      "inputs": [
        {
          "indexed": false,
          "internalType": "address",
          "name": "identityContract",
          "type": "address"
        },
        {
          "indexed": false,
          "internalType": "address",
          "name": "assetContract",
          "type": "address"
        },
        {
          "indexed": false,
          "internalType": "address",
          "name": "exchangeContract",
          "type": "address"
        },
        {
          "indexed": false,
          "internalType": "address",
          "name": "tokenContract",
          "type": "address"
        }
      ],
      "name": "ContractsDeployed",
      "type": "event"
    },
    {
      "anonymous": false,
      "inputs": [
        {
          "indexed": true,
          "internalType": "address",
          "name": "previousOwner",
          "type": "address"
        },
        {
          "indexed": true,
          "internalType": "address",
          "name": "newOwner",
          "type": "address"
        }
      ],
      "name": "OwnershipTransferred",
      "type": "event"
    },
    {
      "inputs": [],
      "name": "assetContract",
      "outputs": [
        {
          "internalType": "contract CultureBridgeAsset",
          "name": "",
          "type": "address"
        }
      ],
      "stateMutability": "view",
      "type": "function"
    },
    {
      "inputs": [],
      "name": "exchangeContract",
      "outputs": [
        {
          "internalType": "contract CultureBridgeExchange",
          "name": "",
          "type": "address"
        }
      ],
      "stateMutability": "view",
      "type": "function"
    },
    {
      "inputs": [],
      "name": "getContractAddresses",
      "outputs": [
        {
          "internalType": "address",
          "name": "identity",
          "type": "address"
        },
        {
          "internalType": "address",
          "name": "asset",
          "type": "address"
        },
        {
          "internalType": "address",
          "name": "exchange",
          "type": "address"
        },
        {
          "internalType": "address",
          "name": "token",
          "type": "address"
        }
      ],
      "stateMutability": "view",
      "type": "function"
    },
    {
      "inputs": [],
      "name": "identityContract",
      "outputs": [
        {
          "internalType": "contract CultureBridgeIdentity",
          "name": "",
          "type": "address"
        }
      ],
      "stateMutability": "view",
      "type": "function"
    },
    {
      "inputs": [],
      "name": "owner",
      "outputs": [
        {
          "internalType": "address",
          "name": "",
          "type": "address"
        }
      ],
      "stateMutability": "view",
      "type": "function"
    },
    {
      "inputs": [],
      "name": "renounceOwnership",
      "outputs": [],
      "stateMutability": "nonpayable",
      "type": "function"
    },
    {
      "inputs": [],
      "name": "tokenContract",
      "outputs": [
        {
          "internalType": "contract CultureBridgeToken",
          "name": "",
          "type": "address"
        }
      ],
      "stateMutability": "view",
      "type": "function"
    },
    {
      "inputs": [
        {
          "internalType": "address",
          "name": "_newOwner",
          "type": "address"
        }
      ],
      "name": "transferOwnership",
      "outputs": [],
      "stateMutability": "nonpayable",
      "type": "function"
    }
  ],
  "bytecode": "0x608060405234801561001057600080fd5b506040516160c23803806160c283398101604081905261002f916102a9565b806001600160a01b03811661005e57604051631e4fbdf760e01b81526000600482015260240160405180910390fd5b61006781610232565b508060405161007590610282565b6001600160a01b039091168152602001604051809103906000f0801580156100a1573d6000803e3d6000fd5b50600180546001600160a01b0319166001600160a01b039290921691909117905560405181906100d09061028f565b60608082526013908201527f43756c7475726542726964676520417373657400000000000000000000000000608082015260a0602082018190526003908201526243424160e81b60c08201526001600160a01b03909116604082015260e001604051809103906000f08015801561014b573d6000803e3d6000fd5b50600280546001600160a01b0319166001600160a01b0392831690811790915560015460405184939190911691906101829061029c565b6001600160a01b03938416815291831660208301529091166040820152606001604051809103906000f0801580156101be573d6000803e3d6000fd5b50600380546001600160a01b0319166001600160a01b039283169081179091556001546002546040805192851683529316602082015291820152600060608201527f4b75aa1a13a160f48feea5d6d4f23760de2ae3e26f90d390b095aa4faa4854859060800160405180910390a1506102d9565b600080546001600160a01b038381166001600160a01b0319831681178455604051919092169283917f8be0079c531659141344cd1fd0a4f28419497f9722a3daafe3b4186f6b6457e09190a35050565b610d63806106b783390190565b6125738061141a83390190565b6127358061398d83390190565b6000602082840312156102bb57600080fd5b81516001600160a01b03811681146102d257600080fd5b9392505050565b6103cf806102e86000396000f3fe608060405234801561001057600080fd5b50600436106100885760003560e01c8063715018a61161005b578063715018a6146100f65780638da5cb5b14610100578063953874d214610111578063f2fde38b1461015157600080fd5b80633f0a07971461008d5780634d16304f146100bd57806355a373d6146100d057806367031bae146100e3575b600080fd5b6003546100a0906001600160a01b031681565b6040516001600160a01b0390911681526020015b60405180910390f35b6002546100a0906001600160a01b031681565b6004546100a0906001600160a01b031681565b6001546100a0906001600160a01b031681565b6100fe610164565b005b6000546001600160a01b03166100a0565b600154600254600354600454604080516001600160a01b0395861681529385166020850152918416918301919091529190911660608201526080016100b4565b6100fe61015f366004610369565b610178565b61016c6102a9565b61017660006102db565b565b6101806102a9565b6101898161032b565b60015460405163f2fde38b60e01b81526001600160a01b0383811660048301529091169063f2fde38b90602401600060405180830381600087803b1580156101d057600080fd5b505af11580156101e4573d6000803e3d6000fd5b505060025460405163f2fde38b60e01b81526001600160a01b038581166004830152909116925063f2fde38b9150602401600060405180830381600087803b15801561022f57600080fd5b505af1158015610243573d6000803e3d6000fd5b505060035460405163f2fde38b60e01b81526001600160a01b038581166004830152909116925063f2fde38b9150602401600060405180830381600087803b15801561028e57600080fd5b505af11580156102a2573d6000803e3d6000fd5b5050505050565b6000546001600160a01b031633146101765760405163118cdaa760e01b81523360048201526024015b60405180910390fd5b600080546001600160a01b038381166001600160a01b0319831681178455604051919092169283917f8be0079c531659141344cd1fd0a4f28419497f9722a3daafe3b4186f6b6457e09190a35050565b6103336102a9565b6001600160a01b03811661035d57604051631e4fbdf760e01b8152600060048201526024016102d2565b610366816102db565b50565b60006020828403121561037b57600080fd5b81356001600160a01b038116811461039257600080fd5b939250505056fea26469706673582212206c9384e16078500fdce0a5006f9f8d473fde74f61d74fa1e0f4e9b2e408b811264736f6c63430008160033608060405234801561001057600080fd5b50604051610d63380380610d6383398101604081905261002f916100be565b806001600160a01b03811661005e57604051631e4fbdf760e01b81526000600482015260240160405180910390fd5b6100678161006e565b50506100ee565b600080546001600160a01b038381166001600160a01b0319831681178455604051919092169283917f8be0079c531659141344cd1fd0a4f28419497f9722a3daafe3b4186f6b6457e09190a35050565b6000602082840312156100d057600080fd5b81516001600160a01b03811681146100e757600080fd5b9392505050565b610c66806100fd6000396000f3fe608060405234801561001057600080fd5b506004361061009e5760003560e01c80637b9891c4116100665780637b9891c4146101275780638da5cb5b1461013a5780638e4f96061461014b578063c2cab9771461015e578063f2fde38b1461018157600080fd5b80631d2e4afd146100a35780634d813120146100b85780636322961d146100cb5780636386c1c7146100fb578063715018a61461011f575b600080fd5b6100b66100b1366004610867565b610194565b005b6100b66100c63660046108e7565b610350565b6100de6100d9366004610909565b6103de565b6040516001600160a01b0390911681526020015b60405180910390f35b61010e6101093660046108e7565b61040f565b6040516100f2959493929190610996565b6100b661057e565b6100b66101353660046109db565b610592565b6000546001600160a01b03166100de565b6100b6610159366004610a1f565b610664565b61017161016c3660046109db565b6106c2565b60405190151581526020016100f2565b6100b661018f3660046108e7565b610709565b33600090815260026020526040902054156101f65760405162461bcd60e51b815260206004820152601760248201527f5573657220616c7265616479207265676973746572656400000000000000000060448201526064015b60405180910390fd5b60006001600160a01b03166003836040516102119190610a49565b908152604051908190036020019020546001600160a01b0316146102705760405162461bcd60e51b81526020600482015260166024820152752ab9b2b93730b6b29030b63932b0b23c903a30b5b2b760511b60448201526064016101ed565b6001805490600061028083610a65565b909155505060018054336000908152600260205260409020818155909181016102a98582610b17565b50600281016102b88482610b17565b50600060038083019190915560048201805460ff191690556040513391906102e1908790610a49565b90815260405190819003602001812080546001600160a01b03939093166001600160a01b03199093169290921790915533907fbc6cd93a5a69dae46517fc4b81c3c705973b0fabb816aae5d0ff7a077c4d5d18906103429085908890610bd7565b60405180910390a250505050565b610358610747565b6001600160a01b038116600090815260026020526040812054900361038f5760405162461bcd60e51b81526004016101ed90610bf0565b6001600160a01b038116600081815260026020526040808220600401805460ff19166001179055517fa6625d2d26e786e2f473111bea4b2fcdbbf1863d883a2359989ce3a103d2972a9190a250565b60006003826040516103f09190610a49565b908152604051908190036020019020546001600160a01b031692915050565b6001600160a01b0381166000908152600260208190526040822080546003820154600483015460018401805460609687968996879691959094939286019260ff90911690849061045e90610a8c565b80601f016020809104026020016040519081016040528092919081815260200182805461048a90610a8c565b80156104d75780601f106104ac576101008083540402835291602001916104d7565b820191906000526020600020905b8154815290600101906020018083116104ba57829003601f168201915b505050505093508280546104ea90610a8c565b80601f016020809104026020016040519081016040528092919081815260200182805461051690610a8c565b80156105635780601f1061053857610100808354040283529160200191610563565b820191906000526020600020905b81548152906001019060200180831161054657829003601f168201915b50505050509250955095509550955095505091939590929450565b610586610747565b6105906000610774565b565b61059a610747565b6001600160a01b03821660009081526002602052604081205490036105d15760405162461bcd60e51b81526004016101ed90610bf0565b6001600160a01b038216600090815260026020526040908190209051600191600501906105ff908490610a49565b908152604051908190036020018120805492151560ff19909316929092179091556001600160a01b038316907f61d15d1a8a9eae9b8dbc91456aba9bd75089cd9761ffefeaf4c93f2c405ae74f90610658908490610c1d565b60405180910390a25050565b61066c610747565b6001600160a01b03821660009081526002602052604081205490036106a35760405162461bcd60e51b81526004016101ed90610bf0565b6001600160a01b03909116600090815260026020526040902060030155565b6001600160a01b03821660009081526002602052604080822090516005909101906106ee908490610a49565b9081526040519081900360200190205460ff16905092915050565b610711610747565b6001600160a01b03811661073b57604051631e4fbdf760e01b8152600060048201526024016101ed565b61074481610774565b50565b6000546001600160a01b031633146105905760405163118cdaa760e01b81523360048201526024016101ed565b600080546001600160a01b038381166001600160a01b0319831681178455604051919092169283917f8be0079c531659141344cd1fd0a4f28419497f9722a3daafe3b4186f6b6457e09190a35050565b634e487b7160e01b600052604160045260246000fd5b600082601f8301126107eb57600080fd5b813567ffffffffffffffff80821115610806576108066107c4565b604051601f8301601f19908116603f0116810190828211818310171561082e5761082e6107c4565b8160405283815286602085880101111561084757600080fd5b836020870160208301376000602085830101528094505050505092915050565b6000806040838503121561087a57600080fd5b823567ffffffffffffffff8082111561089257600080fd5b61089e868387016107da565b935060208501359150808211156108b457600080fd5b506108c1858286016107da565b9150509250929050565b80356001600160a01b03811681146108e257600080fd5b919050565b6000602082840312156108f957600080fd5b610902826108cb565b9392505050565b60006020828403121561091b57600080fd5b813567ffffffffffffffff81111561093257600080fd5b61093e848285016107da565b949350505050565b60005b83811015610961578181015183820152602001610949565b50506000910152565b60008151808452610982816020860160208601610946565b601f01601f19169290920160200192915050565b85815260a0602082015260006109af60a083018761096a565b82810360408401526109c1818761096a565b606084019590955250509015156080909101529392505050565b600080604083850312156109ee57600080fd5b6109f7836108cb565b9150602083013567ffffffffffffffff811115610a1357600080fd5b6108c1858286016107da565b60008060408385031215610a3257600080fd5b610a3b836108cb565b946020939093013593505050565b60008251610a5b818460208701610946565b9190910192915050565b600060018201610a8557634e487b7160e01b600052601160045260246000fd5b5060010190565b600181811c90821680610aa057607f821691505b602082108103610ac057634e487b7160e01b600052602260045260246000fd5b50919050565b601f821115610b12576000816000526020600020601f850160051c81016020861015610aef5750805b601f850160051c820191505b81811015610b0e57828155600101610afb565b5050505b505050565b815167ffffffffffffffff811115610b3157610b316107c4565b610b4581610b3f8454610a8c565b84610ac6565b602080601f831160018114610b7a5760008415610b625750858301515b600019600386901b1c1916600185901b178555610b0e565b600085815260208120601f198616915b82811015610ba957888601518255948401946001909101908401610b8a565b5085821015610bc75787850151600019600388901b60f8161c191681555b5050505050600190811b01905550565b82815260406020820152600061093e604083018461096a565b602080825260139082015272155cd95c881b9bdd081c9959da5cdd195c9959606a1b604082015260600190565b602081526000610902602083018461096a56fea264697066735822122048a90c867870356c16bb16762513844cf9b6f0f1659943cb55f5f6129f07c84664736f6c6343000816003360806040523480156200001157600080fd5b5060405162002573380380620025738339810160408190526200003491620001b5565b8083836000620000458382620002d3565b506001620000548282620002d3565b5050506001600160a01b0381166200008657604051631e4fbdf760e01b81526000600482015260240160405180910390fd5b62000091816200009b565b505050506200039f565b600780546001600160a01b038381166001600160a01b0319831681179093556040519116919082907f8be0079c531659141344cd1fd0a4f28419497f9722a3daafe3b4186f6b6457e090600090a35050565b634e487b7160e01b600052604160045260246000fd5b600082601f8301126200011557600080fd5b81516001600160401b0380821115620001325762000132620000ed565b604051601f8301601f19908116603f011681019082821181831017156200015d576200015d620000ed565b81604052838152602092508660208588010111156200017b57600080fd5b600091505b838210156200019f578582018301518183018401529082019062000180565b6000602085830101528094505050505092915050565b600080600060608486031215620001cb57600080fd5b83516001600160401b0380821115620001e357600080fd5b620001f18783880162000103565b945060208601519150808211156200020857600080fd5b50620002178682870162000103565b604086015190935090506001600160a01b03811681146200023757600080fd5b809150509250925092565b600181811c908216806200025757607f821691505b6020821081036200027857634e487b7160e01b600052602260045260246000fd5b50919050565b601f821115620002ce576000816000526020600020601f850160051c81016020861015620002a95750805b601f850160051c820191505b81811015620002ca57828155600101620002b5565b5050505b505050565b81516001600160401b03811115620002ef57620002ef620000ed565b620003078162000300845462000242565b846200027e565b602080601f8311600181146200033f5760008415620003265750858301515b600019600386901b1c1916600185901b178555620002ca565b600085815260208120601f198616915b8281101562000370578886015182559484019460019091019084016200034f565b50858210156200038f5787850151600019600388901b60f8161c191681555b5050505050600190811b01905550565b6121c480620003af6000396000f3fe608060405234801561001057600080fd5b506004361061018e5760003560e01c806370a08231116100de578063b88d4fde11610097578063ed5eb95811610071578063ed5eb9581461035e578063f2fde38b14610371578063f637d95014610384578063fae08f79146103aa57600080fd5b8063b88d4fde14610325578063c87b56dd14610338578063e985e9c51461034b57600080fd5b806370a08231146102cb578063715018a6146102de5780638834beb7146102e65780638da5cb5b146102f957806395d89b411461030a578063a22cb4651461031257600080fd5b80633b01bbfd1161014b578063518e2bdd11610125578063518e2bdd1461028a57806359fd285c1461029d5780636352211e146102b05780636e07302b146102c357600080fd5b80633b01bbfd146102445780633c2fd9501461026457806342842e0e1461027757600080fd5b806301ffc9a71461019357806306fdde03146101bb578063081812fc146101d0578063095ea7b3146101fb5780630b5156c51461021057806323b872dd14610231575b600080fd5b6101a66101a1366004611917565b6103bd565b60405190151581526020015b60405180910390f35b6101c36103e8565b6040516101b29190611984565b6101e36101de366004611997565b61047a565b6040516001600160a01b0390911681526020016101b2565b61020e6102093660046119cc565b6104a3565b005b61022361021e366004611ac3565b6104b2565b6040519081526020016101b2565b61020e61023f366004611b70565b61079d565b610257610252366004611bac565b610828565b6040516101b29190611bce565b61020e610272366004611c12565b6109ad565b61020e610285366004611b70565b610ab9565b6101a6610298366004611997565b610ad9565b61020e6102ab366004611997565b610af8565b6101e36102be366004611997565b610b7a565b600854610223565b6102236102d9366004611c7f565b610b85565b61020e610bcd565b6102576102f4366004611c9a565b610be1565b6007546001600160a01b03166101e3565b6101c3610c51565b61020e610320366004611cdd565b610c60565b61020e610333366004611d14565b610c6b565b6101c3610346366004611997565b610c83565b6101a6610359366004611d84565b610d94565b61025761036c366004611c7f565b610dc2565b61020e61037f366004611c7f565b610e2c565b610397610392366004611997565b610e6a565b6040516101b29796959493929190611db7565b6102576103b8366004611c9a565b6110b5565b60006001600160e01b03198216632483248360e11b14806103e257506103e2826110c7565b92915050565b6060600080546103f790611e22565b80601f016020809104026020016040519081016040528092919081815260200182805461042390611e22565b80156104705780601f1061044557610100808354040283529160200191610470565b820191906000526020600020905b81548152906001019060200180831161045357829003601f168201915b5050505050905090565b600061048582611117565b506000828152600460205260409020546001600160a01b03166103e2565b6104ae828233611150565b5050565b600954604051636386c1c760e01b8152336004820152600091829182916001600160a01b031690636386c1c790602401600060405180830381865afa1580156104ff573d6000803e3d6000fd5b505050506040513d6000823e601f3d908101601f191682016040526105279190810190611ea1565b94505050509150816000036105795760405162461bcd60e51b8152602060048201526013602482015272155cd95c881b9bdd081c9959da5cdd195c9959606a1b60448201526064015b60405180910390fd5b806105d55760405162461bcd60e51b815260206004820152602660248201527f55736572206d75737420626520766572696669656420746f206372656174652060448201526561737365747360d01b6064820152608401610570565b600880549060006105e583611f43565b90915550506008546105f7338261115d565b61060181876111c2565b6040805160e08101825282815260208082018b81528284018b9052336060840152426080840152600060a0840181905260c084018a9052858152600a909252929020815181559151909190600182019061065b9082611fa4565b50604082015160028201906106709082611fa4565b5060608201516003820180546001600160a01b0319166001600160a01b039092169190911790556080820151600482015560a082015160058201805460ff191691151591909117905560c082015160068201906106cd9082611fa4565b50905050600b876040516106e19190612064565b90815260405190819003602090810182208054600181018255600091825291902001829055600c90610714908a90612064565b908152604080519182900360209081018320805460018181018355600092835283832090910186905533808352600d8452938220805491820181558252919020018390559082907f15b4de41eb7ccf157c9237c13a9707eecd8592c0aeef51f60141fe61c5e4e5679061078a908c908c90612080565b60405180910390a3979650505050505050565b6001600160a01b0382166107c757604051633250574960e11b815260006004820152602401610570565b60006107d4838333611212565b9050836001600160a01b0316816001600160a01b031614610822576040516364283d7b60e01b81526001600160a01b0380861660048301526024820184905282166044820152606401610570565b50505050565b60085460609080841061087d5760405162461bcd60e51b815260206004820152601960248201527f537461727420696e646578206f7574206f6620626f756e6473000000000000006044820152606401610570565b600061088984866120ae565b9050818111156108965750805b6000806108a48760016120ae565b90505b8281116108e8576000818152600a602052604090206005015460ff16156108d657816108d281611f43565b9250505b806108e081611f43565b9150506108a7565b5060008167ffffffffffffffff811115610904576109046119f6565b60405190808252806020026020018201604052801561092d578160200160208202803683370190505b50905060008061093e8960016120ae565b90505b8481116109a0576000818152600a602052604090206005015460ff161561098e5780838381518110610975576109756120c1565b60209081029190910101528161098a81611f43565b9250505b8061099881611f43565b915050610941565b5090979650505050505050565b6000838152600260205260409020546001600160a01b03166109e15760405162461bcd60e51b8152600401610570906120d7565b336109eb84610b7a565b6001600160a01b03161480610a19575033610a0e6007546001600160a01b031690565b6001600160a01b0316145b610a565760405162461bcd60e51b815260206004820152600e60248201526d139bdd08185d5d1a1bdc9a5e995960921b6044820152606401610570565b610a6083836111c2565b6000838152600a60205260409020600601610a7b8282611fa4565b50827fb24c12af46d9d1b315bd362fc4e303af4f63e4dcea5761c8ddd6da7abb9d905982604051610aac9190611984565b60405180910390a2505050565b610ad483838360405180602001604052806000815250610c6b565b505050565b6000818152600260205260408120546001600160a01b031615156103e2565b610b0061130b565b6000818152600260205260409020546001600160a01b0316610b345760405162461bcd60e51b8152600401610570906120d7565b6000818152600a6020526040808220600501805460ff191660011790555182917f7115fa7500082019331bb00caaa9cc745ac6d0414c2af51872c3b69493c9942c91a250565b60006103e282611117565b60006001600160a01b038216610bb1576040516322718ad960e21b815260006004820152602401610570565b506001600160a01b031660009081526003602052604090205490565b610bd561130b565b610bdf6000611338565b565b6060600b82604051610bf39190612064565b9081526040805191829003602090810183208054808302850183019093528284529190830182828015610c4557602002820191906000526020600020905b815481526020019060010190808311610c31575b50505050509050919050565b6060600180546103f790611e22565b6104ae33838361138a565b610c7684848461079d565b6108223385858585611429565b6060610c8e82611117565b5060008281526006602052604081208054610ca890611e22565b80601f0160208091040260200160405190810160405280929190818152602001828054610cd490611e22565b8015610d215780601f10610cf657610100808354040283529160200191610d21565b820191906000526020600020905b815481529060010190602001808311610d0457829003601f168201915b505050505090506000610d3f60408051602081019091526000815290565b90508051600003610d51575092915050565b815115610d83578082604051602001610d6b929190612105565b60405160208183030381529060405292505050919050565b610d8c84611554565b949350505050565b6001600160a01b03918216600090815260056020908152604080832093909416825291909152205460ff1690565b6001600160a01b0381166000908152600d6020908152604091829020805483518184028101840190945280845260609392830182828015610c455760200282019190600052602060002090815481526020019060010190808311610c315750505050509050919050565b610e3461130b565b6001600160a01b038116610e5e57604051631e4fbdf760e01b815260006004820152602401610570565b610e6781611338565b50565b600060608060008060006060610e97886000908152600260205260409020546001600160a01b0316151590565b610eb35760405162461bcd60e51b8152600401610570906120d7565b6000888152600a602052604090208054600382015460048301546005840154600185018054909360028701936001600160a01b0390911692909160ff9091169060068801908690610f0390611e22565b80601f0160208091040260200160405190810160405280929190818152602001828054610f2f90611e22565b8015610f7c5780601f10610f5157610100808354040283529160200191610f7c565b820191906000526020600020905b815481529060010190602001808311610f5f57829003601f168201915b50505050509550848054610f8f90611e22565b80601f0160208091040260200160405190810160405280929190818152602001828054610fbb90611e22565b80156110085780601f10610fdd57610100808354040283529160200191611008565b820191906000526020600020905b815481529060010190602001808311610feb57829003601f168201915b5050505050945080805461101b90611e22565b80601f016020809104026020016040519081016040528092919081815260200182805461104790611e22565b80156110945780601f1061106957610100808354040283529160200191611094565b820191906000526020600020905b81548152906001019060200180831161107757829003601f168201915b50505050509050975097509750975097509750975050919395979092949650565b6060600c82604051610bf39190612064565b60006001600160e01b031982166380ac58cd60e01b14806110f857506001600160e01b03198216635b5e139f60e01b145b806103e257506301ffc9a760e01b6001600160e01b03198316146103e2565b6000818152600260205260408120546001600160a01b0316806103e257604051637e27328960e01b815260048101849052602401610570565b610ad483838360016115c9565b6001600160a01b03821661118757604051633250574960e11b815260006004820152602401610570565b600061119583836000611212565b90506001600160a01b03811615610ad4576040516339e3563760e11b815260006004820152602401610570565b60008281526006602052604090206111da8282611fa4565b506040518281527ff8e1a15aba9398e019f0b49df1a4fde98ee17ae345cb5f6b5e2c27f5033e8ce79060200160405180910390a15050565b6000828152600260205260408120546001600160a01b039081169083161561123f5761123f8184866116cf565b6001600160a01b0381161561127d5761125c6000856000806115c9565b6001600160a01b038116600090815260036020526040902080546000190190555b6001600160a01b038516156112ac576001600160a01b0385166000908152600360205260409020805460010190555b60008481526002602052604080822080546001600160a01b0319166001600160a01b0389811691821790925591518793918516917fddf252ad1be2c89b69c2b068fc378daa952ba7f163c4a11628f55a4df523b3ef91a4949350505050565b6007546001600160a01b03163314610bdf5760405163118cdaa760e01b8152336004820152602401610570565b600780546001600160a01b038381166001600160a01b0319831681179093556040519116919082907f8be0079c531659141344cd1fd0a4f28419497f9722a3daafe3b4186f6b6457e090600090a35050565b6001600160a01b0382166113bc57604051630b61174360e31b81526001600160a01b0383166004820152602401610570565b6001600160a01b03838116600081815260056020908152604080832094871680845294825291829020805460ff191686151590811790915591519182527f17307eab39ab6107e8899845ad3d59bd9653f200f220920489ca2b5937696c31910160405180910390a3505050565b6001600160a01b0383163b1561154d57604051630a85bd0160e11b81526001600160a01b0384169063150b7a029061146b908890889087908790600401612134565b6020604051808303816000875af19250505080156114a6575060408051601f3d908101601f191682019092526114a391810190612171565b60015b61150f573d8080156114d4576040519150601f19603f3d011682016040523d82523d6000602084013e6114d9565b606091505b50805160000361150757604051633250574960e11b81526001600160a01b0385166004820152602401610570565b805181602001fd5b6001600160e01b03198116630a85bd0160e11b1461154b57604051633250574960e11b81526001600160a01b0385166004820152602401610570565b505b5050505050565b606061155f82611117565b50600061157760408051602081019091526000815290565b9050600081511161159757604051806020016040528060008152506115c2565b806115a184611733565b6040516020016115b2929190612105565b6040516020818303038152906040525b9392505050565b80806115dd57506001600160a01b03821615155b1561169f5760006115ed84611117565b90506001600160a01b038316158015906116195750826001600160a01b0316816001600160a01b031614155b801561162c575061162a8184610d94565b155b156116555760405163a9fbf51f60e01b81526001600160a01b0384166004820152602401610570565b811561169d5783856001600160a01b0316826001600160a01b03167f8c5be1e5ebec7d5bd14f71427d1e84f3dd0314c0f7b2291e5b200ac8c7c3b92560405160405180910390a45b505b5050600090815260046020526040902080546001600160a01b0319166001600160a01b0392909216919091179055565b6116da8383836117c6565b610ad4576001600160a01b03831661170857604051637e27328960e01b815260048101829052602401610570565b60405163177e802f60e01b81526001600160a01b038316600482015260248101829052604401610570565b6060600061174083611829565b600101905060008167ffffffffffffffff811115611760576117606119f6565b6040519080825280601f01601f19166020018201604052801561178a576020820181803683370190505b5090508181016020015b600019016f181899199a1a9b1b9c1cb0b131b232b360811b600a86061a8153600a850494508461179457509392505050565b60006001600160a01b03831615801590610d8c5750826001600160a01b0316846001600160a01b0316148061180057506118008484610d94565b80610d8c5750506000908152600460205260409020546001600160a01b03908116911614919050565b60008072184f03e93ff9f4daa797ed6e38ed64bf6a1f0160401b83106118685772184f03e93ff9f4daa797ed6e38ed64bf6a1f0160401b830492506040015b6d04ee2d6d415b85acef81000000008310611894576d04ee2d6d415b85acef8100000000830492506020015b662386f26fc1000083106118b257662386f26fc10000830492506010015b6305f5e10083106118ca576305f5e100830492506008015b61271083106118de57612710830492506004015b606483106118f0576064830492506002015b600a83106103e25760010192915050565b6001600160e01b031981168114610e6757600080fd5b60006020828403121561192957600080fd5b81356115c281611901565b60005b8381101561194f578181015183820152602001611937565b50506000910152565b60008151808452611970816020860160208601611934565b601f01601f19169290920160200192915050565b6020815260006115c26020830184611958565b6000602082840312156119a957600080fd5b5035919050565b80356001600160a01b03811681146119c757600080fd5b919050565b600080604083850312156119df57600080fd5b6119e8836119b0565b946020939093013593505050565b634e487b7160e01b600052604160045260246000fd5b604051601f8201601f1916810167ffffffffffffffff81118282101715611a3557611a356119f6565b604052919050565b600067ffffffffffffffff821115611a5757611a576119f6565b50601f01601f191660200190565b6000611a78611a7384611a3d565b611a0c565b9050828152838383011115611a8c57600080fd5b828260208301376000602084830101529392505050565b600082601f830112611ab457600080fd5b6115c283833560208501611a65565b60008060008060808587031215611ad957600080fd5b843567ffffffffffffffff80821115611af157600080fd5b611afd88838901611aa3565b95506020870135915080821115611b1357600080fd5b611b1f88838901611aa3565b94506040870135915080821115611b3557600080fd5b611b4188838901611aa3565b93506060870135915080821115611b5757600080fd5b50611b6487828801611aa3565b91505092959194509250565b600080600060608486031215611b8557600080fd5b611b8e846119b0565b9250611b9c602085016119b0565b9150604084013590509250925092565b60008060408385031215611bbf57600080fd5b50508035926020909101359150565b6020808252825182820181905260009190848201906040850190845b81811015611c0657835183529284019291840191600101611bea565b50909695505050505050565b600080600060608486031215611c2757600080fd5b83359250602084013567ffffffffffffffff80821115611c4657600080fd5b611c5287838801611aa3565b93506040860135915080821115611c6857600080fd5b50611c7586828701611aa3565b9150509250925092565b600060208284031215611c9157600080fd5b6115c2826119b0565b600060208284031215611cac57600080fd5b813567ffffffffffffffff811115611cc357600080fd5b610d8c84828501611aa3565b8015158114610e6757600080fd5b60008060408385031215611cf057600080fd5b611cf9836119b0565b91506020830135611d0981611ccf565b809150509250929050565b60008060008060808587031215611d2a57600080fd5b611d33856119b0565b9350611d41602086016119b0565b925060408501359150606085013567ffffffffffffffff811115611d6457600080fd5b8501601f81018713611d7557600080fd5b611b6487823560208401611a65565b60008060408385031215611d9757600080fd5b611da0836119b0565b9150611dae602084016119b0565b90509250929050565b87815260e060208201526000611dd060e0830189611958565b8281036040840152611de28189611958565b6001600160a01b03881660608501526080840187905285151560a085015283810360c08501529050611e148185611958565b9a9950505050505050505050565b600181811c90821680611e3657607f821691505b602082108103611e5657634e487b7160e01b600052602260045260246000fd5b50919050565b600082601f830112611e6d57600080fd5b8151611e7b611a7382611a3d565b818152846020838601011115611e9057600080fd5b610d8c826020830160208701611934565b600080600080600060a08688031215611eb957600080fd5b85519450602086015167ffffffffffffffff80821115611ed857600080fd5b611ee489838a01611e5c565b95506040880151915080821115611efa57600080fd5b50611f0788828901611e5c565b935050606086015191506080860151611f1f81611ccf565b809150509295509295909350565b634e487b7160e01b600052601160045260246000fd5b600060018201611f5557611f55611f2d565b5060010190565b601f821115610ad4576000816000526020600020601f850160051c81016020861015611f855750805b601f850160051c820191505b8181101561154b57828155600101611f91565b815167ffffffffffffffff811115611fbe57611fbe6119f6565b611fd281611fcc8454611e22565b84611f5c565b602080601f8311600181146120075760008415611fef5750858301515b600019600386901b1c1916600185901b17855561154b565b600085815260208120601f198616915b8281101561203657888601518255948401946001909101908401612017565b50858210156120545787850151600019600388901b60f8161c191681555b5050505050600190811b01905550565b60008251612076818460208701611934565b9190910192915050565b6040815260006120936040830185611958565b82810360208401526120a58185611958565b95945050505050565b808201808211156103e2576103e2611f2d565b634e487b7160e01b600052603260045260246000fd5b602080825260149082015273105cdcd95d08191bd95cc81b9bdd08195e1a5cdd60621b604082015260600190565b60008351612117818460208801611934565b83519083019061212b818360208801611934565b01949350505050565b6001600160a01b038581168252841660208201526040810183905260806060820181905260009061216790830184611958565b9695505050505050565b60006020828403121561218357600080fd5b81516115c28161190156fea26469706673582212208b9371e72cf17726430008c3e470edc595b86b416025c1ffef81036c48c4ba2564736f6c6343000816003360806040523480156200001157600080fd5b506040516200273538038062002735833981016040819052620000349162000110565b826001600160a01b0381166200006457604051631e4fbdf760e01b81526000600482015260240160405180910390fd5b6200006f81620000a3565b50600280546001600160a01b039384166001600160a01b03199182161790915560038054929093169116179055506200015a565b600080546001600160a01b038381166001600160a01b0319831681178455604051919092169283917f8be0079c531659141344cd1fd0a4f28419497f9722a3daafe3b4186f6b6457e09190a35050565b80516001600160a01b03811681146200010b57600080fd5b919050565b6000806000606084860312156200012657600080fd5b6200013184620000f3565b92506200014160208501620000f3565b91506200015160408501620000f3565b90509250925092565b6125cb806200016a6000396000f3fe608060405234801561001057600080fd5b506004361061010b5760003560e01c8063715018a6116100a2578063ace1693911610071578063ace1693914610247578063ca848e551461025a578063d6ab7b9014610262578063f2fde38b1461026a578063fea798961461027d57600080fd5b8063715018a6146101fe5780638bfb57e6146102065780638da5cb5b146102195780639fa317c31461023457600080fd5b806349837e74116100de57806349837e74146101815780634fb7ad83146101a1578063605c1d06146101ca578063712ddcbd146101dd57600080fd5b8063055654fb146101105780631a325821146101255780631b7994451461014e5780633defbc341461016e575b600080fd5b61012361011e366004611c1b565b610290565b005b610138610133366004611d10565b6103bf565b6040516101459190611d4d565b60405180910390f35b61016161015c366004611d91565b61042f565b6040516101459190611daa565b61012361017c366004611deb565b6104ca565b61019461018f366004611d91565b6108b1565b6040516101459190611e5d565b6101b46101af366004611d91565b6109c3565b6040516101459a99989796959493929190611ec1565b6101386101d8366004611d10565b610c26565b6101f06101eb366004611fe3565b610c38565b604051908152602001610145565b610123610fc3565b6101386102143660046120b7565b610fd7565b6000546040516001600160a01b039091168152602001610145565b6101236102423660046120db565b611041565b610123610255366004611d91565b6115f6565b6001546101f0565b6101386118cb565b6101236102783660046120b7565b611a05565b61013861028b366004611d91565b611a43565b60008281526004602052604081205490036102c65760405162461bcd60e51b81526004016102bd906121a5565b60405180910390fd5b6000828152600460205260409020600301546001600160a01b03163314806103075750336102fc6000546001600160a01b031690565b6001600160a01b0316145b6103655760405162461bcd60e51b815260206004820152602960248201527f4f6e6c79206f7267616e697a6572206f72206f776e65722063616e206368616e60448201526867652073746174757360b81b60648201526084016102bd565b600082815260046020908152604091829020600801805460ff1916841515908117909155915191825283917f049e2a40e1455acdf4c54892d836a34e8afd3efb269150ebbb6e354ae630bc81910160405180910390a25050565b60606005826040516103d191906121dc565b908152604080519182900360209081018320805480830285018301909352828452919083018282801561042357602002820191906000526020600020905b81548152602001906001019080831161040f575b50505050509050919050565b6000818152600460205260408120546060910361045e5760405162461bcd60e51b81526004016102bd906121a5565b6000828152600460209081526040918290206005018054835181840281018401909452808452909183018282801561042357602002820191906000526020600020905b81546001600160a01b031681526001909101906020018083116104a15750505050509050919050565b60008281526004602052604081205490036104f75760405162461bcd60e51b81526004016102bd906121a5565b60008281526004602052604090206008015460ff166105515760405162461bcd60e51b815260206004820152601660248201527545786368616e6765206973206e6f742061637469766560501b60448201526064016102bd565b60035460405163518e2bdd60e01b8152600481018390526001600160a01b039091169063518e2bdd90602401602060405180830381865afa15801561059a573d6000803e3d6000fd5b505050506040513d601f19601f820116820180604052508101906105be91906121f8565b6106015760405162461bcd60e51b8152602060048201526014602482015273105cdcd95d08191bd95cc81b9bdd08195e1a5cdd60621b60448201526064016102bd565b6003546040516331a9108f60e11b81526004810183905233916001600160a01b031690636352211e90602401602060405180830381865afa15801561064a573d6000803e3d6000fd5b505050506040513d601f19601f8201168201806040525081019061066e9190612215565b6001600160a01b0316146106d75760405162461bcd60e51b815260206004820152602a60248201527f4f6e6c79206173736574206f776e65722063616e2061646420617373657420746044820152696f2065786368616e676560b01b60648201526084016102bd565b6000805b60008481526004602052604090206005015481101561074557600084815260046020526040902060050180543391908390811061071a5761071a612232565b6000918252602090912001546001600160a01b03160361073d5760019150610745565b6001016106db565b50806107a65760405162461bcd60e51b815260206004820152602a60248201527f55736572206d7573742062652061207061727469636970616e74206f66207468604482015269652065786368616e676560b01b60648201526084016102bd565b6000805b6000858152600460208190526040909120015481101561080d57836004600087815260200190815260200160002060040182815481106107ec576107ec612232565b906000526020600020015403610805576001915061080d565b6001016107aa565b50801561085c5760405162461bcd60e51b815260206004820152601f60248201527f417373657420616c726561647920616464656420746f2065786368616e67650060448201526064016102bd565b600084815260046020818152604080842090920180546001810182559084529083200185905551849186917fcaf49a5d606dd6fc17ff9889bc0bb8c9f81e7cd7e18423910baa275cb07717469190a350505050565b600081815260046020526040812054606091036108e05760405162461bcd60e51b81526004016102bd906121a5565b6000828152600460209081526040808320600a0180548251818502810185019093528083529193909284015b828210156109b857838290600052602060002001805461092b90612248565b80601f016020809104026020016040519081016040528092919081815260200182805461095790612248565b80156109a45780601f10610979576101008083540402835291602001916109a4565b820191906000526020600020905b81548152906001019060200180831161098757829003601f168201915b50505050508152602001906001019061090c565b505050509050919050565b60006060806000806000806000806060600460008c815260200190815260200160002060000154600003610a095760405162461bcd60e51b81526004016102bd906121a5565b60008b81526004602081905260409091208054600382015460068301546007840154600885015460058601549686015460018701805497989697909660028a01966001600160a01b031695949360ff1692909160098b01908990610a6c90612248565b80601f0160208091040260200160405190810160405280929190818152602001828054610a9890612248565b8015610ae55780601f10610aba57610100808354040283529160200191610ae5565b820191906000526020600020905b815481529060010190602001808311610ac857829003601f168201915b50505050509850878054610af890612248565b80601f0160208091040260200160405190810160405280929190818152602001828054610b2490612248565b8015610b715780601f10610b4657610100808354040283529160200191610b71565b820191906000526020600020905b815481529060010190602001808311610b5457829003601f168201915b50505050509750808054610b8490612248565b80601f0160208091040260200160405190810160405280929190818152602001828054610bb090612248565b8015610bfd5780601f10610bd257610100808354040283529160200191610bfd565b820191906000526020600020905b815481529060010190602001808311610be057829003601f168201915b505050505090509a509a509a509a509a509a509a509a509a509a50509193959799509193959799565b60606006826040516103d191906121dc565b600254604051636386c1c760e01b8152336004820152600091829182916001600160a01b031690636386c1c790602401600060405180830381865afa158015610c85573d6000803e3d6000fd5b505050506040513d6000823e601f3d908101601f19168201604052610cad91908101906122c7565b9450505050915081600003610cfa5760405162461bcd60e51b8152602060048201526013602482015272155cd95c881b9bdd081c9959da5cdd195c9959606a1b60448201526064016102bd565b80610d595760405162461bcd60e51b815260206004820152602960248201527f55736572206d75737420626520766572696669656420746f206372656174652060448201526865786368616e67657360b81b60648201526084016102bd565b42871015610da95760405162461bcd60e51b815260206004820181905260248201527f53746172742074696d65206d75737420626520696e207468652066757475726560448201526064016102bd565b868611610dc85760405162461bcd60e51b81526004016102bd90612353565b60018054906000610dd8836123aa565b9091555050600180546000818152600460205260409020818155909101610dff8b82612414565b506000818152600460205260409020600201610e1b8a82612414565b5060008181526004602052604090206003810180546001600160a01b03191633179055600681018990556007810188905560088101805460ff19166001179055600901610e688782612414565b5060008181526004602090815260409091208651610e8e92600a90920191880190611b50565b506000818152600460209081526040808320600590810180546001810182559085529290932090910180546001600160a01b0319163317905551610ed39088906121dc565b90815260405160209181900382019020805460018101825560009182529181209091018290555b8551811015610f58576006868281518110610f1757610f17612232565b6020026020010151604051610f2c91906121dc565b908152604051602091819003820190208054600180820183556000928352929091200183905501610efa565b50336000818152600760209081526040808320805460018101825590845291909220018390555182907f66cf02f4acd455664322c4e4385ad21c42e4e702e33706574b3f755c6ae09e1790610fae908e906124d4565b60405180910390a39998505050505050505050565b610fcb611ad3565b610fd56000611b00565b565b6001600160a01b038116600090815260076020908152604091829020805483518184028101840190945280845260609392830182828015610423576020028201919060005260206000209081548152602001906001019080831161040f5750505050509050919050565b600087815260046020526040812054900361106e5760405162461bcd60e51b81526004016102bd906121a5565b6000878152600460205260409020600301546001600160a01b03163314806110af5750336110a46000546001600160a01b031690565b6001600160a01b0316145b61110f5760405162461bcd60e51b815260206004820152602b60248201527f4f6e6c79206f7267616e697a6572206f72206f776e65722063616e207570646160448201526a74652065786368616e676560a81b60648201526084016102bd565b831561117a57428410156111655760405162461bcd60e51b815260206004820181905260248201527f53746172742074696d65206d75737420626520696e207468652066757475726560448201526064016102bd565b60008781526004602052604090206006018490555b82156111c55760008781526004602052604090206006015483116111b05760405162461bcd60e51b81526004016102bd90612353565b60008781526004602052604090206007018390555b8551156111e95760008781526004602052604090206001016111e78782612414565b505b84511561120d57600087815260046020526040902060020161120b8682612414565b505b6000825111801561124b5750600087815260046020526040908190209051611238916009019061255a565b6040518091039020828051906020012014155b156113835760008781526004602052604080822090516005916112739160099091019061255a565b9081526020016040518091039020905060005b815481101561133057888282815481106112a2576112a2612232565b90600052602060002001540361132857815482906112c290600190612566565b815481106112d2576112d2612232565b90600052602060002001548282815481106112ef576112ef612232565b90600052602060002001819055508180548061130d5761130d61257f565b60019003818190600052602060002001600090559055611330565b600101611286565b50600088815260046020526040902060090161134c8482612414565b5060058360405161135d91906121dc565b908152604051602091819003820190208054600181018255600091825291902001889055505b8051156115c25760005b6000888152600460205260409020600a0154811015611538576000888152600460205260408120600a018054839081106113c9576113c9612232565b9060005260206000200180546113de90612248565b80601f016020809104026020016040519081016040528092919081815260200182805461140a90612248565b80156114575780601f1061142c57610100808354040283529160200191611457565b820191906000526020600020905b81548152906001019060200180831161143a57829003601f168201915b50505050509050600060068260405161147091906121dc565b9081526020016040518091039020905060005b815481101561152d578a82828154811061149f5761149f612232565b90600052602060002001540361152557815482906114bf90600190612566565b815481106114cf576114cf612232565b90600052602060002001548282815481106114ec576114ec612232565b90600052602060002001819055508180548061150a5761150a61257f565b6001900381819060005260206000200160009055905561152d565b600101611483565b50505060010161138d565b506000878152600460209081526040909120825161155e92600a90920191840190611b50565b5060005b81518110156115c057600682828151811061157f5761157f612232565b602002602001015160405161159491906121dc565b908152604051602091819003820190208054600180820183556000928352929091200189905501611562565b505b60405187907f7a8a02536dcba3c48bebca1a032bcbf5739372d7306564df4c7e91201d10a20f90600090a250505050505050565b60008181526004602052604081205490036116235760405162461bcd60e51b81526004016102bd906121a5565b60008181526004602052604090206008015460ff1661167d5760405162461bcd60e51b815260206004820152601660248201527545786368616e6765206973206e6f742061637469766560501b60448201526064016102bd565b60008181526004602052604090206007015442106116d25760405162461bcd60e51b8152602060048201526012602482015271115e18da185b99d9481a185cc8195b99195960721b60448201526064016102bd565b600254604051636386c1c760e01b81523360048201526000916001600160a01b031690636386c1c790602401600060405180830381865afa15801561171b573d6000803e3d6000fd5b505050506040513d6000823e601f3d908101601f1916820160405261174391908101906122c7565b5050505090508060000361178f5760405162461bcd60e51b8152602060048201526013602482015272155cd95c881b9bdd081c9959da5cdd195c9959606a1b60448201526064016102bd565b6000805b6000848152600460205260409020600501548110156117fd5760008481526004602052604090206005018054339190839081106117d2576117d2612232565b6000918252602090912001546001600160a01b0316036117f557600191506117fd565b600101611793565b50801561184c5760405162461bcd60e51b815260206004820152601d60248201527f5573657220697320616c72656164792061207061727469636970616e7400000060448201526064016102bd565b60008381526004602090815260408083206005018054600181810183559185528385200180546001600160a01b03191633908117909155808552600784528285208054928301815585529284200186905551909185917f7dd8cb04159701bc1976c246434d7d96812782e7489e6c5c34db49a388fe9e809190a3505050565b600180546060916000905b8281116119335760008181526004602052604090206008015460ff16801561190e575060008181526004602052604090206007015442105b15611921578161191d816123aa565b9250505b8061192b816123aa565b9150506118d6565b5060008167ffffffffffffffff81111561194f5761194f611c4b565b604051908082528060200260200182016040528015611978578160200160208202803683370190505b509050600060015b8481116119fb5760008181526004602052604090206008015460ff1680156119b8575060008181526004602052604090206007015442105b156119e957808383815181106119d0576119d0612232565b6020908102919091010152816119e5816123aa565b9250505b806119f3816123aa565b915050611980565b5090949350505050565b611a0d611ad3565b6001600160a01b038116611a3757604051631e4fbdf760e01b8152600060048201526024016102bd565b611a4081611b00565b50565b60008181526004602052604081205460609103611a725760405162461bcd60e51b81526004016102bd906121a5565b60008281526004602081815260409283902090910180548351818402810184019094528084529091830182828015610423576020028201919060005260206000209081548152602001906001019080831161040f5750505050509050919050565b6000546001600160a01b03163314610fd55760405163118cdaa760e01b81523360048201526024016102bd565b600080546001600160a01b038381166001600160a01b0319831681178455604051919092169283917f8be0079c531659141344cd1fd0a4f28419497f9722a3daafe3b4186f6b6457e09190a35050565b828054828255906000526020600020908101928215611b96579160200282015b82811115611b965782518290611b869082612414565b5091602001919060010190611b70565b50611ba2929150611ba6565b5090565b80821115611ba2576000611bba8282611bc3565b50600101611ba6565b508054611bcf90612248565b6000825580601f10611bdf575050565b601f016020900490600052602060002090810190611a4091905b80821115611ba25760008155600101611bf9565b8015158114611a4057600080fd5b60008060408385031215611c2e57600080fd5b823591506020830135611c4081611c0d565b809150509250929050565b634e487b7160e01b600052604160045260246000fd5b604051601f8201601f1916810167ffffffffffffffff81118282101715611c8a57611c8a611c4b565b604052919050565b600067ffffffffffffffff821115611cac57611cac611c4b565b50601f01601f191660200190565b600082601f830112611ccb57600080fd5b8135611cde611cd982611c92565b611c61565b818152846020838601011115611cf357600080fd5b816020850160208301376000918101602001919091529392505050565b600060208284031215611d2257600080fd5b813567ffffffffffffffff811115611d3957600080fd5b611d4584828501611cba565b949350505050565b6020808252825182820181905260009190848201906040850190845b81811015611d8557835183529284019291840191600101611d69565b50909695505050505050565b600060208284031215611da357600080fd5b5035919050565b6020808252825182820181905260009190848201906040850190845b81811015611d855783516001600160a01b031683529284019291840191600101611dc6565b60008060408385031215611dfe57600080fd5b50508035926020909101359150565b60005b83811015611e28578181015183820152602001611e10565b50506000910152565b60008151808452611e49816020860160208601611e0d565b601f01601f19169290920160200192915050565b600060208083016020845280855180835260408601915060408160051b87010192506020870160005b82811015611eb457603f19888603018452611ea2858351611e31565b94509285019290850190600101611e86565b5092979650505050505050565b60006101408c8352806020840152611edb8184018d611e31565b90508281036040840152611eef818c611e31565b905060018060a01b038a1660608401528860808401528760a084015286151560c08401528560e084015284610100840152828103610120840152611f338185611e31565b9d9c50505050505050505050505050565b600082601f830112611f5557600080fd5b8135602067ffffffffffffffff80831115611f7257611f72611c4b565b8260051b611f81838201611c61565b9384528581018301938381019088861115611f9b57600080fd5b84880192505b85831015611fd757823584811115611fb95760008081fd5b611fc78a87838c0101611cba565b8352509184019190840190611fa1565b98975050505050505050565b60008060008060008060c08789031215611ffc57600080fd5b863567ffffffffffffffff8082111561201457600080fd5b6120208a838b01611cba565b9750602089013591508082111561203657600080fd5b6120428a838b01611cba565b96506040890135955060608901359450608089013591508082111561206657600080fd5b6120728a838b01611cba565b935060a089013591508082111561208857600080fd5b5061209589828a01611f44565b9150509295509295509295565b6001600160a01b0381168114611a4057600080fd5b6000602082840312156120c957600080fd5b81356120d4816120a2565b9392505050565b600080600080600080600060e0888a0312156120f657600080fd5b87359650602088013567ffffffffffffffff8082111561211557600080fd5b6121218b838c01611cba565b975060408a013591508082111561213757600080fd5b6121438b838c01611cba565b965060608a0135955060808a0135945060a08a013591508082111561216757600080fd5b6121738b838c01611cba565b935060c08a013591508082111561218957600080fd5b506121968a828b01611f44565b91505092959891949750929550565b60208082526017908201527f45786368616e676520646f6573206e6f74206578697374000000000000000000604082015260600190565b600082516121ee818460208701611e0d565b9190910192915050565b60006020828403121561220a57600080fd5b81516120d481611c0d565b60006020828403121561222757600080fd5b81516120d4816120a2565b634e487b7160e01b600052603260045260246000fd5b600181811c9082168061225c57607f821691505b60208210810361227c57634e487b7160e01b600052602260045260246000fd5b50919050565b600082601f83011261229357600080fd5b81516122a1611cd982611c92565b8181528460208386010111156122b657600080fd5b611d45826020830160208701611e0d565b600080600080600060a086880312156122df57600080fd5b85519450602086015167ffffffffffffffff808211156122fe57600080fd5b61230a89838a01612282565b9550604088015191508082111561232057600080fd5b5061232d88828901612282565b93505060608601519150608086015161234581611c0d565b809150509295509295909350565b60208082526021908201527f456e642074696d65206d7573742062652061667465722073746172742074696d6040820152606560f81b606082015260800190565b634e487b7160e01b600052601160045260246000fd5b6000600182016123bc576123bc612394565b5060010190565b601f82111561240f576000816000526020600020601f850160051c810160208610156123ec5750805b601f850160051c820191505b8181101561240b578281556001016123f8565b5050505b505050565b815167ffffffffffffffff81111561242e5761242e611c4b565b6124428161243c8454612248565b846123c3565b602080601f831160018114612477576000841561245f5750858301515b600019600386901b1c1916600185901b17855561240b565b600085815260208120601f198616915b828110156124a657888601518255948401946001909101908401612487565b50858210156124c45787850151600019600388901b60f8161c191681555b5050505050600190811b01905550565b6020815260006120d46020830184611e31565b600081546124f481612248565b6001828116801561250c576001811461252157612550565b60ff1984168752821515830287019450612550565b8560005260208060002060005b858110156125475781548a82015290840190820161252e565b50505082870194505b5050505092915050565b60006120d482846124e7565b8181038181111561257957612579612394565b92915050565b634e487b7160e01b600052603160045260246000fdfea26469706673582212200ca4c932d89a54ef4ee0cd5bdd6afe049156eab12f60de9c934e26905cd4db7364736f6c63430008160033",
  "linkReferences": {},
  "deployedLinkReferences": {}
}