{
  "_format": "hh-sol-artifact-1",
  "contractName": "CultureBridgeAsset",
  "sourceName": "blockchain/contracts/CultureBridgeAsset.sol",
  "abi": [
    {
      "inputs": [
        {
          "internalType": "string",
          "name": "name",
          "type": "string"
        },
        {
          "internalType": "string",
          "name": "symbol",
          "type": "string"
        },
        {
          "internalType": "address",
          "name": "initialOwner",
          "type": "address"
        }
      ],
      "stateMutability": "nonpayable",
      "type": "constructor"
    },
    {
      "inputs": [
        {
          "internalType": "address",
          "name": "sender",
          "type": "address"
        },
        {
          "internalType": "uint256",
          "name": "tokenId",
          "type": "uint256"
        },
        {
          "internalType": "address",
          "name": "owner",
          "type": "address"
        }
      ],
      "name": "ERC721IncorrectOwner",
      "type": "error"
    },
    {
      "inputs": [
        {
          "internalType": "address",
          "name": "operator",
          "type": "address"
        },
        {
          "internalType": "uint256",
          "name": "tokenId",
          "type": "uint256"
        }
      ],
      "name": "ERC721InsufficientApproval",
      "type": "error"
    },
    {
      "inputs": [
        {
          "internalType": "address",
          "name": "approver",
          "type": "address"
        }
      ],
      "name": "ERC721InvalidApprover",
      "type": "error"
    },
    {
      "inputs": [
        {
          "internalType": "address",
          "name": "operator",
          "type": "address"
        }
      ],
      "name": "ERC721InvalidOperator",
      "type": "error"
    },
    {
      "inputs": [
        {
          "internalType": "address",
          "name": "owner",
          "type": "address"
        }
      ],
      "name": "ERC721InvalidOwner",
      "type": "error"
    },
    {
      "inputs": [
        {
          "internalType": "address",
          "name": "receiver",
          "type": "address"
        }
      ],
      "name": "ERC721InvalidReceiver",
      "type": "error"
    },
    {
      "inputs": [
        {
          "internalType": "address",
          "name": "sender",
          "type": "address"
        }
      ],
      "name": "ERC721InvalidSender",
      "type": "error"
    },
    {
      "inputs": [
        {
          "internalType": "uint256",
          "name": "tokenId",
          "type": "uint256"
        }
      ],
      "name": "ERC721NonexistentToken",
      "type": "error"
    },
    {
      "inputs": [
        {
          "internalType": "address",
          "name": "owner",
          "type": "address"
        }
      ],
      "name": "OwnableInvalidOwner",
      "type": "error"
    },
    {
      "inputs": [
        {
          "internalType": "address",
          "name": "account",
          "type": "address"
        }
      ],
      "name": "OwnableUnauthorizedAccount",
      "type": "error"
    },
    {
      "anonymous": false,
      "inputs": [
        {
          "indexed": true,
          "internalType": "address",
          "name": "owner",
          "type": "address"
        },
        {
          "indexed": true,
          "internalType": "address",
          "name": "approved",
          "type": "address"
        },
        {
          "indexed": true,
          "internalType": "uint256",
          "name": "tokenId",
          "type": "uint256"
        }
      ],
      "name": "Approval",
      "type": "event"
    },
    {
      "anonymous": false,
      "inputs": [
        {
          "indexed": true,
          "internalType": "address",
          "name": "owner",
          "type": "address"
        },
        {
          "indexed": true,
          "internalType": "address",
          "name": "operator",
          "type": "address"
        },
        {
          "indexed": false,
          "internalType": "bool",
          "name": "approved",
          "type": "bool"
        }
      ],
      "name": "ApprovalForAll",
      "type": "event"
    },
    {
      "anonymous": false,
      "inputs": [
        {
          "indexed": true,
          "internalType": "uint256",
          "name": "tokenId",
          "type": "uint256"
        },
        {
          "indexed": true,
          "internalType": "address",
          "name": "creator",
          "type": "address"
        },
        {
          "indexed": false,
          "internalType": "string",
          "name": "assetType",
          "type": "string"
        },
        {
          "indexed": false,
          "internalType": "string",
          "name": "culturalOrigin",
          "type": "string"
        }
      ],
      "name": "AssetCreated",
      "type": "event"
    },
    {
      "anonymous": false,
      "inputs": [
        {
          "indexed": true,
          "internalType": "uint256",
          "name": "tokenId",
          "type": "uint256"
        },
        {
          "indexed": false,
          "internalType": "string",
          "name": "newMetadataHash",
          "type": "string"
        }
      ],
      "name": "AssetMetadataUpdated",
      "type": "event"
    },
    {
      "anonymous": false,
      "inputs": [
        {
          "indexed": true,
          "internalType": "uint256",
          "name": "tokenId",
          "type": "uint256"
        }
      ],
      "name": "AssetVerified",
      "type": "event"
    },
    {
      "anonymous": false,
      "inputs": [
        {
          "indexed": false,
          "internalType": "uint256",
          "name": "_fromTokenId",
          "type": "uint256"
        },
        {
          "indexed": false,
          "internalType": "uint256",
          "name": "_toTokenId",
          "type": "uint256"
        }
      ],
      "name": "BatchMetadataUpdate",
      "type": "event"
    },
    {
      "anonymous": false,
      "inputs": [
        {
          "indexed": false,
          "internalType": "uint256",
          "name": "_tokenId",
          "type": "uint256"
        }
      ],
      "name": "MetadataUpdate",
      "type": "event"
    },
    {
      "anonymous": false,
      "inputs": [
        {
          "indexed": true,
          "internalType": "address",
          "name": "previousOwner",
          "type": "address"
        },
        {
          "indexed": true,
          "internalType": "address",
          "name": "newOwner",
          "type": "address"
        }
      ],
      "name": "OwnershipTransferred",
      "type": "event"
    },
    {
      "anonymous": false,
      "inputs": [
        {
          "indexed": true,
          "internalType": "address",
          "name": "from",
          "type": "address"
        },
        {
          "indexed": true,
          "internalType": "address",
          "name": "to",
          "type": "address"
        },
        {
          "indexed": true,
          "internalType": "uint256",
          "name": "tokenId",
          "type": "uint256"
        }
      ],
      "name": "Transfer",
      "type": "event"
    },
    {
      "inputs": [
        {
          "internalType": "address",
          "name": "to",
          "type": "address"
        },
        {
          "internalType": "uint256",
          "name": "tokenId",
          "type": "uint256"
        }
      ],
      "name": "approve",
      "outputs": [],
      "stateMutability": "nonpayable",
      "type": "function"
    },
    {
      "inputs": [
        {
          "internalType": "uint256",
          "name": "_tokenId",
          "type": "uint256"
        }
      ],
      "name": "assetExists",
      "outputs": [
        {
          "internalType": "bool",
          "name": "",
          "type": "bool"
        }
      ],
      "stateMutability": "view",
      "type": "function"
    },
    {
      "inputs": [
        {
          "internalType": "address",
          "name": "owner",
          "type": "address"
        }
      ],
      "name": "balanceOf",
      "outputs": [
        {
          "internalType": "uint256",
          "name": "",
          "type": "uint256"
        }
      ],
      "stateMutability": "view",
      "type": "function"
    },
    {
      "inputs": [
        {
          "internalType": "string",
          "name": "_assetType",
          "type": "string"
        },
        {
          "internalType": "string",
          "name": "_culturalOrigin",
          "type": "string"
        },
        {
          "internalType": "string",
          "name": "_tokenURI",
          "type": "string"
        },
        {
          "internalType": "string",
          "name": "_metadataHash",
          "type": "string"
        }
      ],
      "name": "createAsset",
      "outputs": [
        {
          "internalType": "uint256",
          "name": "",
          "type": "uint256"
        }
      ],
      "stateMutability": "nonpayable",
      "type": "function"
    },
    {
      "inputs": [
        {
          "internalType": "uint256",
          "name": "tokenId",
          "type": "uint256"
        }
      ],
      "name": "getApproved",
      "outputs": [
        {
          "internalType": "address",
          "name": "",
          "type": "address"
        }
      ],
      "stateMutability": "view",
      "type": "function"
    },
    {
      "inputs": [
        {
          "internalType": "uint256",
          "name": "_tokenId",
          "type": "uint256"
        }
      ],
      "name": "getAssetInfo",
      "outputs": [
        {
          "internalType": "uint256",
          "name": "id",
          "type": "uint256"
        },
        {
          "internalType": "string",
          "name": "assetType",
          "type": "string"
        },
        {
          "internalType": "string",
          "name": "culturalOrigin",
          "type": "string"
        },
        {
          "internalType": "address",
          "name": "creator",
          "type": "address"
        },
        {
          "internalType": "uint256",
          "name": "creationTime",
          "type": "uint256"
        },
        {
          "internalType": "bool",
          "name": "isVerified",
          "type": "bool"
        },
        {
          "internalType": "string",
          "name": "metadataHash",
          "type": "string"
        }
      ],
      "stateMutability": "view",
      "type": "function"
    },
    {
      "inputs": [
        {
          "internalType": "address",
          "name": "_creator",
          "type": "address"
        }
      ],
      "name": "getAssetsByCreator",
      "outputs": [
        {
          "internalType": "uint256[]",
          "name": "",
          "type": "uint256[]"
        }
      ],
      "stateMutability": "view",
      "type": "function"
    },
    {
      "inputs": [
        {
          "internalType": "string",
          "name": "_culturalOrigin",
          "type": "string"
        }
      ],
      "name": "getAssetsByOrigin",
      "outputs": [
        {
          "internalType": "uint256[]",
          "name": "",
          "type": "uint256[]"
        }
      ],
      "stateMutability": "view",
      "type": "function"
    },
    {
      "inputs": [
        {
          "internalType": "string",
          "name": "_assetType",
          "type": "string"
        }
      ],
      "name": "getAssetsByType",
      "outputs": [
        {
          "internalType": "uint256[]",
          "name": "",
          "type": "uint256[]"
        }
      ],
      "stateMutability": "view",
      "type": "function"
    },
    {
      "inputs": [],
      "name": "getTotalAssets",
      "outputs": [
        {
          "internalType": "uint256",
          "name": "",
          "type": "uint256"
        }
      ],
      "stateMutability": "view",
      "type": "function"
    },
    {
      "inputs": [
        {
          "internalType": "uint256",
          "name": "_startIndex",
          "type": "uint256"
        },
        {
          "internalType": "uint256",
          "name": "_count",
          "type": "uint256"
        }
      ],
      "name": "getVerifiedAssets",
      "outputs": [
        {
          "internalType": "uint256[]",
          "name": "",
          "type": "uint256[]"
        }
      ],
      "stateMutability": "view",
      "type": "function"
    },
    {
      "inputs": [
        {
          "internalType": "address",
          "name": "owner",
          "type": "address"
        },
        {
          "internalType": "address",
          "name": "operator",
          "type": "address"
        }
      ],
      "name": "isApprovedForAll",
      "outputs": [
        {
          "internalType": "bool",
          "name": "",
          "type": "bool"
        }
      ],
      "stateMutability": "view",
      "type": "function"
    },
    {
      "inputs": [],
      "name": "name",
      "outputs": [
        {
          "internalType": "string",
          "name": "",
          "type": "string"
        }
      ],
      "stateMutability": "view",
      "type": "function"
    },
    {
      "inputs": [],
      "name": "owner",
      "outputs": [
        {
          "internalType": "address",
          "name": "",
          "type": "address"
        }
      ],
      "stateMutability": "view",
      "type": "function"
    },
    {
      "inputs": [
        {
          "internalType": "uint256",
          "name": "tokenId",
          "type": "uint256"
        }
      ],
      "name": "ownerOf",
      "outputs": [
        {
          "internalType": "address",
          "name": "",
          "type": "address"
        }
      ],
      "stateMutability": "view",
      "type": "function"
    },
    {
      "inputs": [],
      "name": "renounceOwnership",
      "outputs": [],
      "stateMutability": "nonpayable",
      "type": "function"
    },
    {
      "inputs": [
        {
          "internalType": "address",
          "name": "from",
          "type": "address"
        },
        {
          "internalType": "address",
          "name": "to",
          "type": "address"
        },
        {
          "internalType": "uint256",
          "name": "tokenId",
          "type": "uint256"
        }
      ],
      "name": "safeTransferFrom",
      "outputs": [],
      "stateMutability": "nonpayable",
      "type": "function"
    },
    {
      "inputs": [
        {
          "internalType": "address",
          "name": "from",
          "type": "address"
        },
        {
          "internalType": "address",
          "name": "to",
          "type": "address"
        },
        {
          "internalType": "uint256",
          "name": "tokenId",
          "type": "uint256"
        },
        {
          "internalType": "bytes",
          "name": "data",
          "type": "bytes"
        }
      ],
      "name": "safeTransferFrom",
      "outputs": [],
      "stateMutability": "nonpayable",
      "type": "function"
    },
    {
      "inputs": [
        {
          "internalType": "address",
          "name": "operator",
          "type": "address"
        },
        {
          "internalType": "bool",
          "name": "approved",
          "type": "bool"
        }
      ],
      "name": "setApprovalForAll",
      "outputs": [],
      "stateMutability": "nonpayable",
      "type": "function"
    },
    {
      "inputs": [
        {
          "internalType": "bytes4",
          "name": "interfaceId",
          "type": "bytes4"
        }
      ],
      "name": "supportsInterface",
      "outputs": [
        {
          "internalType": "bool",
          "name": "",
          "type": "bool"
        }
      ],
      "stateMutability": "view",
      "type": "function"
    },
    {
      "inputs": [],
      "name": "symbol",
      "outputs": [
        {
          "internalType": "string",
          "name": "",
          "type": "string"
        }
      ],
      "stateMutability": "view",
      "type": "function"
    },
    {
      "inputs": [
        {
          "internalType": "uint256",
          "name": "tokenId",
          "type": "uint256"
        }
      ],
      "name": "tokenURI",
      "outputs": [
        {
          "internalType": "string",
          "name": "",
          "type": "string"
        }
      ],
      "stateMutability": "view",
      "type": "function"
    },
    {
      "inputs": [
        {
          "internalType": "address",
          "name": "from",
          "type": "address"
        },
        {
          "internalType": "address",
          "name": "to",
          "type": "address"
        },
        {
          "internalType": "uint256",
          "name": "tokenId",
          "type": "uint256"
        }
      ],
      "name": "transferFrom",
      "outputs": [],
      "stateMutability": "nonpayable",
      "type": "function"
    },
    {
      "inputs": [
        {
          "internalType": "address",
          "name": "newOwner",
          "type": "address"
        }
      ],
      "name": "transferOwnership",
      "outputs": [],
      "stateMutability": "nonpayable",
      "type": "function"
    },
    {
      "inputs": [
        {
          "internalType": "uint256",
          "name": "_tokenId",
          "type": "uint256"
        },
        {
          "internalType": "string",
          "name": "_newTokenURI",
          "type": "string"
        },
        {
          "internalType": "string",
          "name": "_newMetadataHash",
          "type": "string"
        }
      ],
      "name": "updateAssetMetadata",
      "outputs": [],
      "stateMutability": "nonpayable",
      "type": "function"
    },
    {
      "inputs": [
        {
          "internalType": "uint256",
          "name": "_tokenId",
          "type": "uint256"
        }
      ],
      "name": "verifyAsset",
      "outputs": [],
      "stateMutability": "nonpayable",
      "type": "function"
    }
  ],
  "bytecode": "0x60806040523480156200001157600080fd5b5060405162002573380380620025738339810160408190526200003491620001b5565b8083836000620000458382620002d3565b506001620000548282620002d3565b5050506001600160a01b0381166200008657604051631e4fbdf760e01b81526000600482015260240160405180910390fd5b62000091816200009b565b505050506200039f565b600780546001600160a01b038381166001600160a01b0319831681179093556040519116919082907f8be0079c531659141344cd1fd0a4f28419497f9722a3daafe3b4186f6b6457e090600090a35050565b634e487b7160e01b600052604160045260246000fd5b600082601f8301126200011557600080fd5b81516001600160401b0380821115620001325762000132620000ed565b604051601f8301601f19908116603f011681019082821181831017156200015d576200015d620000ed565b81604052838152602092508660208588010111156200017b57600080fd5b600091505b838210156200019f578582018301518183018401529082019062000180565b6000602085830101528094505050505092915050565b600080600060608486031215620001cb57600080fd5b83516001600160401b0380821115620001e357600080fd5b620001f18783880162000103565b945060208601519150808211156200020857600080fd5b50620002178682870162000103565b604086015190935090506001600160a01b03811681146200023757600080fd5b809150509250925092565b600181811c908216806200025757607f821691505b6020821081036200027857634e487b7160e01b600052602260045260246000fd5b50919050565b601f821115620002ce576000816000526020600020601f850160051c81016020861015620002a95750805b601f850160051c820191505b81811015620002ca57828155600101620002b5565b5050505b505050565b81516001600160401b03811115620002ef57620002ef620000ed565b620003078162000300845462000242565b846200027e565b602080601f8311600181146200033f5760008415620003265750858301515b600019600386901b1c1916600185901b178555620002ca565b600085815260208120601f198616915b8281101562000370578886015182559484019460019091019084016200034f565b50858210156200038f5787850151600019600388901b60f8161c191681555b5050505050600190811b01905550565b6121c480620003af6000396000f3fe608060405234801561001057600080fd5b506004361061018e5760003560e01c806370a08231116100de578063b88d4fde11610097578063ed5eb95811610071578063ed5eb9581461035e578063f2fde38b14610371578063f637d95014610384578063fae08f79146103aa57600080fd5b8063b88d4fde14610325578063c87b56dd14610338578063e985e9c51461034b57600080fd5b806370a08231146102cb578063715018a6146102de5780638834beb7146102e65780638da5cb5b146102f957806395d89b411461030a578063a22cb4651461031257600080fd5b80633b01bbfd1161014b578063518e2bdd11610125578063518e2bdd1461028a57806359fd285c1461029d5780636352211e146102b05780636e07302b146102c357600080fd5b80633b01bbfd146102445780633c2fd9501461026457806342842e0e1461027757600080fd5b806301ffc9a71461019357806306fdde03146101bb578063081812fc146101d0578063095ea7b3146101fb5780630b5156c51461021057806323b872dd14610231575b600080fd5b6101a66101a1366004611917565b6103bd565b60405190151581526020015b60405180910390f35b6101c36103e8565b6040516101b29190611984565b6101e36101de366004611997565b61047a565b6040516001600160a01b0390911681526020016101b2565b61020e6102093660046119cc565b6104a3565b005b61022361021e366004611ac3565b6104b2565b6040519081526020016101b2565b61020e61023f366004611b70565b61079d565b610257610252366004611bac565b610828565b6040516101b29190611bce565b61020e610272366004611c12565b6109ad565b61020e610285366004611b70565b610ab9565b6101a6610298366004611997565b610ad9565b61020e6102ab366004611997565b610af8565b6101e36102be366004611997565b610b7a565b600854610223565b6102236102d9366004611c7f565b610b85565b61020e610bcd565b6102576102f4366004611c9a565b610be1565b6007546001600160a01b03166101e3565b6101c3610c51565b61020e610320366004611cdd565b610c60565b61020e610333366004611d14565b610c6b565b6101c3610346366004611997565b610c83565b6101a6610359366004611d84565b610d94565b61025761036c366004611c7f565b610dc2565b61020e61037f366004611c7f565b610e2c565b610397610392366004611997565b610e6a565b6040516101b29796959493929190611db7565b6102576103b8366004611c9a565b6110b5565b60006001600160e01b03198216632483248360e11b14806103e257506103e2826110c7565b92915050565b6060600080546103f790611e22565b80601f016020809104026020016040519081016040528092919081815260200182805461042390611e22565b80156104705780601f1061044557610100808354040283529160200191610470565b820191906000526020600020905b81548152906001019060200180831161045357829003601f168201915b5050505050905090565b600061048582611117565b506000828152600460205260409020546001600160a01b03166103e2565b6104ae828233611150565b5050565b600954604051636386c1c760e01b8152336004820152600091829182916001600160a01b031690636386c1c790602401600060405180830381865afa1580156104ff573d6000803e3d6000fd5b505050506040513d6000823e601f3d908101601f191682016040526105279190810190611ea1565b94505050509150816000036105795760405162461bcd60e51b8152602060048201526013602482015272155cd95c881b9bdd081c9959da5cdd195c9959606a1b60448201526064015b60405180910390fd5b806105d55760405162461bcd60e51b815260206004820152602660248201527f55736572206d75737420626520766572696669656420746f206372656174652060448201526561737365747360d01b6064820152608401610570565b600880549060006105e583611f43565b90915550506008546105f7338261115d565b61060181876111c2565b6040805160e08101825282815260208082018b81528284018b9052336060840152426080840152600060a0840181905260c084018a9052858152600a909252929020815181559151909190600182019061065b9082611fa4565b50604082015160028201906106709082611fa4565b5060608201516003820180546001600160a01b0319166001600160a01b039092169190911790556080820151600482015560a082015160058201805460ff191691151591909117905560c082015160068201906106cd9082611fa4565b50905050600b876040516106e19190612064565b90815260405190819003602090810182208054600181018255600091825291902001829055600c90610714908a90612064565b908152604080519182900360209081018320805460018181018355600092835283832090910186905533808352600d8452938220805491820181558252919020018390559082907f15b4de41eb7ccf157c9237c13a9707eecd8592c0aeef51f60141fe61c5e4e5679061078a908c908c90612080565b60405180910390a3979650505050505050565b6001600160a01b0382166107c757604051633250574960e11b815260006004820152602401610570565b60006107d4838333611212565b9050836001600160a01b0316816001600160a01b031614610822576040516364283d7b60e01b81526001600160a01b0380861660048301526024820184905282166044820152606401610570565b50505050565b60085460609080841061087d5760405162461bcd60e51b815260206004820152601960248201527f537461727420696e646578206f7574206f6620626f756e6473000000000000006044820152606401610570565b600061088984866120ae565b9050818111156108965750805b6000806108a48760016120ae565b90505b8281116108e8576000818152600a602052604090206005015460ff16156108d657816108d281611f43565b9250505b806108e081611f43565b9150506108a7565b5060008167ffffffffffffffff811115610904576109046119f6565b60405190808252806020026020018201604052801561092d578160200160208202803683370190505b50905060008061093e8960016120ae565b90505b8481116109a0576000818152600a602052604090206005015460ff161561098e5780838381518110610975576109756120c1565b60209081029190910101528161098a81611f43565b9250505b8061099881611f43565b915050610941565b5090979650505050505050565b6000838152600260205260409020546001600160a01b03166109e15760405162461bcd60e51b8152600401610570906120d7565b336109eb84610b7a565b6001600160a01b03161480610a19575033610a0e6007546001600160a01b031690565b6001600160a01b0316145b610a565760405162461bcd60e51b815260206004820152600e60248201526d139bdd08185d5d1a1bdc9a5e995960921b6044820152606401610570565b610a6083836111c2565b6000838152600a60205260409020600601610a7b8282611fa4565b50827fb24c12af46d9d1b315bd362fc4e303af4f63e4dcea5761c8ddd6da7abb9d905982604051610aac9190611984565b60405180910390a2505050565b610ad483838360405180602001604052806000815250610c6b565b505050565b6000818152600260205260408120546001600160a01b031615156103e2565b610b0061130b565b6000818152600260205260409020546001600160a01b0316610b345760405162461bcd60e51b8152600401610570906120d7565b6000818152600a6020526040808220600501805460ff191660011790555182917f7115fa7500082019331bb00caaa9cc745ac6d0414c2af51872c3b69493c9942c91a250565b60006103e282611117565b60006001600160a01b038216610bb1576040516322718ad960e21b815260006004820152602401610570565b506001600160a01b031660009081526003602052604090205490565b610bd561130b565b610bdf6000611338565b565b6060600b82604051610bf39190612064565b9081526040805191829003602090810183208054808302850183019093528284529190830182828015610c4557602002820191906000526020600020905b815481526020019060010190808311610c31575b50505050509050919050565b6060600180546103f790611e22565b6104ae33838361138a565b610c7684848461079d565b6108223385858585611429565b6060610c8e82611117565b5060008281526006602052604081208054610ca890611e22565b80601f0160208091040260200160405190810160405280929190818152602001828054610cd490611e22565b8015610d215780601f10610cf657610100808354040283529160200191610d21565b820191906000526020600020905b815481529060010190602001808311610d0457829003601f168201915b505050505090506000610d3f60408051602081019091526000815290565b90508051600003610d51575092915050565b815115610d83578082604051602001610d6b929190612105565b60405160208183030381529060405292505050919050565b610d8c84611554565b949350505050565b6001600160a01b03918216600090815260056020908152604080832093909416825291909152205460ff1690565b6001600160a01b0381166000908152600d6020908152604091829020805483518184028101840190945280845260609392830182828015610c455760200282019190600052602060002090815481526020019060010190808311610c315750505050509050919050565b610e3461130b565b6001600160a01b038116610e5e57604051631e4fbdf760e01b815260006004820152602401610570565b610e6781611338565b50565b600060608060008060006060610e97886000908152600260205260409020546001600160a01b0316151590565b610eb35760405162461bcd60e51b8152600401610570906120d7565b6000888152600a602052604090208054600382015460048301546005840154600185018054909360028701936001600160a01b0390911692909160ff9091169060068801908690610f0390611e22565b80601f0160208091040260200160405190810160405280929190818152602001828054610f2f90611e22565b8015610f7c5780601f10610f5157610100808354040283529160200191610f7c565b820191906000526020600020905b815481529060010190602001808311610f5f57829003601f168201915b50505050509550848054610f8f90611e22565b80601f0160208091040260200160405190810160405280929190818152602001828054610fbb90611e22565b80156110085780601f10610fdd57610100808354040283529160200191611008565b820191906000526020600020905b815481529060010190602001808311610feb57829003601f168201915b5050505050945080805461101b90611e22565b80601f016020809104026020016040519081016040528092919081815260200182805461104790611e22565b80156110945780601f1061106957610100808354040283529160200191611094565b820191906000526020600020905b81548152906001019060200180831161107757829003601f168201915b50505050509050975097509750975097509750975050919395979092949650565b6060600c82604051610bf39190612064565b60006001600160e01b031982166380ac58cd60e01b14806110f857506001600160e01b03198216635b5e139f60e01b145b806103e257506301ffc9a760e01b6001600160e01b03198316146103e2565b6000818152600260205260408120546001600160a01b0316806103e257604051637e27328960e01b815260048101849052602401610570565b610ad483838360016115c9565b6001600160a01b03821661118757604051633250574960e11b815260006004820152602401610570565b600061119583836000611212565b90506001600160a01b03811615610ad4576040516339e3563760e11b815260006004820152602401610570565b60008281526006602052604090206111da8282611fa4565b506040518281527ff8e1a15aba9398e019f0b49df1a4fde98ee17ae345cb5f6b5e2c27f5033e8ce79060200160405180910390a15050565b6000828152600260205260408120546001600160a01b039081169083161561123f5761123f8184866116cf565b6001600160a01b0381161561127d5761125c6000856000806115c9565b6001600160a01b038116600090815260036020526040902080546000190190555b6001600160a01b038516156112ac576001600160a01b0385166000908152600360205260409020805460010190555b60008481526002602052604080822080546001600160a01b0319166001600160a01b0389811691821790925591518793918516917fddf252ad1be2c89b69c2b068fc378daa952ba7f163c4a11628f55a4df523b3ef91a4949350505050565b6007546001600160a01b03163314610bdf5760405163118cdaa760e01b8152336004820152602401610570565b600780546001600160a01b038381166001600160a01b0319831681179093556040519116919082907f8be0079c531659141344cd1fd0a4f28419497f9722a3daafe3b4186f6b6457e090600090a35050565b6001600160a01b0382166113bc57604051630b61174360e31b81526001600160a01b0383166004820152602401610570565b6001600160a01b03838116600081815260056020908152604080832094871680845294825291829020805460ff191686151590811790915591519182527f17307eab39ab6107e8899845ad3d59bd9653f200f220920489ca2b5937696c31910160405180910390a3505050565b6001600160a01b0383163b1561154d57604051630a85bd0160e11b81526001600160a01b0384169063150b7a029061146b908890889087908790600401612134565b6020604051808303816000875af19250505080156114a6575060408051601f3d908101601f191682019092526114a391810190612171565b60015b61150f573d8080156114d4576040519150601f19603f3d011682016040523d82523d6000602084013e6114d9565b606091505b50805160000361150757604051633250574960e11b81526001600160a01b0385166004820152602401610570565b805181602001fd5b6001600160e01b03198116630a85bd0160e11b1461154b57604051633250574960e11b81526001600160a01b0385166004820152602401610570565b505b5050505050565b606061155f82611117565b50600061157760408051602081019091526000815290565b9050600081511161159757604051806020016040528060008152506115c2565b806115a184611733565b6040516020016115b2929190612105565b6040516020818303038152906040525b9392505050565b80806115dd57506001600160a01b03821615155b1561169f5760006115ed84611117565b90506001600160a01b038316158015906116195750826001600160a01b0316816001600160a01b031614155b801561162c575061162a8184610d94565b155b156116555760405163a9fbf51f60e01b81526001600160a01b0384166004820152602401610570565b811561169d5783856001600160a01b0316826001600160a01b03167f8c5be1e5ebec7d5bd14f71427d1e84f3dd0314c0f7b2291e5b200ac8c7c3b92560405160405180910390a45b505b5050600090815260046020526040902080546001600160a01b0319166001600160a01b0392909216919091179055565b6116da8383836117c6565b610ad4576001600160a01b03831661170857604051637e27328960e01b815260048101829052602401610570565b60405163177e802f60e01b81526001600160a01b038316600482015260248101829052604401610570565b6060600061174083611829565b600101905060008167ffffffffffffffff811115611760576117606119f6565b6040519080825280601f01601f19166020018201604052801561178a576020820181803683370190505b5090508181016020015b600019016f181899199a1a9b1b9c1cb0b131b232b360811b600a86061a8153600a850494508461179457509392505050565b60006001600160a01b03831615801590610d8c5750826001600160a01b0316846001600160a01b0316148061180057506118008484610d94565b80610d8c5750506000908152600460205260409020546001600160a01b03908116911614919050565b60008072184f03e93ff9f4daa797ed6e38ed64bf6a1f0160401b83106118685772184f03e93ff9f4daa797ed6e38ed64bf6a1f0160401b830492506040015b6d04ee2d6d415b85acef81000000008310611894576d04ee2d6d415b85acef8100000000830492506020015b662386f26fc1000083106118b257662386f26fc10000830492506010015b6305f5e10083106118ca576305f5e100830492506008015b61271083106118de57612710830492506004015b606483106118f0576064830492506002015b600a83106103e25760010192915050565b6001600160e01b031981168114610e6757600080fd5b60006020828403121561192957600080fd5b81356115c281611901565b60005b8381101561194f578181015183820152602001611937565b50506000910152565b60008151808452611970816020860160208601611934565b601f01601f19169290920160200192915050565b6020815260006115c26020830184611958565b6000602082840312156119a957600080fd5b5035919050565b80356001600160a01b03811681146119c757600080fd5b919050565b600080604083850312156119df57600080fd5b6119e8836119b0565b946020939093013593505050565b634e487b7160e01b600052604160045260246000fd5b604051601f8201601f1916810167ffffffffffffffff81118282101715611a3557611a356119f6565b604052919050565b600067ffffffffffffffff821115611a5757611a576119f6565b50601f01601f191660200190565b6000611a78611a7384611a3d565b611a0c565b9050828152838383011115611a8c57600080fd5b828260208301376000602084830101529392505050565b600082601f830112611ab457600080fd5b6115c283833560208501611a65565b60008060008060808587031215611ad957600080fd5b843567ffffffffffffffff80821115611af157600080fd5b611afd88838901611aa3565b95506020870135915080821115611b1357600080fd5b611b1f88838901611aa3565b94506040870135915080821115611b3557600080fd5b611b4188838901611aa3565b93506060870135915080821115611b5757600080fd5b50611b6487828801611aa3565b91505092959194509250565b600080600060608486031215611b8557600080fd5b611b8e846119b0565b9250611b9c602085016119b0565b9150604084013590509250925092565b60008060408385031215611bbf57600080fd5b50508035926020909101359150565b6020808252825182820181905260009190848201906040850190845b81811015611c0657835183529284019291840191600101611bea565b50909695505050505050565b600080600060608486031215611c2757600080fd5b83359250602084013567ffffffffffffffff80821115611c4657600080fd5b611c5287838801611aa3565b93506040860135915080821115611c6857600080fd5b50611c7586828701611aa3565b9150509250925092565b600060208284031215611c9157600080fd5b6115c2826119b0565b600060208284031215611cac57600080fd5b813567ffffffffffffffff811115611cc357600080fd5b610d8c84828501611aa3565b8015158114610e6757600080fd5b60008060408385031215611cf057600080fd5b611cf9836119b0565b91506020830135611d0981611ccf565b809150509250929050565b60008060008060808587031215611d2a57600080fd5b611d33856119b0565b9350611d41602086016119b0565b925060408501359150606085013567ffffffffffffffff811115611d6457600080fd5b8501601f81018713611d7557600080fd5b611b6487823560208401611a65565b60008060408385031215611d9757600080fd5b611da0836119b0565b9150611dae602084016119b0565b90509250929050565b87815260e060208201526000611dd060e0830189611958565b8281036040840152611de28189611958565b6001600160a01b03881660608501526080840187905285151560a085015283810360c08501529050611e148185611958565b9a9950505050505050505050565b600181811c90821680611e3657607f821691505b602082108103611e5657634e487b7160e01b600052602260045260246000fd5b50919050565b600082601f830112611e6d57600080fd5b8151611e7b611a7382611a3d565b818152846020838601011115611e9057600080fd5b610d8c826020830160208701611934565b600080600080600060a08688031215611eb957600080fd5b85519450602086015167ffffffffffffffff80821115611ed857600080fd5b611ee489838a01611e5c565b95506040880151915080821115611efa57600080fd5b50611f0788828901611e5c565b935050606086015191506080860151611f1f81611ccf565b809150509295509295909350565b634e487b7160e01b600052601160045260246000fd5b600060018201611f5557611f55611f2d565b5060010190565b601f821115610ad4576000816000526020600020601f850160051c81016020861015611f855750805b601f850160051c820191505b8181101561154b57828155600101611f91565b815167ffffffffffffffff811115611fbe57611fbe6119f6565b611fd281611fcc8454611e22565b84611f5c565b602080601f8311600181146120075760008415611fef5750858301515b600019600386901b1c1916600185901b17855561154b565b600085815260208120601f198616915b8281101561203657888601518255948401946001909101908401612017565b50858210156120545787850151600019600388901b60f8161c191681555b5050505050600190811b01905550565b60008251612076818460208701611934565b9190910192915050565b6040815260006120936040830185611958565b82810360208401526120a58185611958565b95945050505050565b808201808211156103e2576103e2611f2d565b634e487b7160e01b600052603260045260246000fd5b602080825260149082015273105cdcd95d08191bd95cc81b9bdd08195e1a5cdd60621b604082015260600190565b60008351612117818460208801611934565b83519083019061212b818360208801611934565b01949350505050565b6001600160a01b038581168252841660208201526040810183905260806060820181905260009061216790830184611958565b9695505050505050565b60006020828403121561218357600080fd5b81516115c28161190156fea26469706673582212208b9371e72cf17726430008c3e470edc595b86b416025c1ffef81036c48c4ba2564736f6c63430008160033",
  "linkReferences": {},
  "deployedLinkReferences": {}
}