{
  "_format": "hh-sol-artifact-1",
  "contractName": "CultureBridgeIdentity",
  "sourceName": "blockchain/contracts/CultureBridgeIdentity.sol",
  "abi": [
    {
      "inputs": [
        {
          "internalType": "address",
          "name": "initialOwner",
          "type": "address"
        }
      ],
      "stateMutability": "nonpayable",
      "type": "constructor"
    },
    {
      "inputs": [
        {
          "internalType": "address",
          "name": "owner",
          "type": "address"
        }
      ],
      "name": "OwnableInvalidOwner",
      "type": "error"
    },
    {
      "inputs": [
        {
          "internalType": "address",
          "name": "account",
          "type": "address"
        }
      ],
      "name": "OwnableUnauthorizedAccount",
      "type": "error"
    },
    {
      "anonymous": false,
      "inputs": [
        {
          "indexed": true,
          "internalType": "address",
          "name": "userAddress",
          "type": "address"
        },
        {
          "indexed": false,
          "internalType": "string",
          "name": "credentialType",
          "type": "string"
        }
      ],
      "name": "CredentialAdded",
      "type": "event"
    },
    {
      "anonymous": false,
      "inputs": [
        {
          "indexed": true,
          "internalType": "address",
          "name": "previousOwner",
          "type": "address"
        },
        {
          "indexed": true,
          "internalType": "address",
          "name": "newOwner",
          "type": "address"
        }
      ],
      "name": "OwnershipTransferred",
      "type": "event"
    },
    {
      "anonymous": false,
      "inputs": [
        {
          "indexed": true,
          "internalType": "address",
          "name": "userAddress",
          "type": "address"
        },
        {
          "indexed": false,
          "internalType": "uint256",
          "name": "id",
          "type": "uint256"
        },
        {
          "indexed": false,
          "internalType": "string",
          "name": "username",
          "type": "string"
        }
      ],
      "name": "UserRegistered",
      "type": "event"
    },
    {
      "anonymous": false,
      "inputs": [
        {
          "indexed": true,
          "internalType": "address",
          "name": "userAddress",
          "type": "address"
        }
      ],
      "name": "UserVerified",
      "type": "event"
    },
    {
      "inputs": [
        {
          "internalType": "address",
          "name": "_userAddress",
          "type": "address"
        },
        {
          "internalType": "string",
          "name": "_credentialType",
          "type": "string"
        }
      ],
      "name": "addCredential",
      "outputs": [],
      "stateMutability": "nonpayable",
      "type": "function"
    },
    {
      "inputs": [
        {
          "internalType": "address",
          "name": "_userAddress",
          "type": "address"
        },
        {
          "internalType": "string",
          "name": "_credentialType",
          "type": "string"
        }
      ],
      "name": "checkCredential",
      "outputs": [
        {
          "internalType": "bool",
          "name": "",
          "type": "bool"
        }
      ],
      "stateMutability": "view",
      "type": "function"
    },
    {
      "inputs": [
        {
          "internalType": "string",
          "name": "_username",
          "type": "string"
        }
      ],
      "name": "getAddressByUsername",
      "outputs": [
        {
          "internalType": "address",
          "name": "",
          "type": "address"
        }
      ],
      "stateMutability": "view",
      "type": "function"
    },
    {
      "inputs": [
        {
          "internalType": "address",
          "name": "_userAddress",
          "type": "address"
        }
      ],
      "name": "getUserInfo",
      "outputs": [
        {
          "internalType": "uint256",
          "name": "id",
          "type": "uint256"
        },
        {
          "internalType": "string",
          "name": "username",
          "type": "string"
        },
        {
          "internalType": "string",
          "name": "culturalBackground",
          "type": "string"
        },
        {
          "internalType": "uint256",
          "name": "reputationScore",
          "type": "uint256"
        },
        {
          "internalType": "bool",
          "name": "isVerified",
          "type": "bool"
        }
      ],
      "stateMutability": "view",
      "type": "function"
    },
    {
      "inputs": [],
      "name": "owner",
      "outputs": [
        {
          "internalType": "address",
          "name": "",
          "type": "address"
        }
      ],
      "stateMutability": "view",
      "type": "function"
    },
    {
      "inputs": [
        {
          "internalType": "string",
          "name": "_username",
          "type": "string"
        },
        {
          "internalType": "string",
          "name": "_culturalBackground",
          "type": "string"
        }
      ],
      "name": "registerUser",
      "outputs": [],
      "stateMutability": "nonpayable",
      "type": "function"
    },
    {
      "inputs": [],
      "name": "renounceOwnership",
      "outputs": [],
      "stateMutability": "nonpayable",
      "type": "function"
    },
    {
      "inputs": [
        {
          "internalType": "address",
          "name": "newOwner",
          "type": "address"
        }
      ],
      "name": "transferOwnership",
      "outputs": [],
      "stateMutability": "nonpayable",
      "type": "function"
    },
    {
      "inputs": [
        {
          "internalType": "address",
          "name": "_userAddress",
          "type": "address"
        },
        {
          "internalType": "uint256",
          "name": "_score",
          "type": "uint256"
        }
      ],
      "name": "updateReputationScore",
      "outputs": [],
      "stateMutability": "nonpayable",
      "type": "function"
    },
    {
      "inputs": [
        {
          "internalType": "address",
          "name": "_userAddress",
          "type": "address"
        }
      ],
      "name": "verifyUser",
      "outputs": [],
      "stateMutability": "nonpayable",
      "type": "function"
    }
  ],
  "bytecode": "0x608060405234801561001057600080fd5b50604051610d63380380610d6383398101604081905261002f916100be565b806001600160a01b03811661005e57604051631e4fbdf760e01b81526000600482015260240160405180910390fd5b6100678161006e565b50506100ee565b600080546001600160a01b038381166001600160a01b0319831681178455604051919092169283917f8be0079c531659141344cd1fd0a4f28419497f9722a3daafe3b4186f6b6457e09190a35050565b6000602082840312156100d057600080fd5b81516001600160a01b03811681146100e757600080fd5b9392505050565b610c66806100fd6000396000f3fe608060405234801561001057600080fd5b506004361061009e5760003560e01c80637b9891c4116100665780637b9891c4146101275780638da5cb5b1461013a5780638e4f96061461014b578063c2cab9771461015e578063f2fde38b1461018157600080fd5b80631d2e4afd146100a35780634d813120146100b85780636322961d146100cb5780636386c1c7146100fb578063715018a61461011f575b600080fd5b6100b66100b1366004610867565b610194565b005b6100b66100c63660046108e7565b610350565b6100de6100d9366004610909565b6103de565b6040516001600160a01b0390911681526020015b60405180910390f35b61010e6101093660046108e7565b61040f565b6040516100f2959493929190610996565b6100b661057e565b6100b66101353660046109db565b610592565b6000546001600160a01b03166100de565b6100b6610159366004610a1f565b610664565b61017161016c3660046109db565b6106c2565b60405190151581526020016100f2565b6100b661018f3660046108e7565b610709565b33600090815260026020526040902054156101f65760405162461bcd60e51b815260206004820152601760248201527f5573657220616c7265616479207265676973746572656400000000000000000060448201526064015b60405180910390fd5b60006001600160a01b03166003836040516102119190610a49565b908152604051908190036020019020546001600160a01b0316146102705760405162461bcd60e51b81526020600482015260166024820152752ab9b2b93730b6b29030b63932b0b23c903a30b5b2b760511b60448201526064016101ed565b6001805490600061028083610a65565b909155505060018054336000908152600260205260409020818155909181016102a98582610b17565b50600281016102b88482610b17565b50600060038083019190915560048201805460ff191690556040513391906102e1908790610a49565b90815260405190819003602001812080546001600160a01b03939093166001600160a01b03199093169290921790915533907fbc6cd93a5a69dae46517fc4b81c3c705973b0fabb816aae5d0ff7a077c4d5d18906103429085908890610bd7565b60405180910390a250505050565b610358610747565b6001600160a01b038116600090815260026020526040812054900361038f5760405162461bcd60e51b81526004016101ed90610bf0565b6001600160a01b038116600081815260026020526040808220600401805460ff19166001179055517fa6625d2d26e786e2f473111bea4b2fcdbbf1863d883a2359989ce3a103d2972a9190a250565b60006003826040516103f09190610a49565b908152604051908190036020019020546001600160a01b031692915050565b6001600160a01b0381166000908152600260208190526040822080546003820154600483015460018401805460609687968996879691959094939286019260ff90911690849061045e90610a8c565b80601f016020809104026020016040519081016040528092919081815260200182805461048a90610a8c565b80156104d75780601f106104ac576101008083540402835291602001916104d7565b820191906000526020600020905b8154815290600101906020018083116104ba57829003601f168201915b505050505093508280546104ea90610a8c565b80601f016020809104026020016040519081016040528092919081815260200182805461051690610a8c565b80156105635780601f1061053857610100808354040283529160200191610563565b820191906000526020600020905b81548152906001019060200180831161054657829003601f168201915b50505050509250955095509550955095505091939590929450565b610586610747565b6105906000610774565b565b61059a610747565b6001600160a01b03821660009081526002602052604081205490036105d15760405162461bcd60e51b81526004016101ed90610bf0565b6001600160a01b038216600090815260026020526040908190209051600191600501906105ff908490610a49565b908152604051908190036020018120805492151560ff19909316929092179091556001600160a01b038316907f61d15d1a8a9eae9b8dbc91456aba9bd75089cd9761ffefeaf4c93f2c405ae74f90610658908490610c1d565b60405180910390a25050565b61066c610747565b6001600160a01b03821660009081526002602052604081205490036106a35760405162461bcd60e51b81526004016101ed90610bf0565b6001600160a01b03909116600090815260026020526040902060030155565b6001600160a01b03821660009081526002602052604080822090516005909101906106ee908490610a49565b9081526040519081900360200190205460ff16905092915050565b610711610747565b6001600160a01b03811661073b57604051631e4fbdf760e01b8152600060048201526024016101ed565b61074481610774565b50565b6000546001600160a01b031633146105905760405163118cdaa760e01b81523360048201526024016101ed565b600080546001600160a01b038381166001600160a01b0319831681178455604051919092169283917f8be0079c531659141344cd1fd0a4f28419497f9722a3daafe3b4186f6b6457e09190a35050565b634e487b7160e01b600052604160045260246000fd5b600082601f8301126107eb57600080fd5b813567ffffffffffffffff80821115610806576108066107c4565b604051601f8301601f19908116603f0116810190828211818310171561082e5761082e6107c4565b8160405283815286602085880101111561084757600080fd5b836020870160208301376000602085830101528094505050505092915050565b6000806040838503121561087a57600080fd5b823567ffffffffffffffff8082111561089257600080fd5b61089e868387016107da565b935060208501359150808211156108b457600080fd5b506108c1858286016107da565b9150509250929050565b80356001600160a01b03811681146108e257600080fd5b919050565b6000602082840312156108f957600080fd5b610902826108cb565b9392505050565b60006020828403121561091b57600080fd5b813567ffffffffffffffff81111561093257600080fd5b61093e848285016107da565b949350505050565b60005b83811015610961578181015183820152602001610949565b50506000910152565b60008151808452610982816020860160208601610946565b601f01601f19169290920160200192915050565b85815260a0602082015260006109af60a083018761096a565b82810360408401526109c1818761096a565b606084019590955250509015156080909101529392505050565b600080604083850312156109ee57600080fd5b6109f7836108cb565b9150602083013567ffffffffffffffff811115610a1357600080fd5b6108c1858286016107da565b60008060408385031215610a3257600080fd5b610a3b836108cb565b946020939093013593505050565b60008251610a5b818460208701610946565b9190910192915050565b600060018201610a8557634e487b7160e01b600052601160045260246000fd5b5060010190565b600181811c90821680610aa057607f821691505b602082108103610ac057634e487b7160e01b600052602260045260246000fd5b50919050565b601f821115610b12576000816000526020600020601f850160051c81016020861015610aef5750805b601f850160051c820191505b81811015610b0e57828155600101610afb565b5050505b505050565b815167ffffffffffffffff811115610b3157610b316107c4565b610b4581610b3f8454610a8c565b84610ac6565b602080601f831160018114610b7a5760008415610b625750858301515b600019600386901b1c1916600185901b178555610b0e565b600085815260208120601f198616915b82811015610ba957888601518255948401946001909101908401610b8a565b5085821015610bc75787850151600019600388901b60f8161c191681555b5050505050600190811b01905550565b82815260406020820152600061093e604083018461096a565b602080825260139082015272155cd95c881b9bdd081c9959da5cdd195c9959606a1b604082015260600190565b602081526000610902602083018461096a56fea264697066735822122048a90c867870356c16bb16762513844cf9b6f0f1659943cb55f5f6129f07c84664736f6c63430008160033",
  "linkReferences": {},
  "deployedLinkReferences": {}
}