{
  "_format": "hh-sol-artifact-1",
  "contractName": "CultureBridgeMarketplace",
  "sourceName": "blockchain/contracts/CultureBridgeMarketplace.sol",
  "abi": [
    {
      "inputs": [
        {
          "internalType": "address",
          "name": "_assetContractAddress",
          "type": "address"
        },
        {
          "internalType": "address",
          "name": "_tokenContractAddress",
          "type": "address"
        },
        {
          "internalType": "address",
          "name": "_identityContractAddress",
          "type": "address"
        }
      ],
      "stateMutability": "nonpayable",
      "type": "constructor"
    },
    {
      "anonymous": false,
      "inputs": [
        {
          "indexed": true,
          "internalType": "uint256",
          "name": "tokenId",
          "type": "uint256"
        },
        {
          "indexed": true,
          "internalType": "address",
          "name": "seller",
          "type": "address"
        },
        {
          "indexed": false,
          "internalType": "uint256",
          "name": "price",
          "type": "uint256"
        }
      ],
      "name": "AssetListed",
      "type": "event"
    },
    {
      "anonymous": false,
      "inputs": [
        {
          "indexed": true,
          "internalType": "uint256",
          "name": "tokenId",
          "type": "uint256"
        },
        {
          "indexed": true,
          "internalType": "address",
          "name": "seller",
          "type": "address"
        },
        {
          "indexed": true,
          "internalType": "address",
          "name": "buyer",
          "type": "address"
        },
        {
          "indexed": false,
          "internalType": "uint256",
          "name": "price",
          "type": "uint256"
        }
      ],
      "name": "AssetSold",
      "type": "event"
    },
    {
      "anonymous": false,
      "inputs": [
        {
          "indexed": true,
          "internalType": "uint256",
          "name": "tokenId",
          "type": "uint256"
        },
        {
          "indexed": true,
          "internalType": "address",
          "name": "seller",
          "type": "address"
        }
      ],
      "name": "ListingCancelled",
      "type": "event"
    },
    {
      "anonymous": false,
      "inputs": [
        {
          "indexed": true,
          "internalType": "uint256",
          "name": "tokenId",
          "type": "uint256"
        },
        {
          "indexed": false,
          "internalType": "uint256",
          "name": "oldPrice",
          "type": "uint256"
        },
        {
          "indexed": false,
          "internalType": "uint256",
          "name": "newPrice",
          "type": "uint256"
        }
      ],
      "name": "PriceChanged",
      "type": "event"
    },
    {
      "inputs": [
        {
          "internalType": "uint256",
          "name": "_tokenId",
          "type": "uint256"
        }
      ],
      "name": "buyAsset",
      "outputs": [],
      "stateMutability": "nonpayable",
      "type": "function"
    },
    {
      "inputs": [
        {
          "internalType": "uint256",
          "name": "_tokenId",
          "type": "uint256"
        }
      ],
      "name": "cancelListing",
      "outputs": [],
      "stateMutability": "nonpayable",
      "type": "function"
    },
    {
      "inputs": [
        {
          "internalType": "uint256",
          "name": "_tokenId",
          "type": "uint256"
        },
        {
          "internalType": "uint256",
          "name": "_newPrice",
          "type": "uint256"
        }
      ],
      "name": "changePrice",
      "outputs": [],
      "stateMutability": "nonpayable",
      "type": "function"
    },
    {
      "inputs": [],
      "name": "getActiveListingCount",
      "outputs": [
        {
          "internalType": "uint256",
          "name": "",
          "type": "uint256"
        }
      ],
      "stateMutability": "view",
      "type": "function"
    },
    {
      "inputs": [
        {
          "internalType": "uint256",
          "name": "_start",
          "type": "uint256"
        },
        {
          "internalType": "uint256",
          "name": "_limit",
          "type": "uint256"
        }
      ],
      "name": "getActiveListings",
      "outputs": [
        {
          "internalType": "uint256[]",
          "name": "tokenIds",
          "type": "uint256[]"
        },
        {
          "internalType": "address[]",
          "name": "sellers",
          "type": "address[]"
        },
        {
          "internalType": "uint256[]",
          "name": "prices",
          "type": "uint256[]"
        }
      ],
      "stateMutability": "view",
      "type": "function"
    },
    {
      "inputs": [
        {
          "internalType": "uint256",
          "name": "_tokenId",
          "type": "uint256"
        }
      ],
      "name": "getListing",
      "outputs": [
        {
          "internalType": "uint256",
          "name": "tokenId",
          "type": "uint256"
        },
        {
          "internalType": "address",
          "name": "seller",
          "type": "address"
        },
        {
          "internalType": "uint256",
          "name": "price",
          "type": "uint256"
        },
        {
          "internalType": "bool",
          "name": "isActive",
          "type": "bool"
        },
        {
          "internalType": "uint256",
          "name": "listedAt",
          "type": "uint256"
        },
        {
          "internalType": "string",
          "name": "description",
          "type": "string"
        }
      ],
      "stateMutability": "view",
      "type": "function"
    },
    {
      "inputs": [
        {
          "internalType": "address",
          "name": "_seller",
          "type": "address"
        }
      ],
      "name": "getSellerListings",
      "outputs": [
        {
          "internalType": "uint256[]",
          "name": "",
          "type": "uint256[]"
        }
      ],
      "stateMutability": "view",
      "type": "function"
    },
    {
      "inputs": [],
      "name": "getTransactionCount",
      "outputs": [
        {
          "internalType": "uint256",
          "name": "",
          "type": "uint256"
        }
      ],
      "stateMutability": "view",
      "type": "function"
    },
    {
      "inputs": [
        {
          "internalType": "uint256",
          "name": "_start",
          "type": "uint256"
        },
        {
          "internalType": "uint256",
          "name": "_limit",
          "type": "uint256"
        }
      ],
      "name": "getTransactionHistory",
      "outputs": [
        {
          "internalType": "uint256[]",
          "name": "tokenIds",
          "type": "uint256[]"
        },
        {
          "internalType": "address[]",
          "name": "sellers",
          "type": "address[]"
        },
        {
          "internalType": "address[]",
          "name": "buyers",
          "type": "address[]"
        },
        {
          "internalType": "uint256[]",
          "name": "prices",
          "type": "uint256[]"
        },
        {
          "internalType": "uint256[]",
          "name": "timestamps",
          "type": "uint256[]"
        }
      ],
      "stateMutability": "view",
      "type": "function"
    },
    {
      "inputs": [
        {
          "internalType": "address",
          "name": "_user",
          "type": "address"
        },
        {
          "internalType": "uint256",
          "name": "_start",
          "type": "uint256"
        },
        {
          "internalType": "uint256",
          "name": "_limit",
          "type": "uint256"
        }
      ],
      "name": "getUserTransactionHistory",
      "outputs": [
        {
          "internalType": "uint256[]",
          "name": "tokenIds",
          "type": "uint256[]"
        },
        {
          "internalType": "address[]",
          "name": "counterparties",
          "type": "address[]"
        },
        {
          "internalType": "uint256[]",
          "name": "prices",
          "type": "uint256[]"
        },
        {
          "internalType": "uint256[]",
          "name": "timestamps",
          "type": "uint256[]"
        },
        {
          "internalType": "bool[]",
          "name": "isBuyer",
          "type": "bool[]"
        }
      ],
      "stateMutability": "view",
      "type": "function"
    },
    {
      "inputs": [
        {
          "internalType": "uint256",
          "name": "_tokenId",
          "type": "uint256"
        },
        {
          "internalType": "uint256",
          "name": "_price",
          "type": "uint256"
        },
        {
          "internalType": "string",
          "name": "_description",
          "type": "string"
        }
      ],
      "name": "listAsset",
      "outputs": [],
      "stateMutability": "nonpayable",
      "type": "function"
    }
  ],
  "bytecode": "0x60806040523480156200001157600080fd5b50604051620023c8380380620023c8833981016040819052620000349162000094565b600080546001600160a01b039485166001600160a01b031991821617909155600180549385169382169390931790925560028054919093169116179055620000de565b80516001600160a01b03811681146200008f57600080fd5b919050565b600080600060608486031215620000aa57600080fd5b620000b58462000077565b9250620000c56020850162000077565b9150620000d56040850162000077565b90509250925092565b6122da80620000ee6000396000f3fe608060405234801561001057600080fd5b50600436106100a95760003560e01c80635f42da09116100715780635f42da09146101295780637742084414610149578063a39c7a9c14610151578063b3de019c14610175578063c128b23114610188578063c704df6f146101aa57600080fd5b8063107a274a146100ae578063110d35b8146100dc5780632e4ff0e5146100f15780632e7700f014610104578063305a67a814610116575b600080fd5b6100c16100bc366004611b72565b6101ce565b6040516100d396959493929190611baf565b60405180910390f35b6100ef6100ea366004611b72565b6102bb565b005b6100ef6100ff366004611c7c565b61075b565b6005545b6040519081526020016100d3565b6100ef610124366004611b72565b610bfe565b61013c610137366004611d26565b610d47565b6040516100d39190611d86565b610108610db3565b61016461015f366004611d99565b610e7b565b6040516100d3959493929190611df5565b6100ef610183366004611d99565b611192565b61019b610196366004611d99565b6112d6565b6040516100d393929190611e62565b6101bd6101b8366004611ea5565b61168d565b6040516100d3959493929190611eda565b600081815260036020819052604082208054600182015460028301549383015460048401546005850180548897889788978897606097929691956001600160a01b039091169460ff90931692819061022590611f72565b80601f016020809104026020016040519081016040528092919081815260200182805461025190611f72565b801561029e5780601f106102735761010080835404028352916020019161029e565b820191906000526020600020905b81548152906001019060200180831161028157829003601f168201915b505050505090509650965096509650965096505091939550919395565b600254604051636386c1c760e01b81523360048201526000916001600160a01b031690636386c1c790602401600060405180830381865afa158015610304573d6000803e3d6000fd5b505050506040513d6000823e601f3d908101601f1916820160405261032c9190810190612008565b5050505090508060000361037d5760405162461bcd60e51b8152602060048201526013602482015272155cd95c881b9bdd081c9959da5cdd195c9959606a1b60448201526064015b60405180910390fd5b6000828152600360208190526040909120015460ff166103af5760405162461bcd60e51b81526004016103749061208f565b600082815260036020526040902060018101546001600160a01b031633036104195760405162461bcd60e51b815260206004820152601b60248201527f53656c6c65722063616e6e6f7420627579206f776e20617373657400000000006044820152606401610374565b60028101546001546040516370a0823160e01b81523360048201526001600160a01b03909116906370a0823190602401602060405180830381865afa158015610466573d6000803e3d6000fd5b505050506040513d601f19601f8201168201806040525081019061048a91906120bb565b10156104d85760405162461bcd60e51b815260206004820152601a60248201527f496e73756666696369656e7420746f6b656e2062616c616e63650000000000006044820152606401610374565b600180549082015460028301546040516323b872dd60e01b81523360048201526001600160a01b03928316602482015260448101919091529116906323b872dd906064016020604051808303816000875af115801561053b573d6000803e3d6000fd5b505050506040513d601f19601f8201168201806040525081019061055f91906120d4565b5060005460018201546040516323b872dd60e01b81526001600160a01b039182166004820152336024820152604481018690529116906323b872dd90606401600060405180830381600087803b1580156105b857600080fd5b505af11580156105cc573d6000803e3d6000fd5b50506040805160a081018252868152600180860180546001600160a01b03908116602085019081523385870181815260028b018054606089019081524260808a0190815260058054998a01815560008190529951989099027f036b6384b5eca791c62761152d0c79bb0604c104a5fb6f4eb0703f3154bb3db081019890985593517f036b6384b5eca791c62761152d0c79bb0604c104a5fb6f4eb0703f3154bb3db1880180549187166001600160a01b031992831617905591517f036b6384b5eca791c62761152d0c79bb0604c104a5fb6f4eb0703f3154bb3db288018054918716919093161790915591517f036b6384b5eca791c62761152d0c79bb0604c104a5fb6f4eb0703f3154bb3db386015594517f036b6384b5eca791c62761152d0c79bb0604c104a5fb6f4eb0703f3154bb3db49094019390935560038801805460ff1916905590549154935192955016925086917fbd84de8648d5a34ed2f1ec8d7590fbba09a77253e443372a22d9df70c8c128909161074e91815260200190565b60405180910390a4505050565b600254604051636386c1c760e01b815233600482015260009182916001600160a01b0390911690636386c1c790602401600060405180830381865afa1580156107a8573d6000803e3d6000fd5b505050506040513d6000823e601f3d908101601f191682016040526107d09190810190612008565b945050505091508160000361081d5760405162461bcd60e51b8152602060048201526013602482015272155cd95c881b9bdd081c9959da5cdd195c9959606a1b6044820152606401610374565b806108765760405162461bcd60e51b8152602060048201526024808201527f55736572206d75737420626520766572696669656420746f206c6973742061736044820152637365747360e01b6064820152608401610374565b60005460405163518e2bdd60e01b8152600481018790526001600160a01b039091169063518e2bdd90602401602060405180830381865afa1580156108bf573d6000803e3d6000fd5b505050506040513d601f19601f820116820180604052508101906108e391906120d4565b6109265760405162461bcd60e51b8152602060048201526014602482015273105cdcd95d08191bd95cc81b9bdd08195e1a5cdd60621b6044820152606401610374565b6000546040516331a9108f60e11b81526004810187905233916001600160a01b031690636352211e90602401602060405180830381865afa15801561096f573d6000803e3d6000fd5b505050506040513d601f19601f8201168201806040525081019061099391906120ef565b6001600160a01b0316146109e95760405162461bcd60e51b815260206004820152601f60248201527f4f6e6c79206173736574206f776e65722063616e206c697374206173736574006044820152606401610374565b6000858152600360208190526040909120015460ff1615610a435760405162461bcd60e51b8152602060048201526014602482015273105cdcd95d08185b1c9958591e481b1a5cdd195960621b6044820152606401610374565b60008411610a935760405162461bcd60e51b815260206004820152601c60248201527f5072696365206d7573742062652067726561746572207468616e2030000000006044820152606401610374565b6040805160c081018252868152336020808301918252828401888152600160608501818152426080870190815260a087018b815260008e81526003968790529890982087518155955192860180546001600160a01b0319166001600160a01b0390941693909317909255915160028501559051918301805460ff19169215159290921790915551600482015591519091906005820190610b33908261215d565b505033600090815260046020818152604080842080546001810182559085529184209091018990559154915163095ea7b360e01b81523091810191909152602481018890526001600160a01b03909116915063095ea7b390604401600060405180830381600087803b158015610ba857600080fd5b505af1158015610bbc573d6000803e3d6000fd5b50506040518681523392508791507f476606c547e15093eee9f27111d27bfb5d4a751983dec28c9100eb7bb39b8db19060200160405180910390a35050505050565b6000818152600360208190526040909120015460ff16610c305760405162461bcd60e51b81526004016103749061208f565b6000818152600360205260409020600101546001600160a01b03163314610c995760405162461bcd60e51b815260206004820152601e60248201527f4f6e6c792073656c6c65722063616e2063616e63656c206c697374696e6700006044820152606401610374565b6000818152600360208190526040808320909101805460ff191690558154905163095ea7b360e01b81526004810192909252602482018390526001600160a01b03169063095ea7b390604401600060405180830381600087803b158015610cff57600080fd5b505af1158015610d13573d6000803e3d6000fd5b50506040513392508391507f8e25282255ab31897df2b0456bb993ac7f84d376861aefd84901d2d63a7428a290600090a350565b6001600160a01b038116600090815260046020908152604091829020805483518184028101840190945280845260609392830182828015610da757602002820191906000526020600020905b815481526020019060010190808311610d93575b50505050509050919050565b600080805b60008054906101000a90046001600160a01b03166001600160a01b0316636e07302b6040518163ffffffff1660e01b8152600401602060405180830381865afa158015610e09573d6000803e3d6000fd5b505050506040513d601f19601f82011682018060405250810190610e2d91906120bb565b811015610e755760036000610e43836001612232565b815260208101919091526040016000206003015460ff1615610e6d5781610e698161224b565b9250505b600101610db8565b50919050565b6005546060908190819081908190808810610ecd57505060408051600080825260208201818152828401828152606084018381526080850193845260a085019095529297509550909350909150611188565b6000610ed9888a612232565b905081811115610ee65750805b6000610ef28a83612264565b9050806001600160401b03811115610f0c57610f0c611c0f565b604051908082528060200260200182016040528015610f35578160200160208202803683370190505b509750806001600160401b03811115610f5057610f50611c0f565b604051908082528060200260200182016040528015610f79578160200160208202803683370190505b509650806001600160401b03811115610f9457610f94611c0f565b604051908082528060200260200182016040528015610fbd578160200160208202803683370190505b509550806001600160401b03811115610fd857610fd8611c0f565b604051908082528060200260200182016040528015611001578160200160208202803683370190505b509450806001600160401b0381111561101c5761101c611c0f565b604051908082528060200260200182016040528015611045578160200160208202803683370190505b50935060005b8181101561118357600061105f828d612232565b61106a600187612264565b6110749190612264565b905060006005828154811061108b5761108b612277565b9060005260206000209060050201905080600001548b84815181106110b2576110b2612277565b602090810291909101015260018101548a516001600160a01b03909116908b90859081106110e2576110e2612277565b6001600160a01b03928316602091820292909201015260028201548a519116908a908590811061111457611114612277565b60200260200101906001600160a01b031690816001600160a01b031681525050806003015488848151811061114b5761114b612277565b602002602001018181525050806004015487848151811061116e5761116e612277565b6020908102919091010152505060010161104b565b505050505b9295509295909350565b6000828152600360208190526040909120015460ff166111c45760405162461bcd60e51b81526004016103749061208f565b6000828152600360205260409020600101546001600160a01b0316331461122d5760405162461bcd60e51b815260206004820152601c60248201527f4f6e6c792073656c6c65722063616e206368616e6765207072696365000000006044820152606401610374565b6000811161127d5760405162461bcd60e51b815260206004820152601c60248201527f5072696365206d7573742062652067726561746572207468616e2030000000006044820152606401610374565b60008281526003602090815260409182902060020180549084905582518181529182018490529184917f2bce37c591c5b0d254c3056688b080a088f160fff82b6e79f456c8a20d5570f6910160405180910390a2505050565b60608060606000805b60008054906101000a90046001600160a01b03166001600160a01b0316636e07302b6040518163ffffffff1660e01b8152600401602060405180830381865afa158015611330573d6000803e3d6000fd5b505050506040513d601f19601f8201168201806040525081019061135491906120bb565b81101561139c576003600061136a836001612232565b815260208101919091526040016000206003015460ff161561139457816113908161224b565b9250505b6001016112df565b508086106113ce5750506040805160008082526020820181815282840191825260608301909352909350909150611686565b60006113da8688612232565b9050818111156113e75750805b60006113f38883612264565b9050806001600160401b0381111561140d5761140d611c0f565b604051908082528060200260200182016040528015611436578160200160208202803683370190505b509550806001600160401b0381111561145157611451611c0f565b60405190808252806020026020018201604052801561147a578160200160208202803683370190505b509450806001600160401b0381111561149557611495611c0f565b6040519080825280602002602001820160405280156114be578160200160208202803683370190505b50935060008060005b60008054906101000a90046001600160a01b03166001600160a01b0316636e07302b6040518163ffffffff1660e01b8152600401602060405180830381865afa158015611518573d6000803e3d6000fd5b505050506040513d601f19601f8201168201806040525081019061153c91906120bb565b8110801561154957508383105b1561167f576003600061155d836001612232565b815260208101919091526040016000206003015460ff161561166d578a821015801561158857508482105b1561165f57611598816001612232565b8984815181106115aa576115aa612277565b6020908102919091010152600360006115c4836001612232565b815260200190815260200160002060010160009054906101000a90046001600160a01b03168884815181106115fb576115fb612277565b6001600160a01b039092166020928302919091019091015260036000611622836001612232565b81526020019081526020016000206002015487848151811061164657611646612277565b60209081029190910101528261165b8161224b565b9350505b816116698161224b565b9250505b806116778161224b565b9150506114c7565b5050505050505b9250925092565b60608060608060606000805b60055481101561173b57896001600160a01b0316600582815481106116c0576116c0612277565b60009182526020909120600160059092020101546001600160a01b031614806117205750896001600160a01b03166005828154811061170157611701612277565b60009182526020909120600260059092020101546001600160a01b0316145b15611733578161172f8161224b565b9250505b600101611699565b5080881061178057505060408051600080825260208201818152828401828152606084018381526080850193845260a085019095529297509550909350909150611b67565b600061178c888a612232565b9050818111156117995750805b60006117a58a83612264565b9050806001600160401b038111156117bf576117bf611c0f565b6040519080825280602002602001820160405280156117e8578160200160208202803683370190505b509750806001600160401b0381111561180357611803611c0f565b60405190808252806020026020018201604052801561182c578160200160208202803683370190505b509650806001600160401b0381111561184757611847611c0f565b604051908082528060200260200182016040528015611870578160200160208202803683370190505b509550806001600160401b0381111561188b5761188b611c0f565b6040519080825280602002602001820160405280156118b4578160200160208202803683370190505b509450806001600160401b038111156118cf576118cf611c0f565b6040519080825280602002602001820160405280156118f8578160200160208202803683370190505b5060055490945060009081905b60008111801561191457508383105b15611b605760006005611928600184612264565b8154811061193857611938612277565b906000526020600020906005020190508e6001600160a01b03168160010160009054906101000a90046001600160a01b03166001600160a01b031614806119a757508e6001600160a01b03168160020160009054906101000a90046001600160a01b03166001600160a01b0316145b15611b4d578d83101580156119bb57508583105b15611b3f5780600001548c85815181106119d7576119d7612277565b60200260200101818152505080600301548a85815181106119fa576119fa612277565b6020026020010181815250508060040154898581518110611a1d57611a1d612277565b6020026020010181815250508e6001600160a01b03168160020160009054906101000a90046001600160a01b03166001600160a01b031603611ac75760018101548b516001600160a01b03909116908c9086908110611a7e57611a7e612277565b60200260200101906001600160a01b031690816001600160a01b0316815250506001888581518110611ab257611ab2612277565b91151560209283029190910190910152611b31565b60028101548b516001600160a01b03909116908c9086908110611aec57611aec612277565b60200260200101906001600160a01b031690816001600160a01b0316815250506000888581518110611b2057611b20612277565b911515602092830291909101909101525b83611b3b8161224b565b9450505b82611b498161224b565b9350505b5080611b588161228d565b915050611905565b5050505050505b939792965093509350565b600060208284031215611b8457600080fd5b5035919050565b60005b83811015611ba6578181015183820152602001611b8e565b50506000910152565b86815260018060a01b0386166020820152846040820152831515606082015282608082015260c060a0820152600082518060c0840152611bf68160e0850160208701611b8b565b601f01601f19169190910160e001979650505050505050565b634e487b7160e01b600052604160045260246000fd5b604051601f8201601f191681016001600160401b0381118282101715611c4d57611c4d611c0f565b604052919050565b60006001600160401b03821115611c6e57611c6e611c0f565b50601f01601f191660200190565b600080600060608486031215611c9157600080fd5b833592506020840135915060408401356001600160401b03811115611cb557600080fd5b8401601f81018613611cc657600080fd5b8035611cd9611cd482611c55565b611c25565b818152876020838501011115611cee57600080fd5b816020840160208301376000602083830101528093505050509250925092565b6001600160a01b0381168114611d2357600080fd5b50565b600060208284031215611d3857600080fd5b8135611d4381611d0e565b9392505050565b60008151808452602080850194506020840160005b83811015611d7b57815187529582019590820190600101611d5f565b509495945050505050565b602081526000611d436020830184611d4a565b60008060408385031215611dac57600080fd5b50508035926020909101359150565b60008151808452602080850194506020840160005b83811015611d7b5781516001600160a01b031687529582019590820190600101611dd0565b60a081526000611e0860a0830188611d4a565b8281036020840152611e1a8188611dbb565b90508281036040840152611e2e8187611dbb565b90508281036060840152611e428186611d4a565b90508281036080840152611e568185611d4a565b98975050505050505050565b606081526000611e756060830186611d4a565b8281036020840152611e878186611dbb565b90508281036040840152611e9b8185611d4a565b9695505050505050565b600080600060608486031215611eba57600080fd5b8335611ec581611d0e565b95602085013595506040909401359392505050565b60a081526000611eed60a0830188611d4a565b60208382036020850152611f018289611dbb565b91508382036040850152611f158288611d4a565b91508382036060850152611f298287611d4a565b84810360808601528551808252602080880194509091019060005b81811015611f62578451151583529383019391830191600101611f44565b50909a9950505050505050505050565b600181811c90821680611f8657607f821691505b602082108103610e7557634e487b7160e01b600052602260045260246000fd5b600082601f830112611fb757600080fd5b8151611fc5611cd482611c55565b818152846020838601011115611fda57600080fd5b611feb826020830160208701611b8b565b949350505050565b8051801515811461200357600080fd5b919050565b600080600080600060a0868803121561202057600080fd5b8551945060208601516001600160401b038082111561203e57600080fd5b61204a89838a01611fa6565b9550604088015191508082111561206057600080fd5b5061206d88828901611fa6565b9350506060860151915061208360808701611ff3565b90509295509295909350565b6020808252601290820152714c697374696e67206e6f742061637469766560701b604082015260600190565b6000602082840312156120cd57600080fd5b5051919050565b6000602082840312156120e657600080fd5b611d4382611ff3565b60006020828403121561210157600080fd5b8151611d4381611d0e565b601f821115612158576000816000526020600020601f850160051c810160208610156121355750805b601f850160051c820191505b8181101561215457828155600101612141565b5050505b505050565b81516001600160401b0381111561217657612176611c0f565b61218a816121848454611f72565b8461210c565b602080601f8311600181146121bf57600084156121a75750858301515b600019600386901b1c1916600185901b178555612154565b600085815260208120601f198616915b828110156121ee578886015182559484019460019091019084016121cf565b508582101561220c5787850151600019600388901b60f8161c191681555b5050505050600190811b01905550565b634e487b7160e01b600052601160045260246000fd5b808201808211156122455761224561221c565b92915050565b60006001820161225d5761225d61221c565b5060010190565b818103818111156122455761224561221c565b634e487b7160e01b600052603260045260246000fd5b60008161229c5761229c61221c565b50600019019056fea26469706673582212202165e6662449cccbb45e84fa2ed1b515ca8a4ec00f6c2c009a1f84e7787eabea64736f6c63430008160033",
  "linkReferences": {},
  "deployedLinkReferences": {}
}