{
  "_format": "hh-sol-artifact-1",
  "contractName": "CultureBridgeIdentity",
  "sourceName": "contracts/CultureBridgeIdentity.sol",
  "abi": [
    {
      "anonymous": false,
      "inputs": [
        {
          "indexed": true,
          "internalType": "address",
          "name": "user",
          "type": "address"
        },
        {
          "indexed": false,
          "internalType": "uint256",
          "name": "newCount",
          "type": "uint256"
        }
      ],
      "name": "ContributionAdded",
      "type": "event"
    },
    {
      "anonymous": false,
      "inputs": [
        {
          "indexed": true,
          "internalType": "address",
          "name": "user",
          "type": "address"
        },
        {
          "indexed": false,
          "internalType": "uint256",
          "name": "id",
          "type": "uint256"
        },
        {
          "indexed": false,
          "internalType": "string",
          "name": "username",
          "type": "string"
        }
      ],
      "name": "IdentityCreated",
      "type": "event"
    },
    {
      "anonymous": false,
      "inputs": [
        {
          "indexed": true,
          "internalType": "address",
          "name": "previousOwner",
          "type": "address"
        },
        {
          "indexed": true,
          "internalType": "address",
          "name": "newOwner",
          "type": "address"
        }
      ],
      "name": "OwnershipTransferred",
      "type": "event"
    },
    {
      "anonymous": false,
      "inputs": [
        {
          "indexed": true,
          "internalType": "address",
          "name": "user",
          "type": "address"
        },
        {
          "indexed": false,
          "internalType": "uint256",
          "name": "newScore",
          "type": "uint256"
        }
      ],
      "name": "ReputationUpdated",
      "type": "event"
    },
    {
      "inputs": [
        {
          "internalType": "address",
          "name": "user",
          "type": "address"
        }
      ],
      "name": "addContribution",
      "outputs": [],
      "stateMutability": "nonpayable",
      "type": "function"
    },
    {
      "inputs": [
        {
          "internalType": "address",
          "name": "user",
          "type": "address"
        },
        {
          "internalType": "string",
          "name": "username",
          "type": "string"
        }
      ],
      "name": "createIdentity",
      "outputs": [],
      "stateMutability": "nonpayable",
      "type": "function"
    },
    {
      "inputs": [
        {
          "internalType": "string",
          "name": "username",
          "type": "string"
        }
      ],
      "name": "getAddressByUsername",
      "outputs": [
        {
          "internalType": "address",
          "name": "",
          "type": "address"
        }
      ],
      "stateMutability": "view",
      "type": "function"
    },
    {
      "inputs": [
        {
          "internalType": "address",
          "name": "user",
          "type": "address"
        }
      ],
      "name": "getIdentity",
      "outputs": [
        {
          "internalType": "uint256",
          "name": "id",
          "type": "uint256"
        },
        {
          "internalType": "string",
          "name": "username",
          "type": "string"
        },
        {
          "internalType": "uint256",
          "name": "reputationScore",
          "type": "uint256"
        },
        {
          "internalType": "uint256",
          "name": "contributionCount",
          "type": "uint256"
        },
        {
          "internalType": "uint256",
          "name": "createdAt",
          "type": "uint256"
        },
        {
          "internalType": "uint256",
          "name": "updatedAt",
          "type": "uint256"
        }
      ],
      "stateMutability": "view",
      "type": "function"
    },
    {
      "inputs": [],
      "name": "owner",
      "outputs": [
        {
          "internalType": "address",
          "name": "",
          "type": "address"
        }
      ],
      "stateMutability": "view",
      "type": "function"
    },
    {
      "inputs": [],
      "name": "renounceOwnership",
      "outputs": [],
      "stateMutability": "nonpayable",
      "type": "function"
    },
    {
      "inputs": [
        {
          "internalType": "address",
          "name": "newOwner",
          "type": "address"
        }
      ],
      "name": "transferOwnership",
      "outputs": [],
      "stateMutability": "nonpayable",
      "type": "function"
    },
    {
      "inputs": [
        {
          "internalType": "address",
          "name": "user",
          "type": "address"
        },
        {
          "internalType": "uint256",
          "name": "newScore",
          "type": "uint256"
        }
      ],
      "name": "updateReputation",
      "outputs": [],
      "stateMutability": "nonpayable",
      "type": "function"
    }
  ],
  "bytecode": "0x608060405234801561001057600080fd5b5061002d61002261003260201b60201c565b61003a60201b60201c565b6100fe565b600033905090565b60008060009054906101000a900473ffffffffffffffffffffffffffffffffffffffff169050816000806101000a81548173ffffffffffffffffffffffffffffffffffffffff021916908373ffffffffffffffffffffffffffffffffffffffff1602179055508173ffffffffffffffffffffffffffffffffffffffff168173ffffffffffffffffffffffffffffffffffffffff167f8be0079c531659141344cd1fd0a4f28419497f9722a3daafe3b4186f6b6457e060405160405180910390a35050565b61166b8061010d6000396000f3fe608060405234801561001057600080fd5b50600436106100885760003560e01c80638da5cb5b1161005b5780638da5cb5b146101185780638e952bfe14610136578063f2fde38b14610152578063f5c91a081461016e57610088565b80632840944f1461008d5780632fea7b81146100a95780636322961d146100de578063715018a61461010e575b600080fd5b6100a760048036038101906100a29190610c66565b61018a565b005b6100c360048036038101906100be9190610c66565b61034b565b6040516100d596959493929190610d3c565b60405180910390f35b6100f860048036038101906100f39190610ed9565b6104f1565b6040516101059190610f31565b60405180910390f35b610116610539565b005b61012061054d565b60405161012d9190610f31565b60405180910390f35b610150600480360381019061014b9190610f4c565b610576565b005b61016c60048036038101906101679190610c66565b610896565b005b61018860048036038101906101839190610fd4565b610919565b005b610192610a86565b6000600260008373ffffffffffffffffffffffffffffffffffffffff1673ffffffffffffffffffffffffffffffffffffffff1681526020019081526020016000206000015403610217576040517f08c379a000000000000000000000000000000000000000000000000000000000815260040161020e90611060565b60405180910390fd5b6001600260008373ffffffffffffffffffffffffffffffffffffffff1673ffffffffffffffffffffffffffffffffffffffff168152602001908152602001600020600401600082825461026a91906110af565b9250508190555042600260008373ffffffffffffffffffffffffffffffffffffffff1673ffffffffffffffffffffffffffffffffffffffff168152602001908152602001600020600601819055508073ffffffffffffffffffffffffffffffffffffffff167fd0b96b298aea05811b09b9215e36aa7083859763d1ec4cdc17604d0005d59575600260008473ffffffffffffffffffffffffffffffffffffffff1673ffffffffffffffffffffffffffffffffffffffff1681526020019081526020016000206004015460405161034091906110e3565b60405180910390a250565b600060606000806000806000600260008973ffffffffffffffffffffffffffffffffffffffff1673ffffffffffffffffffffffffffffffffffffffff1681526020019081526020016000206040518060e0016040529081600082015481526020016001820160009054906101000a900473ffffffffffffffffffffffffffffffffffffffff1673ffffffffffffffffffffffffffffffffffffffff1673ffffffffffffffffffffffffffffffffffffffff1681526020016002820180546104119061112d565b80601f016020809104026020016040519081016040528092919081815260200182805461043d9061112d565b801561048a5780601f1061045f5761010080835404028352916020019161048a565b820191906000526020600020905b81548152906001019060200180831161046d57829003601f168201915b50505050508152602001600382015481526020016004820154815260200160058201548152602001600682015481525050905080600001518160400151826060015183608001518460a001518560c001519650965096509650965096505091939550919395565b6000600382604051610503919061119a565b908152602001604051809103902060009054906101000a900473ffffffffffffffffffffffffffffffffffffffff169050919050565b610541610a86565b61054b6000610b04565b565b60008060009054906101000a900473ffffffffffffffffffffffffffffffffffffffff16905090565b61057e610a86565b6000600260008473ffffffffffffffffffffffffffffffffffffffff1673ffffffffffffffffffffffffffffffffffffffff1681526020019081526020016000206000015414610603576040517f08c379a00000000000000000000000000000000000000000000000000000000081526004016105fa906111fd565b60405180910390fd5b600073ffffffffffffffffffffffffffffffffffffffff1660038260405161062b919061119a565b908152602001604051809103902060009054906101000a900473ffffffffffffffffffffffffffffffffffffffff1673ffffffffffffffffffffffffffffffffffffffff16146106b0576040517f08c379a00000000000000000000000000000000000000000000000000000000081526004016106a790611269565b60405180910390fd5b6106ba6001610bc8565b60006106c66001610bde565b90506040518060e001604052808281526020018473ffffffffffffffffffffffffffffffffffffffff168152602001838152602001600081526020016000815260200142815260200142815250600260008573ffffffffffffffffffffffffffffffffffffffff1673ffffffffffffffffffffffffffffffffffffffff1681526020019081526020016000206000820151816000015560208201518160010160006101000a81548173ffffffffffffffffffffffffffffffffffffffff021916908373ffffffffffffffffffffffffffffffffffffffff16021790555060408201518160020190816107b89190611435565b50606082015181600301556080820151816004015560a0820151816005015560c08201518160060155905050826003836040516107f5919061119a565b908152602001604051809103902060006101000a81548173ffffffffffffffffffffffffffffffffffffffff021916908373ffffffffffffffffffffffffffffffffffffffff1602179055508273ffffffffffffffffffffffffffffffffffffffff167f296bc27d402fcafd917ad0c965398f24239b22940ed5da6f784f4bd4751a228a8284604051610889929190611507565b60405180910390a2505050565b61089e610a86565b600073ffffffffffffffffffffffffffffffffffffffff168173ffffffffffffffffffffffffffffffffffffffff160361090d576040517f08c379a0000000000000000000000000000000000000000000000000000000008152600401610904906115a9565b60405180910390fd5b61091681610b04565b50565b610921610a86565b6000600260008473ffffffffffffffffffffffffffffffffffffffff1673ffffffffffffffffffffffffffffffffffffffff16815260200190815260200160002060000154036109a6576040517f08c379a000000000000000000000000000000000000000000000000000000000815260040161099d90611060565b60405180910390fd5b80600260008473ffffffffffffffffffffffffffffffffffffffff1673ffffffffffffffffffffffffffffffffffffffff1681526020019081526020016000206003018190555042600260008473ffffffffffffffffffffffffffffffffffffffff1673ffffffffffffffffffffffffffffffffffffffff168152602001908152602001600020600601819055508173ffffffffffffffffffffffffffffffffffffffff167ffc577563f1b9a0461e24abef1e1fcc0d33d3d881f20b5df6dda59de4aae2c82182604051610a7a91906110e3565b60405180910390a25050565b610a8e610bec565b73ffffffffffffffffffffffffffffffffffffffff16610aac61054d565b73ffffffffffffffffffffffffffffffffffffffff1614610b02576040517f08c379a0000000000000000000000000000000000000000000000000000000008152600401610af990611615565b60405180910390fd5b565b60008060009054906101000a900473ffffffffffffffffffffffffffffffffffffffff169050816000806101000a81548173ffffffffffffffffffffffffffffffffffffffff021916908373ffffffffffffffffffffffffffffffffffffffff1602179055508173ffffffffffffffffffffffffffffffffffffffff168173ffffffffffffffffffffffffffffffffffffffff167f8be0079c531659141344cd1fd0a4f28419497f9722a3daafe3b4186f6b6457e060405160405180910390a35050565b6001816000016000828254019250508190555050565b600081600001549050919050565b600033905090565b6000604051905090565b600080fd5b600080fd5b600073ffffffffffffffffffffffffffffffffffffffff82169050919050565b6000610c3382610c08565b9050919050565b610c4381610c28565b8114610c4e57600080fd5b50565b600081359050610c6081610c3a565b92915050565b600060208284031215610c7c57610c7b610bfe565b5b6000610c8a84828501610c51565b91505092915050565b6000819050919050565b610ca681610c93565b82525050565b600081519050919050565b600082825260208201905092915050565b60005b83811015610ce6578082015181840152602081019050610ccb565b60008484015250505050565b6000601f19601f8301169050919050565b6000610d0e82610cac565b610d188185610cb7565b9350610d28818560208601610cc8565b610d3181610cf2565b840191505092915050565b600060c082019050610d516000830189610c9d565b8181036020830152610d638188610d03565b9050610d726040830187610c9d565b610d7f6060830186610c9d565b610d8c6080830185610c9d565b610d9960a0830184610c9d565b979650505050505050565b600080fd5b600080fd5b7f4e487b7100000000000000000000000000000000000000000000000000000000600052604160045260246000fd5b610de682610cf2565b810181811067ffffffffffffffff82111715610e0557610e04610dae565b5b80604052505050565b6000610e18610bf4565b9050610e248282610ddd565b919050565b600067ffffffffffffffff821115610e4457610e43610dae565b5b610e4d82610cf2565b9050602081019050919050565b82818337600083830152505050565b6000610e7c610e7784610e29565b610e0e565b905082815260208101848484011115610e9857610e97610da9565b5b610ea3848285610e5a565b509392505050565b600082601f830112610ec057610ebf610da4565b5b8135610ed0848260208601610e69565b91505092915050565b600060208284031215610eef57610eee610bfe565b5b600082013567ffffffffffffffff811115610f0d57610f0c610c03565b5b610f1984828501610eab565b91505092915050565b610f2b81610c28565b82525050565b6000602082019050610f466000830184610f22565b92915050565b60008060408385031215610f6357610f62610bfe565b5b6000610f7185828601610c51565b925050602083013567ffffffffffffffff811115610f9257610f91610c03565b5b610f9e85828601610eab565b9150509250929050565b610fb181610c93565b8114610fbc57600080fd5b50565b600081359050610fce81610fa8565b92915050565b60008060408385031215610feb57610fea610bfe565b5b6000610ff985828601610c51565b925050602061100a85828601610fbf565b9150509250929050565b7f4964656e7469747920646f6573206e6f74206578697374000000000000000000600082015250565b600061104a601783610cb7565b915061105582611014565b602082019050919050565b600060208201905081810360008301526110798161103d565b9050919050565b7f4e487b7100000000000000000000000000000000000000000000000000000000600052601160045260246000fd5b60006110ba82610c93565b91506110c583610c93565b92508282019050808211156110dd576110dc611080565b5b92915050565b60006020820190506110f86000830184610c9d565b92915050565b7f4e487b7100000000000000000000000000000000000000000000000000000000600052602260045260246000fd5b6000600282049050600182168061114557607f821691505b602082108103611158576111576110fe565b5b50919050565b600081905092915050565b600061117482610cac565b61117e818561115e565b935061118e818560208601610cc8565b80840191505092915050565b60006111a68284611169565b915081905092915050565b7f4964656e7469747920616c726561647920657869737473000000000000000000600082015250565b60006111e7601783610cb7565b91506111f2826111b1565b602082019050919050565b60006020820190508181036000830152611216816111da565b9050919050565b7f557365726e616d6520616c72656164792074616b656e00000000000000000000600082015250565b6000611253601683610cb7565b915061125e8261121d565b602082019050919050565b6000602082019050818103600083015261128281611246565b9050919050565b60008190508160005260206000209050919050565b60006020601f8301049050919050565b600082821b905092915050565b6000600883026112eb7fffffffffffffffffffffffffffffffffffffffffffffffffffffffffffffffff826112ae565b6112f586836112ae565b95508019841693508086168417925050509392505050565b6000819050919050565b600061133261132d61132884610c93565b61130d565b610c93565b9050919050565b6000819050919050565b61134c83611317565b61136061135882611339565b8484546112bb565b825550505050565b600090565b611375611368565b611380818484611343565b505050565b5b818110156113a45761139960008261136d565b600181019050611386565b5050565b601f8211156113e9576113ba81611289565b6113c38461129e565b810160208510156113d2578190505b6113e66113de8561129e565b830182611385565b50505b505050565b600082821c905092915050565b600061140c600019846008026113ee565b1980831691505092915050565b600061142583836113fb565b9150826002028217905092915050565b61143e82610cac565b67ffffffffffffffff81111561145757611456610dae565b5b611461825461112d565b61146c8282856113a8565b600060209050601f83116001811461149f576000841561148d578287015190505b6114978582611419565b8655506114ff565b601f1984166114ad86611289565b60005b828110156114d5578489015182556001820191506020850194506020810190506114b0565b868310156114f257848901516114ee601f8916826113fb565b8355505b6001600288020188555050505b505050505050565b600060408201905061151c6000830185610c9d565b818103602083015261152e8184610d03565b90509392505050565b7f4f776e61626c653a206e6577206f776e657220697320746865207a65726f206160008201527f6464726573730000000000000000000000000000000000000000000000000000602082015250565b6000611593602683610cb7565b915061159e82611537565b604082019050919050565b600060208201905081810360008301526115c281611586565b9050919050565b7f4f776e61626c653a2063616c6c6572206973206e6f7420746865206f776e6572600082015250565b60006115ff602083610cb7565b915061160a826115c9565b602082019050919050565b6000602082019050818103600083015261162e816115f2565b905091905056fea264697066735822122039b93c3845a74bbd2f56820483fd849bf3077981fde81350fece75837ad0107764736f6c63430008110033",
  "linkReferences": {},
  "deployedLinkReferences": {}
}