{
  "_format": "hh-sol-artifact-1",
  "contractName": "CultureBridgeExchange",
  "sourceName": "blockchain/contracts/CultureBridgeExchange.sol",
  "abi": [
    {
      "inputs": [
        {
          "internalType": "address",
          "name": "initialOwner",
          "type": "address"
        },
        {
          "internalType": "address",
          "name": "_identityContractAddress",
          "type": "address"
        },
        {
          "internalType": "address",
          "name": "_assetContractAddress",
          "type": "address"
        }
      ],
      "stateMutability": "nonpayable",
      "type": "constructor"
    },
    {
      "inputs": [
        {
          "internalType": "address",
          "name": "owner",
          "type": "address"
        }
      ],
      "name": "OwnableInvalidOwner",
      "type": "error"
    },
    {
      "inputs": [
        {
          "internalType": "address",
          "name": "account",
          "type": "address"
        }
      ],
      "name": "OwnableUnauthorizedAccount",
      "type": "error"
    },
    {
      "anonymous": false,
      "inputs": [
        {
          "indexed": true,
          "internalType": "uint256",
          "name": "exchangeId",
          "type": "uint256"
        },
        {
          "indexed": true,
          "internalType": "uint256",
          "name": "assetId",
          "type": "uint256"
        }
      ],
      "name": "AssetAddedToExchange",
      "type": "event"
    },
    {
      "anonymous": false,
      "inputs": [
        {
          "indexed": true,
          "internalType": "uint256",
          "name": "exchangeId",
          "type": "uint256"
        },
        {
          "indexed": true,
          "internalType": "address",
          "name": "organizer",
          "type": "address"
        },
        {
          "indexed": false,
          "internalType": "string",
          "name": "title",
          "type": "string"
        }
      ],
      "name": "ExchangeCreated",
      "type": "event"
    },
    {
      "anonymous": false,
      "inputs": [
        {
          "indexed": true,
          "internalType": "uint256",
          "name": "exchangeId",
          "type": "uint256"
        },
        {
          "indexed": false,
          "internalType": "bool",
          "name": "isActive",
          "type": "bool"
        }
      ],
      "name": "ExchangeStatusChanged",
      "type": "event"
    },
    {
      "anonymous": false,
      "inputs": [
        {
          "indexed": true,
          "internalType": "uint256",
          "name": "exchangeId",
          "type": "uint256"
        }
      ],
      "name": "ExchangeUpdated",
      "type": "event"
    },
    {
      "anonymous": false,
      "inputs": [
        {
          "indexed": true,
          "internalType": "address",
          "name": "previousOwner",
          "type": "address"
        },
        {
          "indexed": true,
          "internalType": "address",
          "name": "newOwner",
          "type": "address"
        }
      ],
      "name": "OwnershipTransferred",
      "type": "event"
    },
    {
      "anonymous": false,
      "inputs": [
        {
          "indexed": true,
          "internalType": "uint256",
          "name": "exchangeId",
          "type": "uint256"
        },
        {
          "indexed": true,
          "internalType": "address",
          "name": "participant",
          "type": "address"
        }
      ],
      "name": "ParticipantJoined",
      "type": "event"
    },
    {
      "inputs": [
        {
          "internalType": "uint256",
          "name": "_exchangeId",
          "type": "uint256"
        },
        {
          "internalType": "uint256",
          "name": "_assetId",
          "type": "uint256"
        }
      ],
      "name": "addAssetToExchange",
      "outputs": [],
      "stateMutability": "nonpayable",
      "type": "function"
    },
    {
      "inputs": [
        {
          "internalType": "string",
          "name": "_title",
          "type": "string"
        },
        {
          "internalType": "string",
          "name": "_description",
          "type": "string"
        },
        {
          "internalType": "uint256",
          "name": "_startTime",
          "type": "uint256"
        },
        {
          "internalType": "uint256",
          "name": "_endTime",
          "type": "uint256"
        },
        {
          "internalType": "string",
          "name": "_category",
          "type": "string"
        },
        {
          "internalType": "string[]",
          "name": "_tags",
          "type": "string[]"
        }
      ],
      "name": "createExchange",
      "outputs": [
        {
          "internalType": "uint256",
          "name": "",
          "type": "uint256"
        }
      ],
      "stateMutability": "nonpayable",
      "type": "function"
    },
    {
      "inputs": [],
      "name": "getActiveExchanges",
      "outputs": [
        {
          "internalType": "uint256[]",
          "name": "",
          "type": "uint256[]"
        }
      ],
      "stateMutability": "view",
      "type": "function"
    },
    {
      "inputs": [
        {
          "internalType": "uint256",
          "name": "_exchangeId",
          "type": "uint256"
        }
      ],
      "name": "getExchangeAssets",
      "outputs": [
        {
          "internalType": "uint256[]",
          "name": "",
          "type": "uint256[]"
        }
      ],
      "stateMutability": "view",
      "type": "function"
    },
    {
      "inputs": [
        {
          "internalType": "uint256",
          "name": "_exchangeId",
          "type": "uint256"
        }
      ],
      "name": "getExchangeInfo",
      "outputs": [
        {
          "internalType": "uint256",
          "name": "id",
          "type": "uint256"
        },
        {
          "internalType": "string",
          "name": "title",
          "type": "string"
        },
        {
          "internalType": "string",
          "name": "description",
          "type": "string"
        },
        {
          "internalType": "address",
          "name": "organizer",
          "type": "address"
        },
        {
          "internalType": "uint256",
          "name": "startTime",
          "type": "uint256"
        },
        {
          "internalType": "uint256",
          "name": "endTime",
          "type": "uint256"
        },
        {
          "internalType": "bool",
          "name": "isActive",
          "type": "bool"
        },
        {
          "internalType": "uint256",
          "name": "participantCount",
          "type": "uint256"
        },
        {
          "internalType": "uint256",
          "name": "assetCount",
          "type": "uint256"
        },
        {
          "internalType": "string",
          "name": "category",
          "type": "string"
        }
      ],
      "stateMutability": "view",
      "type": "function"
    },
    {
      "inputs": [
        {
          "internalType": "uint256",
          "name": "_exchangeId",
          "type": "uint256"
        }
      ],
      "name": "getExchangeParticipants",
      "outputs": [
        {
          "internalType": "address[]",
          "name": "",
          "type": "address[]"
        }
      ],
      "stateMutability": "view",
      "type": "function"
    },
    {
      "inputs": [
        {
          "internalType": "uint256",
          "name": "_exchangeId",
          "type": "uint256"
        }
      ],
      "name": "getExchangeTags",
      "outputs": [
        {
          "internalType": "string[]",
          "name": "",
          "type": "string[]"
        }
      ],
      "stateMutability": "view",
      "type": "function"
    },
    {
      "inputs": [
        {
          "internalType": "string",
          "name": "_category",
          "type": "string"
        }
      ],
      "name": "getExchangesByCategory",
      "outputs": [
        {
          "internalType": "uint256[]",
          "name": "",
          "type": "uint256[]"
        }
      ],
      "stateMutability": "view",
      "type": "function"
    },
    {
      "inputs": [
        {
          "internalType": "string",
          "name": "_tag",
          "type": "string"
        }
      ],
      "name": "getExchangesByTag",
      "outputs": [
        {
          "internalType": "uint256[]",
          "name": "",
          "type": "uint256[]"
        }
      ],
      "stateMutability": "view",
      "type": "function"
    },
    {
      "inputs": [
        {
          "internalType": "address",
          "name": "_user",
          "type": "address"
        }
      ],
      "name": "getExchangesByUser",
      "outputs": [
        {
          "internalType": "uint256[]",
          "name": "",
          "type": "uint256[]"
        }
      ],
      "stateMutability": "view",
      "type": "function"
    },
    {
      "inputs": [],
      "name": "getTotalExchanges",
      "outputs": [
        {
          "internalType": "uint256",
          "name": "",
          "type": "uint256"
        }
      ],
      "stateMutability": "view",
      "type": "function"
    },
    {
      "inputs": [
        {
          "internalType": "uint256",
          "name": "_exchangeId",
          "type": "uint256"
        }
      ],
      "name": "joinExchange",
      "outputs": [],
      "stateMutability": "nonpayable",
      "type": "function"
    },
    {
      "inputs": [],
      "name": "owner",
      "outputs": [
        {
          "internalType": "address",
          "name": "",
          "type": "address"
        }
      ],
      "stateMutability": "view",
      "type": "function"
    },
    {
      "inputs": [],
      "name": "renounceOwnership",
      "outputs": [],
      "stateMutability": "nonpayable",
      "type": "function"
    },
    {
      "inputs": [
        {
          "internalType": "uint256",
          "name": "_exchangeId",
          "type": "uint256"
        },
        {
          "internalType": "bool",
          "name": "_isActive",
          "type": "bool"
        }
      ],
      "name": "setExchangeStatus",
      "outputs": [],
      "stateMutability": "nonpayable",
      "type": "function"
    },
    {
      "inputs": [
        {
          "internalType": "address",
          "name": "newOwner",
          "type": "address"
        }
      ],
      "name": "transferOwnership",
      "outputs": [],
      "stateMutability": "nonpayable",
      "type": "function"
    },
    {
      "inputs": [
        {
          "internalType": "uint256",
          "name": "_exchangeId",
          "type": "uint256"
        },
        {
          "internalType": "string",
          "name": "_title",
          "type": "string"
        },
        {
          "internalType": "string",
          "name": "_description",
          "type": "string"
        },
        {
          "internalType": "uint256",
          "name": "_startTime",
          "type": "uint256"
        },
        {
          "internalType": "uint256",
          "name": "_endTime",
          "type": "uint256"
        },
        {
          "internalType": "string",
          "name": "_category",
          "type": "string"
        },
        {
          "internalType": "string[]",
          "name": "_tags",
          "type": "string[]"
        }
      ],
      "name": "updateExchange",
      "outputs": [],
      "stateMutability": "nonpayable",
      "type": "function"
    }
  ],
  "bytecode": "0x60806040523480156200001157600080fd5b506040516200273538038062002735833981016040819052620000349162000110565b826001600160a01b0381166200006457604051631e4fbdf760e01b81526000600482015260240160405180910390fd5b6200006f81620000a3565b50600280546001600160a01b039384166001600160a01b03199182161790915560038054929093169116179055506200015a565b600080546001600160a01b038381166001600160a01b0319831681178455604051919092169283917f8be0079c531659141344cd1fd0a4f28419497f9722a3daafe3b4186f6b6457e09190a35050565b80516001600160a01b03811681146200010b57600080fd5b919050565b6000806000606084860312156200012657600080fd5b6200013184620000f3565b92506200014160208501620000f3565b91506200015160408501620000f3565b90509250925092565b6125cb806200016a6000396000f3fe608060405234801561001057600080fd5b506004361061010b5760003560e01c8063715018a6116100a2578063ace1693911610071578063ace1693914610247578063ca848e551461025a578063d6ab7b9014610262578063f2fde38b1461026a578063fea798961461027d57600080fd5b8063715018a6146101fe5780638bfb57e6146102065780638da5cb5b146102195780639fa317c31461023457600080fd5b806349837e74116100de57806349837e74146101815780634fb7ad83146101a1578063605c1d06146101ca578063712ddcbd146101dd57600080fd5b8063055654fb146101105780631a325821146101255780631b7994451461014e5780633defbc341461016e575b600080fd5b61012361011e366004611c1b565b610290565b005b610138610133366004611d10565b6103bf565b6040516101459190611d4d565b60405180910390f35b61016161015c366004611d91565b61042f565b6040516101459190611daa565b61012361017c366004611deb565b6104ca565b61019461018f366004611d91565b6108b1565b6040516101459190611e5d565b6101b46101af366004611d91565b6109c3565b6040516101459a99989796959493929190611ec1565b6101386101d8366004611d10565b610c26565b6101f06101eb366004611fe3565b610c38565b604051908152602001610145565b610123610fc3565b6101386102143660046120b7565b610fd7565b6000546040516001600160a01b039091168152602001610145565b6101236102423660046120db565b611041565b610123610255366004611d91565b6115f6565b6001546101f0565b6101386118cb565b6101236102783660046120b7565b611a05565b61013861028b366004611d91565b611a43565b60008281526004602052604081205490036102c65760405162461bcd60e51b81526004016102bd906121a5565b60405180910390fd5b6000828152600460205260409020600301546001600160a01b03163314806103075750336102fc6000546001600160a01b031690565b6001600160a01b0316145b6103655760405162461bcd60e51b815260206004820152602960248201527f4f6e6c79206f7267616e697a6572206f72206f776e65722063616e206368616e60448201526867652073746174757360b81b60648201526084016102bd565b600082815260046020908152604091829020600801805460ff1916841515908117909155915191825283917f049e2a40e1455acdf4c54892d836a34e8afd3efb269150ebbb6e354ae630bc81910160405180910390a25050565b60606005826040516103d191906121dc565b908152604080519182900360209081018320805480830285018301909352828452919083018282801561042357602002820191906000526020600020905b81548152602001906001019080831161040f575b50505050509050919050565b6000818152600460205260408120546060910361045e5760405162461bcd60e51b81526004016102bd906121a5565b6000828152600460209081526040918290206005018054835181840281018401909452808452909183018282801561042357602002820191906000526020600020905b81546001600160a01b031681526001909101906020018083116104a15750505050509050919050565b60008281526004602052604081205490036104f75760405162461bcd60e51b81526004016102bd906121a5565b60008281526004602052604090206008015460ff166105515760405162461bcd60e51b815260206004820152601660248201527545786368616e6765206973206e6f742061637469766560501b60448201526064016102bd565b60035460405163518e2bdd60e01b8152600481018390526001600160a01b039091169063518e2bdd90602401602060405180830381865afa15801561059a573d6000803e3d6000fd5b505050506040513d601f19601f820116820180604052508101906105be91906121f8565b6106015760405162461bcd60e51b8152602060048201526014602482015273105cdcd95d08191bd95cc81b9bdd08195e1a5cdd60621b60448201526064016102bd565b6003546040516331a9108f60e11b81526004810183905233916001600160a01b031690636352211e90602401602060405180830381865afa15801561064a573d6000803e3d6000fd5b505050506040513d601f19601f8201168201806040525081019061066e9190612215565b6001600160a01b0316146106d75760405162461bcd60e51b815260206004820152602a60248201527f4f6e6c79206173736574206f776e65722063616e2061646420617373657420746044820152696f2065786368616e676560b01b60648201526084016102bd565b6000805b60008481526004602052604090206005015481101561074557600084815260046020526040902060050180543391908390811061071a5761071a612232565b6000918252602090912001546001600160a01b03160361073d5760019150610745565b6001016106db565b50806107a65760405162461bcd60e51b815260206004820152602a60248201527f55736572206d7573742062652061207061727469636970616e74206f66207468604482015269652065786368616e676560b01b60648201526084016102bd565b6000805b6000858152600460208190526040909120015481101561080d57836004600087815260200190815260200160002060040182815481106107ec576107ec612232565b906000526020600020015403610805576001915061080d565b6001016107aa565b50801561085c5760405162461bcd60e51b815260206004820152601f60248201527f417373657420616c726561647920616464656420746f2065786368616e67650060448201526064016102bd565b600084815260046020818152604080842090920180546001810182559084529083200185905551849186917fcaf49a5d606dd6fc17ff9889bc0bb8c9f81e7cd7e18423910baa275cb07717469190a350505050565b600081815260046020526040812054606091036108e05760405162461bcd60e51b81526004016102bd906121a5565b6000828152600460209081526040808320600a0180548251818502810185019093528083529193909284015b828210156109b857838290600052602060002001805461092b90612248565b80601f016020809104026020016040519081016040528092919081815260200182805461095790612248565b80156109a45780601f10610979576101008083540402835291602001916109a4565b820191906000526020600020905b81548152906001019060200180831161098757829003601f168201915b50505050508152602001906001019061090c565b505050509050919050565b60006060806000806000806000806060600460008c815260200190815260200160002060000154600003610a095760405162461bcd60e51b81526004016102bd906121a5565b60008b81526004602081905260409091208054600382015460068301546007840154600885015460058601549686015460018701805497989697909660028a01966001600160a01b031695949360ff1692909160098b01908990610a6c90612248565b80601f0160208091040260200160405190810160405280929190818152602001828054610a9890612248565b8015610ae55780601f10610aba57610100808354040283529160200191610ae5565b820191906000526020600020905b815481529060010190602001808311610ac857829003601f168201915b50505050509850878054610af890612248565b80601f0160208091040260200160405190810160405280929190818152602001828054610b2490612248565b8015610b715780601f10610b4657610100808354040283529160200191610b71565b820191906000526020600020905b815481529060010190602001808311610b5457829003601f168201915b50505050509750808054610b8490612248565b80601f0160208091040260200160405190810160405280929190818152602001828054610bb090612248565b8015610bfd5780601f10610bd257610100808354040283529160200191610bfd565b820191906000526020600020905b815481529060010190602001808311610be057829003601f168201915b505050505090509a509a509a509a509a509a509a509a509a509a50509193959799509193959799565b60606006826040516103d191906121dc565b600254604051636386c1c760e01b8152336004820152600091829182916001600160a01b031690636386c1c790602401600060405180830381865afa158015610c85573d6000803e3d6000fd5b505050506040513d6000823e601f3d908101601f19168201604052610cad91908101906122c7565b9450505050915081600003610cfa5760405162461bcd60e51b8152602060048201526013602482015272155cd95c881b9bdd081c9959da5cdd195c9959606a1b60448201526064016102bd565b80610d595760405162461bcd60e51b815260206004820152602960248201527f55736572206d75737420626520766572696669656420746f206372656174652060448201526865786368616e67657360b81b60648201526084016102bd565b42871015610da95760405162461bcd60e51b815260206004820181905260248201527f53746172742074696d65206d75737420626520696e207468652066757475726560448201526064016102bd565b868611610dc85760405162461bcd60e51b81526004016102bd90612353565b60018054906000610dd8836123aa565b9091555050600180546000818152600460205260409020818155909101610dff8b82612414565b506000818152600460205260409020600201610e1b8a82612414565b5060008181526004602052604090206003810180546001600160a01b03191633179055600681018990556007810188905560088101805460ff19166001179055600901610e688782612414565b5060008181526004602090815260409091208651610e8e92600a90920191880190611b50565b506000818152600460209081526040808320600590810180546001810182559085529290932090910180546001600160a01b0319163317905551610ed39088906121dc565b90815260405160209181900382019020805460018101825560009182529181209091018290555b8551811015610f58576006868281518110610f1757610f17612232565b6020026020010151604051610f2c91906121dc565b908152604051602091819003820190208054600180820183556000928352929091200183905501610efa565b50336000818152600760209081526040808320805460018101825590845291909220018390555182907f66cf02f4acd455664322c4e4385ad21c42e4e702e33706574b3f755c6ae09e1790610fae908e906124d4565b60405180910390a39998505050505050505050565b610fcb611ad3565b610fd56000611b00565b565b6001600160a01b038116600090815260076020908152604091829020805483518184028101840190945280845260609392830182828015610423576020028201919060005260206000209081548152602001906001019080831161040f5750505050509050919050565b600087815260046020526040812054900361106e5760405162461bcd60e51b81526004016102bd906121a5565b6000878152600460205260409020600301546001600160a01b03163314806110af5750336110a46000546001600160a01b031690565b6001600160a01b0316145b61110f5760405162461bcd60e51b815260206004820152602b60248201527f4f6e6c79206f7267616e697a6572206f72206f776e65722063616e207570646160448201526a74652065786368616e676560a81b60648201526084016102bd565b831561117a57428410156111655760405162461bcd60e51b815260206004820181905260248201527f53746172742074696d65206d75737420626520696e207468652066757475726560448201526064016102bd565b60008781526004602052604090206006018490555b82156111c55760008781526004602052604090206006015483116111b05760405162461bcd60e51b81526004016102bd90612353565b60008781526004602052604090206007018390555b8551156111e95760008781526004602052604090206001016111e78782612414565b505b84511561120d57600087815260046020526040902060020161120b8682612414565b505b6000825111801561124b5750600087815260046020526040908190209051611238916009019061255a565b6040518091039020828051906020012014155b156113835760008781526004602052604080822090516005916112739160099091019061255a565b9081526020016040518091039020905060005b815481101561133057888282815481106112a2576112a2612232565b90600052602060002001540361132857815482906112c290600190612566565b815481106112d2576112d2612232565b90600052602060002001548282815481106112ef576112ef612232565b90600052602060002001819055508180548061130d5761130d61257f565b60019003818190600052602060002001600090559055611330565b600101611286565b50600088815260046020526040902060090161134c8482612414565b5060058360405161135d91906121dc565b908152604051602091819003820190208054600181018255600091825291902001889055505b8051156115c25760005b6000888152600460205260409020600a0154811015611538576000888152600460205260408120600a018054839081106113c9576113c9612232565b9060005260206000200180546113de90612248565b80601f016020809104026020016040519081016040528092919081815260200182805461140a90612248565b80156114575780601f1061142c57610100808354040283529160200191611457565b820191906000526020600020905b81548152906001019060200180831161143a57829003601f168201915b50505050509050600060068260405161147091906121dc565b9081526020016040518091039020905060005b815481101561152d578a82828154811061149f5761149f612232565b90600052602060002001540361152557815482906114bf90600190612566565b815481106114cf576114cf612232565b90600052602060002001548282815481106114ec576114ec612232565b90600052602060002001819055508180548061150a5761150a61257f565b6001900381819060005260206000200160009055905561152d565b600101611483565b50505060010161138d565b506000878152600460209081526040909120825161155e92600a90920191840190611b50565b5060005b81518110156115c057600682828151811061157f5761157f612232565b602002602001015160405161159491906121dc565b908152604051602091819003820190208054600180820183556000928352929091200189905501611562565b505b60405187907f7a8a02536dcba3c48bebca1a032bcbf5739372d7306564df4c7e91201d10a20f90600090a250505050505050565b60008181526004602052604081205490036116235760405162461bcd60e51b81526004016102bd906121a5565b60008181526004602052604090206008015460ff1661167d5760405162461bcd60e51b815260206004820152601660248201527545786368616e6765206973206e6f742061637469766560501b60448201526064016102bd565b60008181526004602052604090206007015442106116d25760405162461bcd60e51b8152602060048201526012602482015271115e18da185b99d9481a185cc8195b99195960721b60448201526064016102bd565b600254604051636386c1c760e01b81523360048201526000916001600160a01b031690636386c1c790602401600060405180830381865afa15801561171b573d6000803e3d6000fd5b505050506040513d6000823e601f3d908101601f1916820160405261174391908101906122c7565b5050505090508060000361178f5760405162461bcd60e51b8152602060048201526013602482015272155cd95c881b9bdd081c9959da5cdd195c9959606a1b60448201526064016102bd565b6000805b6000848152600460205260409020600501548110156117fd5760008481526004602052604090206005018054339190839081106117d2576117d2612232565b6000918252602090912001546001600160a01b0316036117f557600191506117fd565b600101611793565b50801561184c5760405162461bcd60e51b815260206004820152601d60248201527f5573657220697320616c72656164792061207061727469636970616e7400000060448201526064016102bd565b60008381526004602090815260408083206005018054600181810183559185528385200180546001600160a01b03191633908117909155808552600784528285208054928301815585529284200186905551909185917f7dd8cb04159701bc1976c246434d7d96812782e7489e6c5c34db49a388fe9e809190a3505050565b600180546060916000905b8281116119335760008181526004602052604090206008015460ff16801561190e575060008181526004602052604090206007015442105b15611921578161191d816123aa565b9250505b8061192b816123aa565b9150506118d6565b5060008167ffffffffffffffff81111561194f5761194f611c4b565b604051908082528060200260200182016040528015611978578160200160208202803683370190505b509050600060015b8481116119fb5760008181526004602052604090206008015460ff1680156119b8575060008181526004602052604090206007015442105b156119e957808383815181106119d0576119d0612232565b6020908102919091010152816119e5816123aa565b9250505b806119f3816123aa565b915050611980565b5090949350505050565b611a0d611ad3565b6001600160a01b038116611a3757604051631e4fbdf760e01b8152600060048201526024016102bd565b611a4081611b00565b50565b60008181526004602052604081205460609103611a725760405162461bcd60e51b81526004016102bd906121a5565b60008281526004602081815260409283902090910180548351818402810184019094528084529091830182828015610423576020028201919060005260206000209081548152602001906001019080831161040f5750505050509050919050565b6000546001600160a01b03163314610fd55760405163118cdaa760e01b81523360048201526024016102bd565b600080546001600160a01b038381166001600160a01b0319831681178455604051919092169283917f8be0079c531659141344cd1fd0a4f28419497f9722a3daafe3b4186f6b6457e09190a35050565b828054828255906000526020600020908101928215611b96579160200282015b82811115611b965782518290611b869082612414565b5091602001919060010190611b70565b50611ba2929150611ba6565b5090565b80821115611ba2576000611bba8282611bc3565b50600101611ba6565b508054611bcf90612248565b6000825580601f10611bdf575050565b601f016020900490600052602060002090810190611a4091905b80821115611ba25760008155600101611bf9565b8015158114611a4057600080fd5b60008060408385031215611c2e57600080fd5b823591506020830135611c4081611c0d565b809150509250929050565b634e487b7160e01b600052604160045260246000fd5b604051601f8201601f1916810167ffffffffffffffff81118282101715611c8a57611c8a611c4b565b604052919050565b600067ffffffffffffffff821115611cac57611cac611c4b565b50601f01601f191660200190565b600082601f830112611ccb57600080fd5b8135611cde611cd982611c92565b611c61565b818152846020838601011115611cf357600080fd5b816020850160208301376000918101602001919091529392505050565b600060208284031215611d2257600080fd5b813567ffffffffffffffff811115611d3957600080fd5b611d4584828501611cba565b949350505050565b6020808252825182820181905260009190848201906040850190845b81811015611d8557835183529284019291840191600101611d69565b50909695505050505050565b600060208284031215611da357600080fd5b5035919050565b6020808252825182820181905260009190848201906040850190845b81811015611d855783516001600160a01b031683529284019291840191600101611dc6565b60008060408385031215611dfe57600080fd5b50508035926020909101359150565b60005b83811015611e28578181015183820152602001611e10565b50506000910152565b60008151808452611e49816020860160208601611e0d565b601f01601f19169290920160200192915050565b600060208083016020845280855180835260408601915060408160051b87010192506020870160005b82811015611eb457603f19888603018452611ea2858351611e31565b94509285019290850190600101611e86565b5092979650505050505050565b60006101408c8352806020840152611edb8184018d611e31565b90508281036040840152611eef818c611e31565b905060018060a01b038a1660608401528860808401528760a084015286151560c08401528560e084015284610100840152828103610120840152611f338185611e31565b9d9c50505050505050505050505050565b600082601f830112611f5557600080fd5b8135602067ffffffffffffffff80831115611f7257611f72611c4b565b8260051b611f81838201611c61565b9384528581018301938381019088861115611f9b57600080fd5b84880192505b85831015611fd757823584811115611fb95760008081fd5b611fc78a87838c0101611cba565b8352509184019190840190611fa1565b98975050505050505050565b60008060008060008060c08789031215611ffc57600080fd5b863567ffffffffffffffff8082111561201457600080fd5b6120208a838b01611cba565b9750602089013591508082111561203657600080fd5b6120428a838b01611cba565b96506040890135955060608901359450608089013591508082111561206657600080fd5b6120728a838b01611cba565b935060a089013591508082111561208857600080fd5b5061209589828a01611f44565b9150509295509295509295565b6001600160a01b0381168114611a4057600080fd5b6000602082840312156120c957600080fd5b81356120d4816120a2565b9392505050565b600080600080600080600060e0888a0312156120f657600080fd5b87359650602088013567ffffffffffffffff8082111561211557600080fd5b6121218b838c01611cba565b975060408a013591508082111561213757600080fd5b6121438b838c01611cba565b965060608a0135955060808a0135945060a08a013591508082111561216757600080fd5b6121738b838c01611cba565b935060c08a013591508082111561218957600080fd5b506121968a828b01611f44565b91505092959891949750929550565b60208082526017908201527f45786368616e676520646f6573206e6f74206578697374000000000000000000604082015260600190565b600082516121ee818460208701611e0d565b9190910192915050565b60006020828403121561220a57600080fd5b81516120d481611c0d565b60006020828403121561222757600080fd5b81516120d4816120a2565b634e487b7160e01b600052603260045260246000fd5b600181811c9082168061225c57607f821691505b60208210810361227c57634e487b7160e01b600052602260045260246000fd5b50919050565b600082601f83011261229357600080fd5b81516122a1611cd982611c92565b8181528460208386010111156122b657600080fd5b611d45826020830160208701611e0d565b600080600080600060a086880312156122df57600080fd5b85519450602086015167ffffffffffffffff808211156122fe57600080fd5b61230a89838a01612282565b9550604088015191508082111561232057600080fd5b5061232d88828901612282565b93505060608601519150608086015161234581611c0d565b809150509295509295909350565b60208082526021908201527f456e642074696d65206d7573742062652061667465722073746172742074696d6040820152606560f81b606082015260800190565b634e487b7160e01b600052601160045260246000fd5b6000600182016123bc576123bc612394565b5060010190565b601f82111561240f576000816000526020600020601f850160051c810160208610156123ec5750805b601f850160051c820191505b8181101561240b578281556001016123f8565b5050505b505050565b815167ffffffffffffffff81111561242e5761242e611c4b565b6124428161243c8454612248565b846123c3565b602080601f831160018114612477576000841561245f5750858301515b600019600386901b1c1916600185901b17855561240b565b600085815260208120601f198616915b828110156124a657888601518255948401946001909101908401612487565b50858210156124c45787850151600019600388901b60f8161c191681555b5050505050600190811b01905550565b6020815260006120d46020830184611e31565b600081546124f481612248565b6001828116801561250c576001811461252157612550565b60ff1984168752821515830287019450612550565b8560005260208060002060005b858110156125475781548a82015290840190820161252e565b50505082870194505b5050505092915050565b60006120d482846124e7565b8181038181111561257957612579612394565b92915050565b634e487b7160e01b600052603160045260246000fdfea26469706673582212200ca4c932d89a54ef4ee0cd5bdd6afe049156eab12f60de9c934e26905cd4db7364736f6c63430008160033",
  "linkReferences": {},
  "deployedLinkReferences": {}
}