{
  "_format": "hh-sol-artifact-1",
  "contractName": "CultureBridgeToken",
  "sourceName": "blockchain/contracts/CultureBridgeToken.sol",
  "abi": [
    {
      "inputs": [],
      "stateMutability": "nonpayable",
      "type": "constructor"
    },
    {
      "inputs": [],
      "name": "AccessControlBadConfirmation",
      "type": "error"
    },
    {
      "inputs": [
        {
          "internalType": "address",
          "name": "account",
          "type": "address"
        },
        {
          "internalType": "bytes32",
          "name": "neededRole",
          "type": "bytes32"
        }
      ],
      "name": "AccessControlUnauthorizedAccount",
      "type": "error"
    },
    {
      "inputs": [
        {
          "internalType": "address",
          "name": "target",
          "type": "address"
        }
      ],
      "name": "AddressEmptyCode",
      "type": "error"
    },
    {
      "inputs": [
        {
          "internalType": "address",
          "name": "implementation",
          "type": "address"
        }
      ],
      "name": "ERC1967InvalidImplementation",
      "type": "error"
    },
    {
      "inputs": [],
      "name": "ERC1967NonPayable",
      "type": "error"
    },
    {
      "inputs": [
        {
          "internalType": "address",
          "name": "spender",
          "type": "address"
        },
        {
          "internalType": "uint256",
          "name": "allowance",
          "type": "uint256"
        },
        {
          "internalType": "uint256",
          "name": "needed",
          "type": "uint256"
        }
      ],
      "name": "ERC20InsufficientAllowance",
      "type": "error"
    },
    {
      "inputs": [
        {
          "internalType": "address",
          "name": "sender",
          "type": "address"
        },
        {
          "internalType": "uint256",
          "name": "balance",
          "type": "uint256"
        },
        {
          "internalType": "uint256",
          "name": "needed",
          "type": "uint256"
        }
      ],
      "name": "ERC20InsufficientBalance",
      "type": "error"
    },
    {
      "inputs": [
        {
          "internalType": "address",
          "name": "approver",
          "type": "address"
        }
      ],
      "name": "ERC20InvalidApprover",
      "type": "error"
    },
    {
      "inputs": [
        {
          "internalType": "address",
          "name": "receiver",
          "type": "address"
        }
      ],
      "name": "ERC20InvalidReceiver",
      "type": "error"
    },
    {
      "inputs": [
        {
          "internalType": "address",
          "name": "sender",
          "type": "address"
        }
      ],
      "name": "ERC20InvalidSender",
      "type": "error"
    },
    {
      "inputs": [
        {
          "internalType": "address",
          "name": "spender",
          "type": "address"
        }
      ],
      "name": "ERC20InvalidSpender",
      "type": "error"
    },
    {
      "inputs": [],
      "name": "EnforcedPause",
      "type": "error"
    },
    {
      "inputs": [],
      "name": "ExpectedPause",
      "type": "error"
    },
    {
      "inputs": [],
      "name": "FailedCall",
      "type": "error"
    },
    {
      "inputs": [],
      "name": "InvalidInitialization",
      "type": "error"
    },
    {
      "inputs": [],
      "name": "NotInitializing",
      "type": "error"
    },
    {
      "inputs": [],
      "name": "ReentrancyGuardReentrantCall",
      "type": "error"
    },
    {
      "inputs": [],
      "name": "UUPSUnauthorizedCallContext",
      "type": "error"
    },
    {
      "inputs": [
        {
          "internalType": "bytes32",
          "name": "slot",
          "type": "bytes32"
        }
      ],
      "name": "UUPSUnsupportedProxiableUUID",
      "type": "error"
    },
    {
      "anonymous": false,
      "inputs": [
        {
          "indexed": true,
          "internalType": "address",
          "name": "owner",
          "type": "address"
        },
        {
          "indexed": true,
          "internalType": "address",
          "name": "spender",
          "type": "address"
        },
        {
          "indexed": false,
          "internalType": "uint256",
          "name": "value",
          "type": "uint256"
        }
      ],
      "name": "Approval",
      "type": "event"
    },
    {
      "anonymous": false,
      "inputs": [
        {
          "indexed": true,
          "internalType": "uint256",
          "name": "transactionId",
          "type": "uint256"
        },
        {
          "indexed": true,
          "internalType": "address",
          "name": "from",
          "type": "address"
        },
        {
          "indexed": true,
          "internalType": "address",
          "name": "to",
          "type": "address"
        },
        {
          "indexed": false,
          "internalType": "uint256",
          "name": "amount",
          "type": "uint256"
        },
        {
          "indexed": false,
          "internalType": "enum CultureBridgeToken.TransactionCategory",
          "name": "category",
          "type": "uint8"
        }
      ],
      "name": "CulturalTransactionRecorded",
      "type": "event"
    },
    {
      "anonymous": false,
      "inputs": [
        {
          "indexed": false,
          "internalType": "uint64",
          "name": "version",
          "type": "uint64"
        }
      ],
      "name": "Initialized",
      "type": "event"
    },
    {
      "anonymous": false,
      "inputs": [
        {
          "indexed": false,
          "internalType": "address",
          "name": "account",
          "type": "address"
        }
      ],
      "name": "Paused",
      "type": "event"
    },
    {
      "anonymous": false,
      "inputs": [
        {
          "indexed": true,
          "internalType": "address",
          "name": "recipient",
          "type": "address"
        },
        {
          "indexed": false,
          "internalType": "uint256",
          "name": "amount",
          "type": "uint256"
        },
        {
          "indexed": false,
          "internalType": "enum CultureBridgeToken.TransactionCategory",
          "name": "category",
          "type": "uint8"
        },
        {
          "indexed": false,
          "internalType": "string",
          "name": "description",
          "type": "string"
        }
      ],
      "name": "RewardDistributed",
      "type": "event"
    },
    {
      "anonymous": false,
      "inputs": [
        {
          "indexed": false,
          "internalType": "enum CultureBridgeToken.TransactionCategory",
          "name": "category",
          "type": "uint8"
        },
        {
          "indexed": false,
          "internalType": "uint256",
          "name": "oldRate",
          "type": "uint256"
        },
        {
          "indexed": false,
          "internalType": "uint256",
          "name": "newRate",
          "type": "uint256"
        }
      ],
      "name": "RewardRateUpdated",
      "type": "event"
    },
    {
      "anonymous": false,
      "inputs": [
        {
          "indexed": true,
          "internalType": "bytes32",
          "name": "role",
          "type": "bytes32"
        },
        {
          "indexed": true,
          "internalType": "bytes32",
          "name": "previousAdminRole",
          "type": "bytes32"
        },
        {
          "indexed": true,
          "internalType": "bytes32",
          "name": "newAdminRole",
          "type": "bytes32"
        }
      ],
      "name": "RoleAdminChanged",
      "type": "event"
    },
    {
      "anonymous": false,
      "inputs": [
        {
          "indexed": true,
          "internalType": "bytes32",
          "name": "role",
          "type": "bytes32"
        },
        {
          "indexed": true,
          "internalType": "address",
          "name": "account",
          "type": "address"
        },
        {
          "indexed": true,
          "internalType": "address",
          "name": "sender",
          "type": "address"
        }
      ],
      "name": "RoleGranted",
      "type": "event"
    },
    {
      "anonymous": false,
      "inputs": [
        {
          "indexed": true,
          "internalType": "bytes32",
          "name": "role",
          "type": "bytes32"
        },
        {
          "indexed": true,
          "internalType": "address",
          "name": "account",
          "type": "address"
        },
        {
          "indexed": true,
          "internalType": "address",
          "name": "sender",
          "type": "address"
        }
      ],
      "name": "RoleRevoked",
      "type": "event"
    },
    {
      "anonymous": false,
      "inputs": [
        {
          "indexed": true,
          "internalType": "address",
          "name": "from",
          "type": "address"
        },
        {
          "indexed": true,
          "internalType": "address",
          "name": "to",
          "type": "address"
        },
        {
          "indexed": false,
          "internalType": "uint256",
          "name": "value",
          "type": "uint256"
        }
      ],
      "name": "Transfer",
      "type": "event"
    },
    {
      "anonymous": false,
      "inputs": [
        {
          "indexed": false,
          "internalType": "address",
          "name": "account",
          "type": "address"
        }
      ],
      "name": "Unpaused",
      "type": "event"
    },
    {
      "anonymous": false,
      "inputs": [
        {
          "indexed": true,
          "internalType": "address",
          "name": "implementation",
          "type": "address"
        }
      ],
      "name": "Upgraded",
      "type": "event"
    },
    {
      "anonymous": false,
      "inputs": [
        {
          "indexed": true,
          "internalType": "address",
          "name": "user",
          "type": "address"
        },
        {
          "indexed": false,
          "internalType": "uint256",
          "name": "totalEarned",
          "type": "uint256"
        },
        {
          "indexed": false,
          "internalType": "uint256",
          "name": "totalSpent",
          "type": "uint256"
        }
      ],
      "name": "UserStatsUpdated",
      "type": "event"
    },
    {
      "inputs": [],
      "name": "ADMIN_ROLE",
      "outputs": [
        {
          "internalType": "bytes32",
          "name": "",
          "type": "bytes32"
        }
      ],
      "stateMutability": "view",
      "type": "function"
    },
    {
      "inputs": [],
      "name": "DEFAULT_ADMIN_ROLE",
      "outputs": [
        {
          "internalType": "bytes32",
          "name": "",
          "type": "bytes32"
        }
      ],
      "stateMutability": "view",
      "type": "function"
    },
    {
      "inputs": [],
      "name": "INITIAL_SUPPLY",
      "outputs": [
        {
          "internalType": "uint256",
          "name": "",
          "type": "uint256"
        }
      ],
      "stateMutability": "view",
      "type": "function"
    },
    {
      "inputs": [],
      "name": "MAX_SUPPLY",
      "outputs": [
        {
          "internalType": "uint256",
          "name": "",
          "type": "uint256"
        }
      ],
      "stateMutability": "view",
      "type": "function"
    },
    {
      "inputs": [],
      "name": "MINTER_ROLE",
      "outputs": [
        {
          "internalType": "bytes32",
          "name": "",
          "type": "bytes32"
        }
      ],
      "stateMutability": "view",
      "type": "function"
    },
    {
      "inputs": [],
      "name": "PAUSER_ROLE",
      "outputs": [
        {
          "internalType": "bytes32",
          "name": "",
          "type": "bytes32"
        }
      ],
      "stateMutability": "view",
      "type": "function"
    },
    {
      "inputs": [],
      "name": "REWARD_DISTRIBUTOR_ROLE",
      "outputs": [
        {
          "internalType": "bytes32",
          "name": "",
          "type": "bytes32"
        }
      ],
      "stateMutability": "view",
      "type": "function"
    },
    {
      "inputs": [],
      "name": "UPGRADER_ROLE",
      "outputs": [
        {
          "internalType": "bytes32",
          "name": "",
          "type": "bytes32"
        }
      ],
      "stateMutability": "view",
      "type": "function"
    },
    {
      "inputs": [],
      "name": "UPGRADE_INTERFACE_VERSION",
      "outputs": [
        {
          "internalType": "string",
          "name": "",
          "type": "string"
        }
      ],
      "stateMutability": "view",
      "type": "function"
    },
    {
      "inputs": [
        {
          "internalType": "address",
          "name": "owner",
          "type": "address"
        },
        {
          "internalType": "address",
          "name": "spender",
          "type": "address"
        }
      ],
      "name": "allowance",
      "outputs": [
        {
          "internalType": "uint256",
          "name": "",
          "type": "uint256"
        }
      ],
      "stateMutability": "view",
      "type": "function"
    },
    {
      "inputs": [
        {
          "internalType": "address",
          "name": "spender",
          "type": "address"
        },
        {
          "internalType": "uint256",
          "name": "value",
          "type": "uint256"
        }
      ],
      "name": "approve",
      "outputs": [
        {
          "internalType": "bool",
          "name": "",
          "type": "bool"
        }
      ],
      "stateMutability": "nonpayable",
      "type": "function"
    },
    {
      "inputs": [
        {
          "internalType": "address",
          "name": "account",
          "type": "address"
        }
      ],
      "name": "balanceOf",
      "outputs": [
        {
          "internalType": "uint256",
          "name": "",
          "type": "uint256"
        }
      ],
      "stateMutability": "view",
      "type": "function"
    },
    {
      "inputs": [
        {
          "internalType": "address[]",
          "name": "recipients",
          "type": "address[]"
        },
        {
          "internalType": "enum CultureBridgeToken.TransactionCategory[]",
          "name": "categories",
          "type": "uint8[]"
        },
        {
          "internalType": "string[]",
          "name": "descriptions",
          "type": "string[]"
        }
      ],
      "name": "batchDistributeRewards",
      "outputs": [],
      "stateMutability": "nonpayable",
      "type": "function"
    },
    {
      "inputs": [
        {
          "internalType": "uint256",
          "name": "value",
          "type": "uint256"
        }
      ],
      "name": "burn",
      "outputs": [],
      "stateMutability": "nonpayable",
      "type": "function"
    },
    {
      "inputs": [
        {
          "internalType": "address",
          "name": "account",
          "type": "address"
        },
        {
          "internalType": "uint256",
          "name": "value",
          "type": "uint256"
        }
      ],
      "name": "burnFrom",
      "outputs": [],
      "stateMutability": "nonpayable",
      "type": "function"
    },
    {
      "inputs": [],
      "name": "claimDailyReward",
      "outputs": [],
      "stateMutability": "nonpayable",
      "type": "function"
    },
    {
      "inputs": [
        {
          "internalType": "address",
          "name": "to",
          "type": "address"
        },
        {
          "internalType": "uint256",
          "name": "amount",
          "type": "uint256"
        },
        {
          "internalType": "enum CultureBridgeToken.TransactionCategory",
          "name": "category",
          "type": "uint8"
        },
        {
          "internalType": "string",
          "name": "description",
          "type": "string"
        }
      ],
      "name": "culturalTransfer",
      "outputs": [],
      "stateMutability": "nonpayable",
      "type": "function"
    },
    {
      "inputs": [
        {
          "internalType": "address",
          "name": "",
          "type": "address"
        }
      ],
      "name": "dailyRewardClaimed",
      "outputs": [
        {
          "internalType": "uint256",
          "name": "",
          "type": "uint256"
        }
      ],
      "stateMutability": "view",
      "type": "function"
    },
    {
      "inputs": [],
      "name": "decimals",
      "outputs": [
        {
          "internalType": "uint8",
          "name": "",
          "type": "uint8"
        }
      ],
      "stateMutability": "view",
      "type": "function"
    },
    {
      "inputs": [
        {
          "internalType": "address",
          "name": "recipient",
          "type": "address"
        },
        {
          "internalType": "enum CultureBridgeToken.TransactionCategory",
          "name": "category",
          "type": "uint8"
        },
        {
          "internalType": "string",
          "name": "description",
          "type": "string"
        }
      ],
      "name": "distributeReward",
      "outputs": [],
      "stateMutability": "nonpayable",
      "type": "function"
    },
    {
      "inputs": [
        {
          "internalType": "bytes32",
          "name": "role",
          "type": "bytes32"
        }
      ],
      "name": "getRoleAdmin",
      "outputs": [
        {
          "internalType": "bytes32",
          "name": "",
          "type": "bytes32"
        }
      ],
      "stateMutability": "view",
      "type": "function"
    },
    {
      "inputs": [
        {
          "internalType": "uint256",
          "name": "transactionId",
          "type": "uint256"
        }
      ],
      "name": "getTransaction",
      "outputs": [
        {
          "components": [
            {
              "internalType": "uint256",
              "name": "id",
              "type": "uint256"
            },
            {
              "internalType": "address",
              "name": "from",
              "type": "address"
            },
            {
              "internalType": "address",
              "name": "to",
              "type": "address"
            },
            {
              "internalType": "uint256",
              "name": "amount",
              "type": "uint256"
            },
            {
              "internalType": "enum CultureBridgeToken.TransactionCategory",
              "name": "category",
              "type": "uint8"
            },
            {
              "internalType": "string",
              "name": "description",
              "type": "string"
            },
            {
              "internalType": "uint256",
              "name": "timestamp",
              "type": "uint256"
            },
            {
              "internalType": "bool",
              "name": "isReward",
              "type": "bool"
            }
          ],
          "internalType": "struct CultureBridgeToken.CulturalTransaction",
          "name": "",
          "type": "tuple"
        }
      ],
      "stateMutability": "view",
      "type": "function"
    },
    {
      "inputs": [
        {
          "internalType": "address",
          "name": "user",
          "type": "address"
        },
        {
          "internalType": "enum CultureBridgeToken.TransactionCategory",
          "name": "category",
          "type": "uint8"
        }
      ],
      "name": "getUserCategoryEarnings",
      "outputs": [
        {
          "internalType": "uint256",
          "name": "",
          "type": "uint256"
        }
      ],
      "stateMutability": "view",
      "type": "function"
    },
    {
      "inputs": [
        {
          "internalType": "bytes32",
          "name": "role",
          "type": "bytes32"
        },
        {
          "internalType": "address",
          "name": "account",
          "type": "address"
        }
      ],
      "name": "grantRole",
      "outputs": [],
      "stateMutability": "nonpayable",
      "type": "function"
    },
    {
      "inputs": [
        {
          "internalType": "bytes32",
          "name": "role",
          "type": "bytes32"
        },
        {
          "internalType": "address",
          "name": "account",
          "type": "address"
        }
      ],
      "name": "hasRole",
      "outputs": [
        {
          "internalType": "bool",
          "name": "",
          "type": "bool"
        }
      ],
      "stateMutability": "view",
      "type": "function"
    },
    {
      "inputs": [
        {
          "internalType": "string",
          "name": "name",
          "type": "string"
        },
        {
          "internalType": "string",
          "name": "symbol",
          "type": "string"
        },
        {
          "internalType": "address",
          "name": "admin",
          "type": "address"
        }
      ],
      "name": "initialize",
      "outputs": [],
      "stateMutability": "nonpayable",
      "type": "function"
    },
    {
      "inputs": [
        {
          "internalType": "address",
          "name": "",
          "type": "address"
        }
      ],
      "name": "lastClaimTime",
      "outputs": [
        {
          "internalType": "uint256",
          "name": "",
          "type": "uint256"
        }
      ],
      "stateMutability": "view",
      "type": "function"
    },
    {
      "inputs": [
        {
          "internalType": "address",
          "name": "to",
          "type": "address"
        },
        {
          "internalType": "uint256",
          "name": "amount",
          "type": "uint256"
        }
      ],
      "name": "mint",
      "outputs": [],
      "stateMutability": "nonpayable",
      "type": "function"
    },
    {
      "inputs": [],
      "name": "name",
      "outputs": [
        {
          "internalType": "string",
          "name": "",
          "type": "string"
        }
      ],
      "stateMutability": "view",
      "type": "function"
    },
    {
      "inputs": [],
      "name": "pause",
      "outputs": [],
      "stateMutability": "nonpayable",
      "type": "function"
    },
    {
      "inputs": [],
      "name": "paused",
      "outputs": [
        {
          "internalType": "bool",
          "name": "",
          "type": "bool"
        }
      ],
      "stateMutability": "view",
      "type": "function"
    },
    {
      "inputs": [],
      "name": "proxiableUUID",
      "outputs": [
        {
          "internalType": "bytes32",
          "name": "",
          "type": "bytes32"
        }
      ],
      "stateMutability": "view",
      "type": "function"
    },
    {
      "inputs": [
        {
          "internalType": "bytes32",
          "name": "role",
          "type": "bytes32"
        },
        {
          "internalType": "address",
          "name": "callerConfirmation",
          "type": "address"
        }
      ],
      "name": "renounceRole",
      "outputs": [],
      "stateMutability": "nonpayable",
      "type": "function"
    },
    {
      "inputs": [
        {
          "internalType": "bytes32",
          "name": "role",
          "type": "bytes32"
        },
        {
          "internalType": "address",
          "name": "account",
          "type": "address"
        }
      ],
      "name": "revokeRole",
      "outputs": [],
      "stateMutability": "nonpayable",
      "type": "function"
    },
    {
      "inputs": [
        {
          "internalType": "enum CultureBridgeToken.TransactionCategory",
          "name": "",
          "type": "uint8"
        }
      ],
      "name": "rewardRates",
      "outputs": [
        {
          "internalType": "uint256",
          "name": "",
          "type": "uint256"
        }
      ],
      "stateMutability": "view",
      "type": "function"
    },
    {
      "inputs": [
        {
          "internalType": "enum CultureBridgeToken.TransactionCategory",
          "name": "category",
          "type": "uint8"
        },
        {
          "internalType": "uint256",
          "name": "newRate",
          "type": "uint256"
        }
      ],
      "name": "setRewardRate",
      "outputs": [],
      "stateMutability": "nonpayable",
      "type": "function"
    },
    {
      "inputs": [
        {
          "internalType": "bytes4",
          "name": "interfaceId",
          "type": "bytes4"
        }
      ],
      "name": "supportsInterface",
      "outputs": [
        {
          "internalType": "bool",
          "name": "",
          "type": "bool"
        }
      ],
      "stateMutability": "view",
      "type": "function"
    },
    {
      "inputs": [],
      "name": "symbol",
      "outputs": [
        {
          "internalType": "string",
          "name": "",
          "type": "string"
        }
      ],
      "stateMutability": "view",
      "type": "function"
    },
    {
      "inputs": [],
      "name": "totalRewardsDistributed",
      "outputs": [
        {
          "internalType": "uint256",
          "name": "",
          "type": "uint256"
        }
      ],
      "stateMutability": "view",
      "type": "function"
    },
    {
      "inputs": [],
      "name": "totalSupply",
      "outputs": [
        {
          "internalType": "uint256",
          "name": "",
          "type": "uint256"
        }
      ],
      "stateMutability": "view",
      "type": "function"
    },
    {
      "inputs": [],
      "name": "transactionCounter",
      "outputs": [
        {
          "internalType": "uint256",
          "name": "",
          "type": "uint256"
        }
      ],
      "stateMutability": "view",
      "type": "function"
    },
    {
      "inputs": [
        {
          "internalType": "uint256",
          "name": "",
          "type": "uint256"
        }
      ],
      "name": "transactions",
      "outputs": [
        {
          "internalType": "uint256",
          "name": "id",
          "type": "uint256"
        },
        {
          "internalType": "address",
          "name": "from",
          "type": "address"
        },
        {
          "internalType": "address",
          "name": "to",
          "type": "address"
        },
        {
          "internalType": "uint256",
          "name": "amount",
          "type": "uint256"
        },
        {
          "internalType": "enum CultureBridgeToken.TransactionCategory",
          "name": "category",
          "type": "uint8"
        },
        {
          "internalType": "string",
          "name": "description",
          "type": "string"
        },
        {
          "internalType": "uint256",
          "name": "timestamp",
          "type": "uint256"
        },
        {
          "internalType": "bool",
          "name": "isReward",
          "type": "bool"
        }
      ],
      "stateMutability": "view",
      "type": "function"
    },
    {
      "inputs": [
        {
          "internalType": "address",
          "name": "to",
          "type": "address"
        },
        {
          "internalType": "uint256",
          "name": "value",
          "type": "uint256"
        }
      ],
      "name": "transfer",
      "outputs": [
        {
          "internalType": "bool",
          "name": "",
          "type": "bool"
        }
      ],
      "stateMutability": "nonpayable",
      "type": "function"
    },
    {
      "inputs": [
        {
          "internalType": "address",
          "name": "from",
          "type": "address"
        },
        {
          "internalType": "address",
          "name": "to",
          "type": "address"
        },
        {
          "internalType": "uint256",
          "name": "value",
          "type": "uint256"
        }
      ],
      "name": "transferFrom",
      "outputs": [
        {
          "internalType": "bool",
          "name": "",
          "type": "bool"
        }
      ],
      "stateMutability": "nonpayable",
      "type": "function"
    },
    {
      "inputs": [],
      "name": "unpause",
      "outputs": [],
      "stateMutability": "nonpayable",
      "type": "function"
    },
    {
      "inputs": [
        {
          "internalType": "address",
          "name": "newImplementation",
          "type": "address"
        },
        {
          "internalType": "bytes",
          "name": "data",
          "type": "bytes"
        }
      ],
      "name": "upgradeToAndCall",
      "outputs": [],
      "stateMutability": "payable",
      "type": "function"
    },
    {
      "inputs": [
        {
          "internalType": "address",
          "name": "",
          "type": "address"
        }
      ],
      "name": "userStats",
      "outputs": [
        {
          "internalType": "uint256",
          "name": "totalEarned",
          "type": "uint256"
        },
        {
          "internalType": "uint256",
          "name": "totalSpent",
          "type": "uint256"
        },
        {
          "internalType": "uint256",
          "name": "transactionCount",
          "type": "uint256"
        },
        {
          "internalType": "uint256",
          "name": "lastActivityTime",
          "type": "uint256"
        }
      ],
      "stateMutability": "view",
      "type": "function"
    },
    {
      "inputs": [],
      "name": "version",
      "outputs": [
        {
          "internalType": "string",
          "name": "",
          "type": "string"
        }
      ],
      "stateMutability": "pure",
      "type": "function"
    }
  ],
  "bytecode": "0x60a0604052306080523480156200001557600080fd5b506200002062000026565b620000da565b7ff0c57e16840df040f15088dc2f81fe391c3923bec73e23a9662efc9c229c6a00805468010000000000000000900460ff1615620000775760405163f92ee8a960e01b815260040160405180910390fd5b80546001600160401b0390811614620000d75780546001600160401b0319166001600160401b0390811782556040519081527fc7f505b2f371ae2175ee4913f4499e1f2633a7b5936321eed1cdaeb6115181d29060200160405180910390a15b50565b6080516132046200010460003960008181611ce701528181611d100152611e7301526132046000f3fe6080604052600436106102935760003560e01c80635c975abb1161015a578063a9059cbb116100c1578063d547741f1161007a578063d547741f1461087b578063dd62ed3e1461089b578063e0a0025a146108bb578063e63ab1e9146108db578063ee172546146108fd578063f72c0d8b1461091357600080fd5b8063a9059cbb1461077c578063ad3cb1cc1461079c578063b77cf9c6146107cd578063bb3b8c79146107fa578063c3962f6d14610827578063d53913931461084757600080fd5b80638a65d874116101135780638a65d8741461067c5780638dc5f414146106de57806391d14854146106fe57806395d89b411461071e5780639ace38c214610733578063a217fddf1461076757600080fd5b80635c975abb146105b957806370a08231146105de57806375b238fc146105fe57806379cc67901461063257806383f8b7e2146106525780638456cb591461066757600080fd5b806332e4bb0a116101fe57806340c10f19116101b757806340c10f19146104f657806342966c68146105165780634f1ef2861461053657806352d1902d14610549578063541cb57f1461055e57806354fd4d501461058b57600080fd5b806332e4bb0a1461043257806333ea3dc81461045457806336568abe146104815780633cb66602146104a15780633e0e1d60146104c15780633f4ba83a146104e157600080fd5b806323b872dd1161025057806323b872dd14610377578063248a9ca3146103975780632f2ff15d146103b75780632ff2e9dc146103d7578063313ce567146103f657806332cb6b0c1461041257600080fd5b806301ffc9a71461029857806306fdde03146102cd578063077f224a146102ef578063095ea7b31461031157806314e887e81461033157806318160ddd14610355575b600080fd5b3480156102a457600080fd5b506102b86102b336600461269a565b610947565b60405190151581526020015b60405180910390f35b3480156102d957600080fd5b506102e2610958565b6040516102c49190612714565b3480156102fb57600080fd5b5061030f61030a366004612802565b610a1b565b005b34801561031d57600080fd5b506102b861032c366004612876565b610cfc565b34801561033d57600080fd5b5061034760025481565b6040519081526020016102c4565b34801561036157600080fd5b5060008051602061310f83398151915254610347565b34801561038357600080fd5b506102b86103923660046128a0565b610d14565b3480156103a357600080fd5b506103476103b23660046128dc565b610d3a565b3480156103c357600080fd5b5061030f6103d23660046128f5565b610d5c565b3480156103e357600080fd5b506103476a52b7d2dcc80cd2e400000081565b34801561040257600080fd5b50604051601281526020016102c4565b34801561041e57600080fd5b506103476b033b2e3c9fd0803ce800000081565b34801561043e57600080fd5b506103476000805160206130cf83398151915281565b34801561046057600080fd5b5061047461046f3660046128dc565b610d7e565b6040516102c49190612959565b34801561048d57600080fd5b5061030f61049c3660046128f5565b610ef4565b3480156104ad57600080fd5b5061030f6104bc3660046129f8565b610f2c565b3480156104cd57600080fd5b5061030f6104dc366004612b70565b610f6e565b3480156104ed57600080fd5b5061030f611052565b34801561050257600080fd5b5061030f610511366004612876565b611075565b34801561052257600080fd5b5061030f6105313660046128dc565b6110f5565b61030f610544366004612c4a565b6110ff565b34801561055557600080fd5b5061034761111e565b34801561056a57600080fd5b50610347610579366004612cac565b60046020526000908152604090205481565b34801561059757600080fd5b506040805180820190915260058152640322e302e360dc1b60208201526102e2565b3480156105c557600080fd5b5060008051602061318f8339815191525460ff166102b8565b3480156105ea57600080fd5b506103476105f9366004612cc7565b61113b565b34801561060a57600080fd5b506103477fa49807205ce4d355092ef5a8a18f56e8913cf4a201fbe287825b095693c2177581565b34801561063e57600080fd5b5061030f61064d366004612876565b611163565b34801561065e57600080fd5b5061030f611178565b34801561067357600080fd5b5061030f6112f0565b34801561068857600080fd5b506106be610697366004612cc7565b60006020819052908152604090208054600182015460028301546003909301549192909184565b6040805194855260208501939093529183015260608201526080016102c4565b3480156106ea57600080fd5b506103476106f9366004612ce2565b611310565b34801561070a57600080fd5b506102b86107193660046128f5565b611366565b34801561072a57600080fd5b506102e261139e565b34801561073f57600080fd5b5061075361074e3660046128dc565b6113dd565b6040516102c4989796959493929190612d0c565b34801561077357600080fd5b50610347600081565b34801561078857600080fd5b506102b8610797366004612876565b6114be565b3480156107a857600080fd5b506102e2604051806040016040528060058152602001640352e302e360dc1b81525081565b3480156107d957600080fd5b506103476107e8366004612cc7565b60066020526000908152604090205481565b34801561080657600080fd5b50610347610815366004612cc7565b60056020526000908152604090205481565b34801561083357600080fd5b5061030f610842366004612d6e565b6114cc565b34801561085357600080fd5b506103477f9f2df0fed2c77648de5860a4cc508cd0818c85b8b8a1ab4ceeef8d981c8956a681565b34801561088757600080fd5b5061030f6108963660046128f5565b611655565b3480156108a757600080fd5b506103476108b6366004612dd6565b611671565b3480156108c757600080fd5b5061030f6108d6366004612e00565b6116bb565b3480156108e757600080fd5b5061034760008051602061314f83398151915281565b34801561090957600080fd5b5061034760035481565b34801561091f57600080fd5b506103477f189ab7a9244df0848122154315af71fe140f3db0fe014031783b0946b8c9d2e381565b60006109528261179a565b92915050565b7f52c63247e1f47db19d5ce0460030c497f067ca4cebf71ba98eeadabe20bace0380546060916000805160206130ef8339815191529161099790612e1c565b80601f01602080910402602001604051908101604052809291908181526020018280546109c390612e1c565b8015610a105780601f106109e557610100808354040283529160200191610a10565b820191906000526020600020905b8154815290600101906020018083116109f357829003601f168201915b505050505091505090565b6000610a256117cf565b805490915060ff600160401b820416159067ffffffffffffffff16600081158015610a4d5750825b905060008267ffffffffffffffff166001148015610a6a5750303b155b905081158015610a78575080155b15610a965760405163f92ee8a960e01b815260040160405180910390fd5b845467ffffffffffffffff191660011785558315610ac057845460ff60401b1916600160401b1785555b610aca88886117f8565b610ad261180a565b610ada61180a565b610ae261180a565b610aea611812565b610af261180a565b610afd600087611822565b50610b287fa49807205ce4d355092ef5a8a18f56e8913cf4a201fbe287825b095693c2177587611822565b50610b537f9f2df0fed2c77648de5860a4cc508cd0818c85b8b8a1ab4ceeef8d981c8956a687611822565b50610b6c60008051602061314f83398151915287611822565b50610b977f189ab7a9244df0848122154315af71fe140f3db0fe014031783b0946b8c9d2e387611822565b50610bb06000805160206130cf83398151915287611822565b50610c976004602052671bc16d674ec800007fabd6e7cb50984ff9c2f3e18a2660c3353dadf4e3291deeb275dae2cd1e44fe05556729a2241af62c00007f91da3fd0782e51c6b3986e9e672fd566868e71f3dbc2d6c2cd6fbb3e361af2a755674563918244f400007f2e174c10e159ea99b867ce3205125c24a42d128804e4070ed6fcc8cc98166aa055670de0b6b3a76400007f1a1e6821cde7d0159c0d293177871e09677b4e42307c7db3ba94f8648a5a050f556006600052678ac7230489e800007fc59312466997bb42aaaf719ece141047820e6b34531e1670dc1852a453648f0f55565b610cac866a52b7d2dcc80cd2e40000006118c7565b8315610cf257845460ff60401b19168555604051600181527fc7f505b2f371ae2175ee4913f4499e1f2633a7b5936321eed1cdaeb6115181d29060200160405180910390a15b5050505050505050565b600033610d0a8185856118fd565b5060019392505050565b600033610d2285828561190a565b610d2d85858561196b565b60019150505b9392505050565b600090815260008051602061316f833981519152602052604090206001015490565b610d6582610d3a565b610d6e816119ca565b610d788383611822565b50505050565b604080516101008101825260008082526020820181905291810182905260608082018390526080820183905260a082015260c0810182905260e081019190915260008281526001602081815260409283902083516101008101855281548152928101546001600160a01b0390811692840192909252600281015490911692820192909252600382015460608201526004820154909190608083019060ff166006811115610e2d57610e2d612921565b6006811115610e3e57610e3e612921565b8152602001600582018054610e5290612e1c565b80601f0160208091040260200160405190810160405280929190818152602001828054610e7e90612e1c565b8015610ecb5780601f10610ea057610100808354040283529160200191610ecb565b820191906000526020600020905b815481529060010190602001808311610eae57829003601f168201915b50505091835250506006820154602082015260079091015460ff16151560409091015292915050565b6001600160a01b0381163314610f1d5760405163334bd91960e11b815260040160405180910390fd5b610f2782826119d4565b505050565b6000805160206130cf833981519152610f44816119ca565b610f4c611a50565b610f57848484611a88565b610d7860016000805160206131af83398151915255565b6000805160206130cf833981519152610f86816119ca565b82518451148015610f98575081518351145b610fe15760405162461bcd60e51b8152602060048201526015602482015274082e4e4c2f240d8cadccee8d040dad2e6dac2e8c6d605b1b60448201526064015b60405180910390fd5b60005b845181101561104b5761104385828151811061100257611002612e56565b602002602001015185838151811061101c5761101c612e56565b602002602001015185848151811061103657611036612e56565b6020026020010151611a88565b600101610fe4565b5050505050565b60008051602061314f83398151915261106a816119ca565b611072611c46565b50565b7f9f2df0fed2c77648de5860a4cc508cd0818c85b8b8a1ab4ceeef8d981c8956a661109f816119ca565b6b033b2e3c9fd0803ce8000000826110c360008051602061310f8339815191525490565b6110cd9190612e82565b11156110eb5760405162461bcd60e51b8152600401610fd890612e95565b610f2783836118c7565b6110723382611ca6565b611107611cdc565b61111082611d81565b61111a8282611dab565b5050565b6000611128611e68565b5060008051602061312f83398151915290565b6001600160a01b031660009081526000805160206130ef833981519152602052604090205490565b61116e82338361190a565b61111a8282611ca6565b611180611a50565b3360009081526006602052604090205461119d9062015180612e82565b4210156111e45760405162461bcd60e51b8152602060048201526015602482015274416c726561647920636c61696d656420746f64617960581b6044820152606401610fd8565b670de0b6b3a76400006b033b2e3c9fd0803ce80000008161121160008051602061310f8339815191525490565b61121b9190612e82565b11156112395760405162461bcd60e51b8152600401610fd890612e95565b336000908152600660209081526040808320429055600590915281208054839290611265908490612e82565b90915550611275905033826118c7565b6112823382600080611eb1565b80600360008282546112949190612e82565b909155505060405133907fec8541536148b625a39c5bce5db107eab9de30c366db3d031b4ba8055fc8f50f906112ce908490600090612ec1565b60405180910390a2506112ee60016000805160206131af83398151915255565b565b60008051602061314f833981519152611308816119ca565b611072611fc3565b6001600160a01b03821660009081526020819052604081206004018183600681111561133e5761133e612921565b600681111561134f5761134f612921565b815260200190815260200160002054905092915050565b600091825260008051602061316f833981519152602090815260408084206001600160a01b0393909316845291905290205460ff1690565b7f52c63247e1f47db19d5ce0460030c497f067ca4cebf71ba98eeadabe20bace0480546060916000805160206130ef8339815191529161099790612e1c565b60016020819052600091825260409091208054918101546002820154600383015460048401546005850180546001600160a01b03958616969490951694929360ff9092169261142b90612e1c565b80601f016020809104026020016040519081016040528092919081815260200182805461145790612e1c565b80156114a45780601f10611479576101008083540402835291602001916114a4565b820191906000526020600020905b81548152906001019060200180831161148757829003601f168201915b50505050600683015460079093015491929160ff16905088565b600033610d0a81858561196b565b6114d4611a50565b6001600160a01b03841661151e5760405162461bcd60e51b8152602060048201526011602482015270125b9d985b1a59081c9958da5c1a595b9d607a1b6044820152606401610fd8565b6000831161155f5760405162461bcd60e51b815260206004820152600e60248201526d125b9d985b1a5908185b5bdd5b9d60921b6044820152606401610fd8565b826115693361113b565b10156115ae5760405162461bcd60e51b8152602060048201526014602482015273496e73756666696369656e742062616c616e636560601b6044820152606401610fd8565b6115b933858561196b565b6115c63360008585611eb1565b6115d38484600085611eb1565b6115e23385858585600061200c565b836001600160a01b0316336001600160a01b031660016002546116059190612f04565b7f3c89086857ff3533f5ae2b1aa08fc38a5f3e2804713ec4ec6d70f08607bea2578686604051611636929190612f17565b60405180910390a4610d7860016000805160206131af83398151915255565b61165e82610d3a565b611667816119ca565b610d7883836119d4565b6001600160a01b0391821660009081527f52c63247e1f47db19d5ce0460030c497f067ca4cebf71ba98eeadabe20bace016020908152604080832093909416825291909152205490565b7fa49807205ce4d355092ef5a8a18f56e8913cf4a201fbe287825b095693c217756116e5816119ca565b6000600460008560068111156116fd576116fd612921565b600681111561170e5761170e612921565b8152602001908152602001600020549050826004600086600681111561173657611736612921565b600681111561174757611747612921565b8152602001908152602001600020819055507f6fdada652e40cb77f7b5dcc1bffb0c4c108db971394444350fb5d751d7bef57184828560405161178c93929190612f2b565b60405180910390a150505050565b60006001600160e01b03198216637965db0b60e01b148061095257506301ffc9a760e01b6001600160e01b0319831614610952565b6000807ff0c57e16840df040f15088dc2f81fe391c3923bec73e23a9662efc9c229c6a00610952565b611800612150565b61111a8282612175565b6112ee612150565b61181a612150565b6112ee6121c6565b600060008051602061316f83398151915261183d8484611366565b6118bd576000848152602082815260408083206001600160a01b03871684529091529020805460ff191660011790556118733390565b6001600160a01b0316836001600160a01b0316857f2f8788117e7eff1d82e926ec794901d17c78024a50270940304540a733656f0d60405160405180910390a46001915050610952565b6000915050610952565b6001600160a01b0382166118f15760405163ec442f0560e01b815260006004820152602401610fd8565b61111a600083836121ce565b610f2783838360016121d9565b60006119168484611671565b9050600019811015610d78578181101561195c57604051637dc7a0d960e11b81526001600160a01b03841660048201526024810182905260448101839052606401610fd8565b610d78848484840360006121d9565b6001600160a01b03831661199557604051634b637e8f60e11b815260006004820152602401610fd8565b6001600160a01b0382166119bf5760405163ec442f0560e01b815260006004820152602401610fd8565b610f278383836121ce565b61107281336122c0565b600060008051602061316f8339815191526119ef8484611366565b156118bd576000848152602082815260408083206001600160a01b0387168085529252808320805460ff1916905551339287917ff6391f5c32d9c69d2a47ea670b442974b53935d1edc7fd64eb21e047a839171b9190a46001915050610952565b6000805160206131af833981519152805460011901611a8257604051633ee5aeb560e01b815260040160405180910390fd5b60029055565b6001600160a01b038316611ad25760405162461bcd60e51b8152602060048201526011602482015270125b9d985b1a59081c9958da5c1a595b9d607a1b6044820152606401610fd8565b600060046000846006811115611aea57611aea612921565b6006811115611afb57611afb612921565b815260200190815260200160002054905060008111611b5c5760405162461bcd60e51b815260206004820152601760248201527f496e76616c6964207265776172642063617465676f72790000000000000000006044820152606401610fd8565b6b033b2e3c9fd0803ce800000081611b8060008051602061310f8339815191525490565b611b8a9190612e82565b1115611ba85760405162461bcd60e51b8152600401610fd890612e95565b611bb284826118c7565b611bbf8482600086611eb1565b8060036000828254611bd19190612e82565b90915550611be79050600085838686600161200c565b836001600160a01b03167fec8541536148b625a39c5bce5db107eab9de30c366db3d031b4ba8055fc8f50f828585604051611c2493929190612f4a565b60405180910390a250505050565b60016000805160206131af83398151915255565b611c4e6122f9565b60008051602061318f833981519152805460ff191681557f5db9ee0a495bf2e6ff9c91a7834c1ba4fdd244a5e8aa4e537bd38aeae4b073aa335b6040516001600160a01b03909116815260200160405180910390a150565b6001600160a01b038216611cd057604051634b637e8f60e11b815260006004820152602401610fd8565b61111a826000836121ce565b306001600160a01b037f0000000000000000000000000000000000000000000000000000000000000000161480611d6357507f00000000000000000000000000000000000000000000000000000000000000006001600160a01b0316611d5760008051602061312f833981519152546001600160a01b031690565b6001600160a01b031614155b156112ee5760405163703e46dd60e11b815260040160405180910390fd5b7f189ab7a9244df0848122154315af71fe140f3db0fe014031783b0946b8c9d2e361111a816119ca565b816001600160a01b03166352d1902d6040518163ffffffff1660e01b8152600401602060405180830381865afa925050508015611e05575060408051601f3d908101601f19168201909252611e0291810190612f70565b60015b611e2d57604051634c9c8ce360e01b81526001600160a01b0383166004820152602401610fd8565b60008051602061312f8339815191528114611e5e57604051632a87526960e21b815260048101829052602401610fd8565b610f278383612329565b306001600160a01b037f000000000000000000000000000000000000000000000000000000000000000016146112ee5760405163703e46dd60e11b815260040160405180910390fd5b6001600160a01b0384166000908152602081905260408120805490918591839190611edd908490612e82565b9250508190555082816001016000828254611ef89190612e82565b925050819055506001816002016000828254611f149190612e82565b909155505042600382015583600482016000846006811115611f3857611f38612921565b6006811115611f4957611f49612921565b81526020019081526020016000206000828254611f669190612e82565b9091555050805460018201546040516001600160a01b038816927f4b6c7abacb75992cc13ad43ffe4479dac5f7be91202f5fbb108eb1af8d56ed6292611fb492918252602082015260400190565b60405180910390a25050505050565b611fcb61237f565b60008051602061318f833981519152805460ff191660011781557f62e78cea01bee320cd4e420270b5ea74000d11b0c9f74754ebdbfc544b05a25833611c88565b6002805490600061201c83612f89565b91905055506040518061010001604052806002548152602001876001600160a01b03168152602001866001600160a01b0316815260200185815260200184600681111561206b5761206b612921565b8152602080820185905242604080840191909152841515606093840152600280546000908152600180855290839020865181559386015184820180546001600160a01b03199081166001600160a01b0393841617909155938701519285018054909416921691909117909155918301516003820155608083015160048201805492939192909160ff199091169083600681111561210a5761210a612921565b021790555060a082015160058201906121239082612ff2565b5060c0820151600682015560e0909101516007909101805460ff1916911515919091179055505050505050565b6121586123b0565b6112ee57604051631afcd79f60e31b815260040160405180910390fd5b61217d612150565b6000805160206130ef8339815191527f52c63247e1f47db19d5ce0460030c497f067ca4cebf71ba98eeadabe20bace036121b78482612ff2565b5060048101610d788382612ff2565b611c32612150565b610f278383836123ca565b6000805160206130ef8339815191526001600160a01b0385166122125760405163e602df0560e01b815260006004820152602401610fd8565b6001600160a01b03841661223c57604051634a1406b160e11b815260006004820152602401610fd8565b6001600160a01b0380861660009081526001830160209081526040808320938816835292905220839055811561104b57836001600160a01b0316856001600160a01b03167f8c5be1e5ebec7d5bd14f71427d1e84f3dd0314c0f7b2291e5b200ac8c7c3b925856040516122b191815260200190565b60405180910390a35050505050565b6122ca8282611366565b61111a5760405163e2517d3f60e01b81526001600160a01b038216600482015260248101839052604401610fd8565b60008051602061318f8339815191525460ff166112ee57604051638dfc202b60e01b815260040160405180910390fd5b612332826123dd565b6040516001600160a01b038316907fbc7cd75a20ee27fd9adebab32041f755214dbc6bffa90cc0225b39da2e5c2d3b90600090a280511561237757610f278282612442565b61111a6124b8565b60008051602061318f8339815191525460ff16156112ee5760405163d93c066560e01b815260040160405180910390fd5b60006123ba6117cf565b54600160401b900460ff16919050565b6123d261237f565b610f278383836124d7565b806001600160a01b03163b60000361241357604051634c9c8ce360e01b81526001600160a01b0382166004820152602401610fd8565b60008051602061312f83398151915280546001600160a01b0319166001600160a01b0392909216919091179055565b6060600080846001600160a01b03168460405161245f91906130b2565b600060405180830381855af49150503d806000811461249a576040519150601f19603f3d011682016040523d82523d6000602084013e61249f565b606091505b50915091506124af858383612615565b95945050505050565b34156112ee5760405163b398979f60e01b815260040160405180910390fd5b6000805160206130ef8339815191526001600160a01b03841661251357818160020160008282546125089190612e82565b909155506125859050565b6001600160a01b038416600090815260208290526040902054828110156125665760405163391434e360e21b81526001600160a01b03861660048201526024810182905260448101849052606401610fd8565b6001600160a01b03851660009081526020839052604090209083900390555b6001600160a01b0383166125a35760028101805483900390556125c2565b6001600160a01b03831660009081526020829052604090208054830190555b826001600160a01b0316846001600160a01b03167fddf252ad1be2c89b69c2b068fc378daa952ba7f163c4a11628f55a4df523b3ef8460405161260791815260200190565b60405180910390a350505050565b60608261262a5761262582612671565b610d33565b815115801561264157506001600160a01b0384163b155b1561266a57604051639996b31560e01b81526001600160a01b0385166004820152602401610fd8565b5080610d33565b8051156126815780518082602001fd5b60405163d6bda27560e01b815260040160405180910390fd5b6000602082840312156126ac57600080fd5b81356001600160e01b031981168114610d3357600080fd5b60005b838110156126df5781810151838201526020016126c7565b50506000910152565b600081518084526127008160208601602086016126c4565b601f01601f19169290920160200192915050565b602081526000610d3360208301846126e8565b634e487b7160e01b600052604160045260246000fd5b604051601f8201601f1916810167ffffffffffffffff8111828210171561276657612766612727565b604052919050565b600067ffffffffffffffff83111561278857612788612727565b61279b601f8401601f191660200161273d565b90508281528383830111156127af57600080fd5b828260208301376000602084830101529392505050565b600082601f8301126127d757600080fd5b610d338383356020850161276e565b80356001600160a01b03811681146127fd57600080fd5b919050565b60008060006060848603121561281757600080fd5b833567ffffffffffffffff8082111561282f57600080fd5b61283b878388016127c6565b9450602086013591508082111561285157600080fd5b5061285e868287016127c6565b92505061286d604085016127e6565b90509250925092565b6000806040838503121561288957600080fd5b612892836127e6565b946020939093013593505050565b6000806000606084860312156128b557600080fd5b6128be846127e6565b92506128cc602085016127e6565b9150604084013590509250925092565b6000602082840312156128ee57600080fd5b5035919050565b6000806040838503121561290857600080fd5b82359150612918602084016127e6565b90509250929050565b634e487b7160e01b600052602160045260246000fd5b6007811061295557634e487b7160e01b600052602160045260246000fd5b9052565b60208152815160208201526000602083015160018060a01b03808216604085015280604086015116606085015250506060830151608083015260808301516129a460a0840182612937565b5060a08301516101008060c08501526129c16101208501836126e8565b915060c085015160e085015260e08501516129df8286018215159052565b5090949350505050565b8035600781106127fd57600080fd5b600080600060608486031215612a0d57600080fd5b612a16846127e6565b9250612a24602085016129e9565b9150604084013567ffffffffffffffff811115612a4057600080fd5b612a4c868287016127c6565b9150509250925092565b600067ffffffffffffffff821115612a7057612a70612727565b5060051b60200190565b600082601f830112612a8b57600080fd5b81356020612aa0612a9b83612a56565b61273d565b8083825260208201915060208460051b870101935086841115612ac257600080fd5b602086015b84811015612ae557612ad8816129e9565b8352918301918301612ac7565b509695505050505050565b600082601f830112612b0157600080fd5b81356020612b11612a9b83612a56565b82815260059290921b84018101918181019086841115612b3057600080fd5b8286015b84811015612ae557803567ffffffffffffffff811115612b545760008081fd5b612b628986838b01016127c6565b845250918301918301612b34565b600080600060608486031215612b8557600080fd5b833567ffffffffffffffff80821115612b9d57600080fd5b818601915086601f830112612bb157600080fd5b81356020612bc1612a9b83612a56565b82815260059290921b8401810191818101908a841115612be057600080fd5b948201945b83861015612c0557612bf6866127e6565b82529482019490820190612be5565b97505087013592505080821115612c1b57600080fd5b612c2787838801612a7a565b93506040860135915080821115612c3d57600080fd5b50612a4c86828701612af0565b60008060408385031215612c5d57600080fd5b612c66836127e6565b9150602083013567ffffffffffffffff811115612c8257600080fd5b8301601f81018513612c9357600080fd5b612ca28582356020840161276e565b9150509250929050565b600060208284031215612cbe57600080fd5b610d33826129e9565b600060208284031215612cd957600080fd5b610d33826127e6565b60008060408385031215612cf557600080fd5b612cfe836127e6565b9150612918602084016129e9565b8881526001600160a01b03888116602083015287166040820152606081018690526000610100612d3f6080840188612937565b8060a0840152612d51818401876126e8565b60c0840195909552505090151560e0909101529695505050505050565b60008060008060808587031215612d8457600080fd5b612d8d856127e6565b935060208501359250612da2604086016129e9565b9150606085013567ffffffffffffffff811115612dbe57600080fd5b612dca878288016127c6565b91505092959194509250565b60008060408385031215612de957600080fd5b612df2836127e6565b9150612918602084016127e6565b60008060408385031215612e1357600080fd5b612892836129e9565b600181811c90821680612e3057607f821691505b602082108103612e5057634e487b7160e01b600052602260045260246000fd5b50919050565b634e487b7160e01b600052603260045260246000fd5b634e487b7160e01b600052601160045260246000fd5b8082018082111561095257610952612e6c565b60208082526012908201527145786365656473206d617820737570706c7960701b604082015260600190565b828152612ed16020820183612937565b6060604082018190526012908201527111185a5b1e481b1bd9da5b881c995dd85c9960721b608082015260a00192915050565b8181038181111561095257610952612e6c565b82815260408101610d336020830184612937565b60608101612f398286612937565b602082019390935260400152919050565b838152612f5a6020820184612937565b6060604082015260006124af60608301846126e8565b600060208284031215612f8257600080fd5b5051919050565b600060018201612f9b57612f9b612e6c565b5060010190565b601f821115610f27576000816000526020600020601f850160051c81016020861015612fcb5750805b601f850160051c820191505b81811015612fea57828155600101612fd7565b505050505050565b815167ffffffffffffffff81111561300c5761300c612727565b6130208161301a8454612e1c565b84612fa2565b602080601f831160018114613055576000841561303d5750858301515b600019600386901b1c1916600185901b178555612fea565b600085815260208120601f198616915b8281101561308457888601518255948401946001909101908401613065565b50858210156130a25787850151600019600388901b60f8161c191681555b5050505050600190811b01905550565b600082516130c48184602087016126c4565b919091019291505056feb814ff4a26ea3ec5cd1fa579daad86324826254265f3acfec78303a19845b44952c63247e1f47db19d5ce0460030c497f067ca4cebf71ba98eeadabe20bace0052c63247e1f47db19d5ce0460030c497f067ca4cebf71ba98eeadabe20bace02360894a13ba1a3210667c828492db98dca3e2076cc3735a920a3ca505d382bbc65d7a28e3265b37a6474929f336521b332c1681b933f6cb9f3376673440d862a02dd7bc7dec4dceedda775e58dd541e08a116c6c53815c0bd028192f7b626800cd5ed15c6e187e77e9aee88184c21f4f2182ab5827cb3b7e07fbedcd63f033009b779b17422d0df92223018b32b4d1fa46e071723d6817e2486d003becc55f00a264697066735822122069967e0b414c2b1baca76fdfb0f5ae26e00585a149b44aea34abca3e925727be64736f6c63430008160033",
  "linkReferences": {},
  "deployedLinkReferences": {}
}